{
  "contractName": "DayLimitAccount",
  "abi": [
    {
      "constant": false,
      "inputs": [],
      "name": "claim",
      "outputs": [],
      "payable": false,
      "type": "function",
      "stateMutability": "nonpayable"
    },
    {
      "constant": true,
      "inputs": [],
      "name": "limit",
      "outputs": [
        {
          "name": "",
          "type": "uint256"
        }
      ],
      "payable": false,
      "type": "function",
      "stateMutability": "view"
    },
    {
      "constant": true,
      "inputs": [],
      "name": "claimable",
      "outputs": [
        {
          "name": "",
          "type": "uint256"
        }
      ],
      "payable": false,
      "type": "function",
      "stateMutability": "view"
    },
    {
      "constant": true,
      "inputs": [],
      "name": "beneficary",
      "outputs": [
        {
          "name": "",
          "type": "address"
        }
      ],
      "payable": false,
      "type": "function",
      "stateMutability": "view"
    },
    {
      "constant": true,
      "inputs": [],
      "name": "firstDay",
      "outputs": [
        {
          "name": "",
          "type": "uint256"
        }
      ],
      "payable": false,
      "type": "function",
      "stateMutability": "view"
    },
    {
      "constant": true,
      "inputs": [],
      "name": "claimed",
      "outputs": [
        {
          "name": "",
          "type": "uint256"
        }
      ],
      "payable": false,
      "type": "function",
      "stateMutability": "view"
    },
    {
      "constant": true,
      "inputs": [],
      "name": "token",
      "outputs": [
        {
          "name": "",
          "type": "address"
        }
      ],
      "payable": false,
      "type": "function",
      "stateMutability": "view"
    },
    {
      "inputs": [
        {
          "name": "_token",
          "type": "address"
        },
        {
          "name": "_beneficary",
          "type": "address"
        },
        {
          "name": "_limit",
          "type": "uint256"
        }
      ],
      "payable": false,
      "type": "constructor",
      "stateMutability": "nonpayable"
    }
  ],
  "bytecode": "0x6060604052341561000f57600080fd5b60405160608061052d83398101604052808051906020019091908051906020019091908051906020019091905050826000806101000a81548173ffffffffffffffffffffffffffffffffffffffff021916908373ffffffffffffffffffffffffffffffffffffffff16021790555081600460006101000a81548173ffffffffffffffffffffffffffffffffffffffff021916908373ffffffffffffffffffffffffffffffffffffffff16021790555060016100db6100f1640100000000026103a2176401000000009004565b0360028190555080600181905550505050610107565b6000620151804281151561010157fe5b04905090565b610417806101166000396000f300606060405260043610610083576000357c0100000000000000000000000000000000000000000000000000000000900463ffffffff1680634e71d92d14610088578063a4d66daf1461009d578063af38d757146100c6578063cbfda1c5146100ef578063cf1405fe14610144578063e834a8341461016d578063fc0c546a14610196575b600080fd5b341561009357600080fd5b61009b6101eb565b005b34156100a857600080fd5b6100b061031e565b6040518082815260200191505060405180910390f35b34156100d157600080fd5b6100d9610324565b6040518082815260200191505060405180910390f35b34156100fa57600080fd5b61010261034b565b604051808273ffffffffffffffffffffffffffffffffffffffff1673ffffffffffffffffffffffffffffffffffffffff16815260200191505060405180910390f35b341561014f57600080fd5b610157610371565b6040518082815260200191505060405180910390f35b341561017857600080fd5b610180610377565b6040518082815260200191505060405180910390f35b34156101a157600080fd5b6101a961037d565b604051808273ffffffffffffffffffffffffffffffffffffffff1673ffffffffffffffffffffffffffffffffffffffff16815260200191505060405180910390f35b60006101f5610324565b9050806003600082825401925050819055506000809054906101000a900473ffffffffffffffffffffffffffffffffffffffff1673ffffffffffffffffffffffffffffffffffffffff1663a9059cbb600460009054906101000a900473ffffffffffffffffffffffffffffffffffffffff16836000604051602001526040518363ffffffff167c0100000000000000000000000000000000000000000000000000000000028152600401808373ffffffffffffffffffffffffffffffffffffffff1673ffffffffffffffffffffffffffffffffffffffff16815260200182815260200192505050602060405180830381600087803b15156102f557600080fd5b6102c65a03f1151561030657600080fd5b50505060405180519050151561031b57600080fd5b50565b60015481565b60008061033e6002546103356103a2565b036001546103b8565b9050600354810391505090565b600460009054906101000a900473ffffffffffffffffffffffffffffffffffffffff1681565b60025481565b60035481565b6000809054906101000a900473ffffffffffffffffffffffffffffffffffffffff1681565b600062015180428115156103b257fe5b04905090565b600080828402905060008414806103d957508284828115156103d657fe5b04145b15156103e157fe5b80915050929150505600a165627a7a723058204aef1e3899a364324170ea42f1c382da1d452b858e4415c57621aebbd5e5a2820029",
  "source": "pragma solidity ^0.4.18;\n\nimport \"zeppelin-solidity/contracts/token/ERC20.sol\";\nimport \"zeppelin-solidity/contracts/math/SafeMath.sol\";\n\n/* This contract manages an account of an ERC20 Token\n * it locks the tokens, and and releases not more than a given amount of tokens each day\n * to a gven beneficary\n */\n\ncontract DayLimitAccount {\n    ERC20 public token;\n    uint public limit; // amount of tokens to release each day\n    uint public firstDay; // first day that tokens were released\n    uint public claimed; // amount of tokens that were already claimed\n    address public beneficary; // who gets the released tokens\n\n    function DayLimitAccount(ERC20 _token, address _beneficary, uint _limit) {\n        token = _token;\n        beneficary = _beneficary;\n        firstDay = today() - 1;\n        limit = _limit;\n    }\n\n    // determines today's index.\n    function today() private constant returns (uint) {\n      return now / 1 days;\n    }\n\n    // returns how much tokens are claimable\n    function claimable() constant returns (uint) {\n        uint total_claimable = SafeMath.mul(today() - firstDay, limit);\n        return (total_claimable - claimed);\n    }\n\n    // transfer all claimable tokens to the beneficary\n    function claim() {\n        uint _value = claimable();\n        claimed += _value;\n        if (!(token.transfer(beneficary, _value))) {\n            revert();\n        }\n    }\n}\n",
  "sourcePath": "/media/data/projects/paratii/paratii-contracts/contracts/paratii/DayLimitAccount.sol",
  "compiler": {
    "name": "solc",
    "version": "0.4.18+commit.9cf6e910.Emscripten.clang"
  },
  "schemaVersion": "1.0.1",
  "updatedAt": "2017-11-22T12:02:29.504Z"
}