{
  "contractName": "Likes",
  "abi": [
    {
      "constant": false,
      "inputs": [
        {
          "name": "_videoId",
          "type": "string"
        },
        {
          "name": "_liked",
          "type": "bool"
        }
      ],
      "name": "likeVideo",
      "outputs": [],
      "payable": false,
      "stateMutability": "nonpayable",
      "type": "function"
    },
    {
      "constant": true,
      "inputs": [
        {
          "name": "_address",
          "type": "address"
        },
        {
          "name": "_videoId",
          "type": "string"
        }
      ],
      "name": "userLikesVideo",
      "outputs": [
        {
          "name": "",
          "type": "bool"
        }
      ],
      "payable": false,
      "stateMutability": "view",
      "type": "function"
    },
    {
      "constant": true,
      "inputs": [
        {
          "name": "_videoId",
          "type": "string"
        }
      ],
      "name": "vidDislikes",
      "outputs": [
        {
          "name": "",
          "type": "uint256"
        }
      ],
      "payable": false,
      "stateMutability": "view",
      "type": "function"
    },
    {
      "constant": true,
      "inputs": [],
      "name": "owner",
      "outputs": [
        {
          "name": "",
          "type": "address"
        }
      ],
      "payable": false,
      "stateMutability": "view",
      "type": "function"
    },
    {
      "constant": true,
      "inputs": [
        {
          "name": "_address",
          "type": "address"
        },
        {
          "name": "_videoId",
          "type": "string"
        }
      ],
      "name": "userDislikesVideo",
      "outputs": [
        {
          "name": "",
          "type": "bool"
        }
      ],
      "payable": false,
      "stateMutability": "view",
      "type": "function"
    },
    {
      "constant": true,
      "inputs": [
        {
          "name": "_address",
          "type": "address"
        }
      ],
      "name": "userDislikes",
      "outputs": [
        {
          "name": "",
          "type": "uint256"
        }
      ],
      "payable": false,
      "stateMutability": "view",
      "type": "function"
    },
    {
      "constant": true,
      "inputs": [
        {
          "name": "_videoId",
          "type": "string"
        }
      ],
      "name": "vidLikes",
      "outputs": [
        {
          "name": "",
          "type": "uint256"
        }
      ],
      "payable": false,
      "stateMutability": "view",
      "type": "function"
    },
    {
      "constant": true,
      "inputs": [
        {
          "name": "_address",
          "type": "address"
        }
      ],
      "name": "userLikes",
      "outputs": [
        {
          "name": "",
          "type": "uint256"
        }
      ],
      "payable": false,
      "stateMutability": "view",
      "type": "function"
    },
    {
      "constant": false,
      "inputs": [
        {
          "name": "newOwner",
          "type": "address"
        }
      ],
      "name": "transferOwnership",
      "outputs": [],
      "payable": false,
      "stateMutability": "nonpayable",
      "type": "function"
    },
    {
      "inputs": [
        {
          "name": "_paratiiRegistry",
          "type": "address"
        }
      ],
      "payable": false,
      "stateMutability": "nonpayable",
      "type": "constructor"
    },
    {
      "anonymous": false,
      "inputs": [
        {
          "indexed": false,
          "name": "_address",
          "type": "address"
        },
        {
          "indexed": false,
          "name": "_videoId",
          "type": "string"
        },
        {
          "indexed": false,
          "name": "_liked",
          "type": "bool"
        }
      ],
      "name": "LogLikeVideo",
      "type": "event"
    },
    {
      "anonymous": false,
      "inputs": [
        {
          "indexed": true,
          "name": "previousOwner",
          "type": "address"
        },
        {
          "indexed": true,
          "name": "newOwner",
          "type": "address"
        }
      ],
      "name": "OwnershipTransferred",
      "type": "event"
    }
  ],
  "bytecode": "0x6060604052341561000f57600080fd5b6040516020806110d883398101604052808051906020019091905050336000806101000a81548173ffffffffffffffffffffffffffffffffffffffff021916908373ffffffffffffffffffffffffffffffffffffffff160217905550336000806101000a81548173ffffffffffffffffffffffffffffffffffffffff021916908373ffffffffffffffffffffffffffffffffffffffff16021790555080600160006101000a81548173ffffffffffffffffffffffffffffffffffffffff021916908373ffffffffffffffffffffffffffffffffffffffff16021790555050610fdc806100fc6000396000f300606060405260043610610099576000357c0100000000000000000000000000000000000000000000000000000000900463ffffffff168063075ca0d31461009e57806335068bef146101065780637b0aadea1461019a5780638da5cb5b1461020b5780638f886d9414610260578063a822f11f146102f4578063d834913314610341578063e8d5b22d146103b2578063f2fde38b146103ff575b600080fd5b34156100a957600080fd5b610104600480803590602001908201803590602001908080601f016020809104026020016040519081016040528093929190818152602001838380828437820191505050505050919080351515906020019091905050610438565b005b341561011157600080fd5b610180600480803573ffffffffffffffffffffffffffffffffffffffff1690602001909190803590602001908201803590602001908080601f01602080910402602001604051908101604052809392919081815260200183838082843782019150505050505091905050610af2565b604051808215151515815260200191505060405180910390f35b34156101a557600080fd5b6101f5600480803590602001908201803590602001908080601f01602080910402602001604051908101604052809392919081815260200183838082843782019150505050505091905050610bc4565b6040518082815260200191505060405180910390f35b341561021657600080fd5b61021e610c4b565b604051808273ffffffffffffffffffffffffffffffffffffffff1673ffffffffffffffffffffffffffffffffffffffff16815260200191505060405180910390f35b341561026b57600080fd5b6102da600480803573ffffffffffffffffffffffffffffffffffffffff1690602001909190803590602001908201803590602001908080601f01602080910402602001604051908101604052809392919081815260200183838082843782019150505050505091905050610c70565b604051808215151515815260200191505060405180910390f35b34156102ff57600080fd5b61032b600480803573ffffffffffffffffffffffffffffffffffffffff16906020019091905050610d42565b6040518082815260200191505060405180910390f35b341561034c57600080fd5b61039c600480803590602001908201803590602001908080601f01602080910402602001604051908101604052809392919081815260200183838082843782019150505050505091905050610d8b565b6040518082815260200191505060405180910390f35b34156103bd57600080fd5b6103e9600480803573ffffffffffffffffffffffffffffffffffffffff16906020019091905050610e12565b6040518082815260200191505060405180910390f35b341561040a57600080fd5b610436600480803573ffffffffffffffffffffffffffffffffffffffff16906020019091905050610e5b565b005b600080600080339350856040518082805190602001908083835b6020831015156104775780518252602082019150602081019050602083039250610452565b6001836020036101000a038019825116818451168082178552505050505050905001915050604051809103902092506104b08487610af2565b91506104bc8487610af2565b90507fa7f48f489e5528c34ca196632deb780c27875fcc3040ed926a744d67aa2d3054848787604051808473ffffffffffffffffffffffffffffffffffffffff1673ffffffffffffffffffffffffffffffffffffffff1681526020018060200183151515158152602001828103825284818151815260200191508051906020019080838360005b8381101561055e578082015181840152602081019050610543565b50505050905090810190601f16801561058b5780820380516001836020036101000a031916815260200191505b5094505050505060405180910390a18480156105a45750815b156105ae57610aea565b841580156105b95750805b156105c357610aea565b8415610855576001600260008673ffffffffffffffffffffffffffffffffffffffff1673ffffffffffffffffffffffffffffffffffffffff1681526020019081526020016000206000856000191660001916815260200190815260200160002060006101000a81548160ff0219169083151502179055506001600460008673ffffffffffffffffffffffffffffffffffffffff1673ffffffffffffffffffffffffffffffffffffffff168152602001908152602001600020600082825401925050819055506001600660008560001916600019168152602001908152602001600020600082825401925050819055508015610778576000600360008673ffffffffffffffffffffffffffffffffffffffff1673ffffffffffffffffffffffffffffffffffffffff1681526020019081526020016000206000856000191660001916815260200190815260200160002060006101000a81548160ff0219169083151502179055506001600560008673ffffffffffffffffffffffffffffffffffffffff1673ffffffffffffffffffffffffffffffffffffffff168152602001908152602001600020600082825403925050819055505b7fa7f48f489e5528c34ca196632deb780c27875fcc3040ed926a744d67aa2d3054848787604051808473ffffffffffffffffffffffffffffffffffffffff1673ffffffffffffffffffffffffffffffffffffffff1681526020018060200183151515158152602001828103825284818151815260200191508051906020019080838360005b838110156108185780820151818401526020810190506107fd565b50505050905090810190601f1680156108455780820380516001836020036101000a031916815260200191505b5094505050505060405180910390a15b84158015610861575080155b15610ae9576000600260008673ffffffffffffffffffffffffffffffffffffffff1673ffffffffffffffffffffffffffffffffffffffff1681526020019081526020016000206000886040518082805190602001908083835b6020831015156108df57805182526020820191506020810190506020830392506108ba565b6001836020036101000a03801982511681845116808217855250505050505090500191505060405180910390206000191660001916815260200190815260200160002060006101000a81548160ff0219169083151502179055506001600360008673ffffffffffffffffffffffffffffffffffffffff1673ffffffffffffffffffffffffffffffffffffffff1681526020019081526020016000206000886040518082805190602001908083835b6020831015156109b2578051825260208201915060208101905060208303925061098d565b6001836020036101000a03801982511681845116808217855250505050505090500191505060405180910390206000191660001916815260200190815260200160002060006101000a81548160ff0219169083151502179055507fa7f48f489e5528c34ca196632deb780c27875fcc3040ed926a744d67aa2d3054848787604051808473ffffffffffffffffffffffffffffffffffffffff1673ffffffffffffffffffffffffffffffffffffffff1681526020018060200183151515158152602001828103825284818151815260200191508051906020019080838360005b83811015610aac578082015181840152602081019050610a91565b50505050905090810190601f168015610ad95780820380516001836020036101000a031916815260200191505b5094505050505060405180910390a15b5b505050505050565b6000600260008473ffffffffffffffffffffffffffffffffffffffff1673ffffffffffffffffffffffffffffffffffffffff1681526020019081526020016000206000836040518082805190602001908083835b602083101515610b6b5780518252602082019150602081019050602083039250610b46565b6001836020036101000a03801982511681845116808217855250505050505090500191505060405180910390206000191660001916815260200190815260200160002060009054906101000a900460ff16905092915050565b600060076000836040518082805190602001908083835b602083101515610c005780518252602082019150602081019050602083039250610bdb565b6001836020036101000a038019825116818451168082178552505050505050905001915050604051809103902060001916600019168152602001908152602001600020549050919050565b6000809054906101000a900473ffffffffffffffffffffffffffffffffffffffff1681565b6000600360008473ffffffffffffffffffffffffffffffffffffffff1673ffffffffffffffffffffffffffffffffffffffff1681526020019081526020016000206000836040518082805190602001908083835b602083101515610ce95780518252602082019150602081019050602083039250610cc4565b6001836020036101000a03801982511681845116808217855250505050505090500191505060405180910390206000191660001916815260200190815260200160002060009054906101000a900460ff16905092915050565b6000600460008373ffffffffffffffffffffffffffffffffffffffff1673ffffffffffffffffffffffffffffffffffffffff168152602001908152602001600020549050919050565b600060066000836040518082805190602001908083835b602083101515610dc75780518252602082019150602081019050602083039250610da2565b6001836020036101000a038019825116818451168082178552505050505050905001915050604051809103902060001916600019168152602001908152602001600020549050919050565b6000600460008373ffffffffffffffffffffffffffffffffffffffff1673ffffffffffffffffffffffffffffffffffffffff168152602001908152602001600020549050919050565b6000809054906101000a900473ffffffffffffffffffffffffffffffffffffffff1673ffffffffffffffffffffffffffffffffffffffff163373ffffffffffffffffffffffffffffffffffffffff16141515610eb657600080fd5b600073ffffffffffffffffffffffffffffffffffffffff168173ffffffffffffffffffffffffffffffffffffffff1614151515610ef257600080fd5b8073ffffffffffffffffffffffffffffffffffffffff166000809054906101000a900473ffffffffffffffffffffffffffffffffffffffff1673ffffffffffffffffffffffffffffffffffffffff167f8be0079c531659141344cd1fd0a4f28419497f9722a3daafe3b4186f6b6457e060405160405180910390a3806000806101000a81548173ffffffffffffffffffffffffffffffffffffffff021916908373ffffffffffffffffffffffffffffffffffffffff160217905550505600a165627a7a72305820473f0fb07d2c6dcb1a81f38ad0e2689f493e5030bb137b817f806b454a5d39930029",
  "source": "pragma solidity ^0.4.18;\n\nimport \"zeppelin-solidity/contracts/ownership/Ownable.sol\";\nimport 'zeppelin-solidity/contracts/math/SafeMath.sol';\nimport './ParatiiRegistry.sol';\n\ncontract Likes is Ownable {\n\n    address paratiiRegistry;\n\n    // mapping from user addrsses and video ids to booleans\n    mapping (address=> mapping (bytes32 => bool)) private _likes;\n    mapping (address=> mapping (bytes32 => bool)) private _dislikes;\n    // total of liks on a video\n    mapping (address => uint) private _userLikes;\n    mapping (address => uint) private _userDislikes;\n    mapping (bytes32 => uint) private _vidLikes;\n    mapping (bytes32 => uint) private _vidDislikes;\n\n    event LogLikeVideo(address _address, string _videoId, bool _liked);\n\n    function Likes(ParatiiRegistry _paratiiRegistry) public {\n        owner = msg.sender;\n        paratiiRegistry = _paratiiRegistry;\n    }\n\n   function likeVideo(string _videoId, bool _liked) public {\n       address _address = msg.sender;\n       bytes32 _videoHash = keccak256(_videoId);\n       bool _userLikesVideo = userLikesVideo(_address, _videoId);\n       bool _userDislikesVideo = userLikesVideo(_address, _videoId);\n       LogLikeVideo(_address, _videoId, _liked);\n\n       if (_liked && _userLikesVideo) {\n           // this user already liked the video before\n           return;\n       }\n\n       if (!_liked && _userDislikesVideo) {\n           // this user already disliked the video before\n           return;\n       }\n\n       if (_liked) {\n           // msg.sender likes his video and did not do so before\n           _likes[_address][_videoHash] = true;\n           _userLikes[_address] += 1;\n           _vidLikes[_videoHash] += 1;\n\n           if (_userDislikesVideo) {\n               _dislikes[_address][_videoHash] = false;\n               _userDislikes[_address] -= 1;\n           }\n\n           LogLikeVideo(_address, _videoId, _liked);\n        }\n\n        if (!_liked && !_userDislikesVideo) {\n            _likes[_address][keccak256(_videoId)] = false;\n            _dislikes[_address][keccak256(_videoId)] = true;\n            LogLikeVideo(_address, _videoId, _liked);\n        }\n    }\n\n    function userLikes(address _address) public constant returns(uint) {\n      return _userLikes[_address];\n    }\n\n    function userDislikes(address _address) public constant returns(uint)  {\n      return _userLikes[_address];\n    }\n\n    function vidLikes(string _videoId) public constant returns(uint) {\n      return _vidLikes[keccak256(_videoId)];\n    }\n\n    function vidDislikes(string _videoId) public constant returns(uint) {\n      return _vidDislikes[keccak256(_videoId)];\n    }\n\n    function userLikesVideo(address _address, string _videoId) public constant returns(bool) {\n        return _likes[_address][keccak256(_videoId)];\n    }\n\n    function userDislikesVideo(address _address, string _videoId) public constant returns(bool) {\n        return _dislikes[_address][keccak256(_videoId)];\n    }\n}\n",
  "sourcePath": "/media/data/projects/paratii/paratii-contracts/contracts/paratii/Likes.sol",
  "compiler": {
    "name": "solc",
    "version": "0.4.18+commit.9cf6e910.Emscripten.clang"
  },
  "schemaVersion": "1.0.1",
  "updatedAt": "2017-12-19T08:42:22.952Z"
}