{
  "contractName": "ParatiiRegistry",
  "abi": [
    {
      "constant": true,
      "inputs": [
        {
          "name": "",
          "type": "bytes32"
        }
      ],
      "name": "strings",
      "outputs": [
        {
          "name": "",
          "type": "string"
        }
      ],
      "payable": false,
      "stateMutability": "view",
      "type": "function"
    },
    {
      "constant": true,
      "inputs": [],
      "name": "owner",
      "outputs": [
        {
          "name": "",
          "type": "address"
        }
      ],
      "payable": false,
      "stateMutability": "view",
      "type": "function"
    },
    {
      "constant": true,
      "inputs": [
        {
          "name": "",
          "type": "bytes32"
        }
      ],
      "name": "numbers",
      "outputs": [
        {
          "name": "",
          "type": "uint256"
        }
      ],
      "payable": false,
      "stateMutability": "view",
      "type": "function"
    },
    {
      "constant": true,
      "inputs": [
        {
          "name": "",
          "type": "bytes32"
        }
      ],
      "name": "contracts",
      "outputs": [
        {
          "name": "",
          "type": "address"
        }
      ],
      "payable": false,
      "stateMutability": "view",
      "type": "function"
    },
    {
      "constant": false,
      "inputs": [
        {
          "name": "newOwner",
          "type": "address"
        }
      ],
      "name": "transferOwnership",
      "outputs": [],
      "payable": false,
      "stateMutability": "nonpayable",
      "type": "function"
    },
    {
      "anonymous": false,
      "inputs": [
        {
          "indexed": false,
          "name": "_name",
          "type": "string"
        },
        {
          "indexed": false,
          "name": "_address",
          "type": "address"
        }
      ],
      "name": "LogRegisterAddress",
      "type": "event"
    },
    {
      "anonymous": false,
      "inputs": [
        {
          "indexed": false,
          "name": "_name",
          "type": "string"
        }
      ],
      "name": "LogUnregisterAddress",
      "type": "event"
    },
    {
      "anonymous": false,
      "inputs": [
        {
          "indexed": false,
          "name": "_name",
          "type": "string"
        },
        {
          "indexed": false,
          "name": "_number",
          "type": "uint256"
        }
      ],
      "name": "LogRegisterUint",
      "type": "event"
    },
    {
      "anonymous": false,
      "inputs": [
        {
          "indexed": false,
          "name": "_name",
          "type": "string"
        }
      ],
      "name": "LogUnregisterUint",
      "type": "event"
    },
    {
      "anonymous": false,
      "inputs": [
        {
          "indexed": false,
          "name": "_name",
          "type": "string"
        },
        {
          "indexed": false,
          "name": "_string",
          "type": "string"
        }
      ],
      "name": "LogRegisterString",
      "type": "event"
    },
    {
      "anonymous": false,
      "inputs": [
        {
          "indexed": false,
          "name": "_name",
          "type": "string"
        }
      ],
      "name": "LogUnregisterString",
      "type": "event"
    },
    {
      "anonymous": false,
      "inputs": [
        {
          "indexed": true,
          "name": "previousOwner",
          "type": "address"
        },
        {
          "indexed": true,
          "name": "newOwner",
          "type": "address"
        }
      ],
      "name": "OwnershipTransferred",
      "type": "event"
    },
    {
      "constant": false,
      "inputs": [],
      "name": "Registry",
      "outputs": [],
      "payable": false,
      "stateMutability": "nonpayable",
      "type": "function"
    },
    {
      "constant": false,
      "inputs": [
        {
          "name": "_name",
          "type": "string"
        },
        {
          "name": "_address",
          "type": "address"
        }
      ],
      "name": "registerAddress",
      "outputs": [],
      "payable": false,
      "stateMutability": "nonpayable",
      "type": "function"
    },
    {
      "constant": false,
      "inputs": [
        {
          "name": "_name",
          "type": "string"
        }
      ],
      "name": "unregisterAddress",
      "outputs": [],
      "payable": false,
      "stateMutability": "nonpayable",
      "type": "function"
    },
    {
      "constant": true,
      "inputs": [
        {
          "name": "_name",
          "type": "string"
        }
      ],
      "name": "getContract",
      "outputs": [
        {
          "name": "",
          "type": "address"
        }
      ],
      "payable": false,
      "stateMutability": "view",
      "type": "function"
    },
    {
      "constant": false,
      "inputs": [
        {
          "name": "_name",
          "type": "string"
        },
        {
          "name": "_number",
          "type": "uint256"
        }
      ],
      "name": "registerUint",
      "outputs": [],
      "payable": false,
      "stateMutability": "nonpayable",
      "type": "function"
    },
    {
      "constant": false,
      "inputs": [
        {
          "name": "_name",
          "type": "string"
        }
      ],
      "name": "unregisterUint",
      "outputs": [],
      "payable": false,
      "stateMutability": "nonpayable",
      "type": "function"
    },
    {
      "constant": true,
      "inputs": [
        {
          "name": "_name",
          "type": "string"
        }
      ],
      "name": "getUint",
      "outputs": [
        {
          "name": "",
          "type": "uint256"
        }
      ],
      "payable": false,
      "stateMutability": "view",
      "type": "function"
    },
    {
      "constant": false,
      "inputs": [
        {
          "name": "_name",
          "type": "string"
        },
        {
          "name": "_string",
          "type": "string"
        }
      ],
      "name": "registerString",
      "outputs": [],
      "payable": false,
      "stateMutability": "nonpayable",
      "type": "function"
    },
    {
      "constant": false,
      "inputs": [
        {
          "name": "_name",
          "type": "string"
        }
      ],
      "name": "unregisterString",
      "outputs": [],
      "payable": false,
      "stateMutability": "nonpayable",
      "type": "function"
    },
    {
      "constant": true,
      "inputs": [
        {
          "name": "_name",
          "type": "string"
        }
      ],
      "name": "getString",
      "outputs": [
        {
          "name": "",
          "type": "string"
        }
      ],
      "payable": false,
      "stateMutability": "view",
      "type": "function"
    }
  ],
  "bytecode": "0x6080604052336000806101000a81548173ffffffffffffffffffffffffffffffffffffffff021916908373ffffffffffffffffffffffffffffffffffffffff1602179055506117fe806100536000396000f3006080604052600436106100db576000357c0100000000000000000000000000000000000000000000000000000000900463ffffffff16806326404c37146100e057806335817773146101495780633708a96b146101f2578063498bff001461025b5780636059936e146102d857806375b45351146103825780637db9743b146103f55780638da5cb5b1461040c57806397d7e807146104635780639c981fcb146104cc578063b13f5f19146105ae578063bd93528714610637578063c724982b146106e6578063ec56a3731461072b578063f2fde38b1461079c575b600080fd5b3480156100ec57600080fd5b50610147600480360381019080803590602001908201803590602001908080601f01602080910402602001604051908101604052809392919081815260200183838082843782019150505050505091929192905050506107df565b005b34801561015557600080fd5b506101b0600480360381019080803590602001908201803590602001908080601f0160208091040260200160405190810160405280939291908181526020018383808284378201915050505050509192919290505050610979565b604051808273ffffffffffffffffffffffffffffffffffffffff1673ffffffffffffffffffffffffffffffffffffffff16815260200191505060405180910390f35b3480156101fe57600080fd5b50610259600480360381019080803590602001908201803590602001908080601f0160208091040260200160405190810160405280939291908181526020018383808284378201915050505050509192919290505050610a20565b005b34801561026757600080fd5b506102c2600480360381019080803590602001908201803590602001908080601f0160208091040260200160405190810160405280939291908181526020018383808284378201915050505050509192919290505050610b9b565b6040518082815260200191505060405180910390f35b3480156102e457600080fd5b506103076004803603810190808035600019169060200190929190505050610c22565b6040518080602001828103825283818151815260200191508051906020019080838360005b8381101561034757808201518184015260208101905061032c565b50505050905090810190601f1680156103745780820380516001836020036101000a031916815260200191505b509250505060405180910390f35b34801561038e57600080fd5b506103f3600480360381019080803590602001908201803590602001908080601f016020809104026020016040519081016040528093929190818152602001838380828437820191505050505050919291929080359060200190929190505050610cd2565b005b34801561040157600080fd5b5061040a610e57565b005b34801561041857600080fd5b50610421610e99565b604051808273ffffffffffffffffffffffffffffffffffffffff1673ffffffffffffffffffffffffffffffffffffffff16815260200191505060405180910390f35b34801561046f57600080fd5b506104ca600480360381019080803590602001908201803590602001908080601f0160208091040260200160405190810160405280939291908181526020018383808284378201915050505050509192919290505050610ebe565b005b3480156104d857600080fd5b50610533600480360381019080803590602001908201803590602001908080601f0160208091040260200160405190810160405280939291908181526020018383808284378201915050505050509192919290505050611041565b6040518080602001828103825283818151815260200191508051906020019080838360005b83811015610573578082015181840152602081019050610558565b50505050905090810190601f1680156105a05780820380516001836020036101000a031916815260200191505b509250505060405180910390f35b3480156105ba57600080fd5b50610635600480360381019080803590602001908201803590602001908080601f0160208091040260200160405190810160405280939291908181526020018383808284378201915050505050509192919290803573ffffffffffffffffffffffffffffffffffffffff169060200190929190505050611160565b005b34801561064357600080fd5b506106e4600480360381019080803590602001908201803590602001908080601f0160208091040260200160405190810160405280939291908181526020018383808284378201915050505050509192919290803590602001908201803590602001908080601f016020809104026020016040519081016040528093929190818152602001838380828437820191505050505050919291929050505061134b565b005b3480156106f257600080fd5b506107156004803603810190808035600019169060200190929190505050611545565b6040518082815260200191505060405180910390f35b34801561073757600080fd5b5061075a600480360381019080803560001916906020019092919050505061155d565b604051808273ffffffffffffffffffffffffffffffffffffffff1673ffffffffffffffffffffffffffffffffffffffff16815260200191505060405180910390f35b3480156107a857600080fd5b506107dd600480360381019080803573ffffffffffffffffffffffffffffffffffffffff169060200190929190505050611590565b005b6000809054906101000a900473ffffffffffffffffffffffffffffffffffffffff1673ffffffffffffffffffffffffffffffffffffffff163373ffffffffffffffffffffffffffffffffffffffff1614151561083a57600080fd5b60016000826040518082805190602001908083835b602083101515610874578051825260208201915060208101905060208303925061084f565b6001836020036101000a03801982511681845116808217855250505050505090500191505060405180910390206000191660001916815260200190815260200160002060006101000a81549073ffffffffffffffffffffffffffffffffffffffff02191690557fa76e7b6e2c26769c731f99243d786a5fa6f8d70201a88db135d7c0bb21d1afc3816040518080602001828103825283818151815260200191508051906020019080838360005b8381101561093c578082015181840152602081019050610921565b50505050905090810190601f1680156109695780820380516001836020036101000a031916815260200191505b509250505060405180910390a150565b600060016000836040518082805190602001908083835b6020831015156109b55780518252602082019150602081019050602083039250610990565b6001836020036101000a03801982511681845116808217855250505050505090500191505060405180910390206000191660001916815260200190815260200160002060009054906101000a900473ffffffffffffffffffffffffffffffffffffffff169050919050565b6000809054906101000a900473ffffffffffffffffffffffffffffffffffffffff1673ffffffffffffffffffffffffffffffffffffffff163373ffffffffffffffffffffffffffffffffffffffff16141515610a7b57600080fd5b60026000826040518082805190602001908083835b602083101515610ab55780518252602082019150602081019050602083039250610a90565b6001836020036101000a038019825116818451168082178552505050505050905001915050604051809103902060001916600019168152602001908152602001600020600090557fa4de87e6562b1cde60454f2969e0775b4f27f1db0047f106f63c00f4e19a596a816040518080602001828103825283818151815260200191508051906020019080838360005b83811015610b5e578082015181840152602081019050610b43565b50505050905090810190601f168015610b8b5780820380516001836020036101000a031916815260200191505b509250505060405180910390a150565b600060026000836040518082805190602001908083835b602083101515610bd75780518252602082019150602081019050602083039250610bb2565b6001836020036101000a038019825116818451168082178552505050505050905001915050604051809103902060001916600019168152602001908152602001600020549050919050565b60036020528060005260406000206000915090508054600181600116156101000203166002900480601f016020809104026020016040519081016040528092919081815260200182805460018160011615610100020316600290048015610cca5780601f10610c9f57610100808354040283529160200191610cca565b820191906000526020600020905b815481529060010190602001808311610cad57829003601f168201915b505050505081565b6000809054906101000a900473ffffffffffffffffffffffffffffffffffffffff1673ffffffffffffffffffffffffffffffffffffffff163373ffffffffffffffffffffffffffffffffffffffff16141515610d2d57600080fd5b8060026000846040518082805190602001908083835b602083101515610d685780518252602082019150602081019050602083039250610d43565b6001836020036101000a038019825116818451168082178552505050505050905001915050604051809103902060001916600019168152602001908152602001600020819055507f8c8f8f23d981717abe1d63307dea4737664c320ea49169cf2357c32d3eb0459882826040518080602001838152602001828103825284818151815260200191508051906020019080838360005b83811015610e18578082015181840152602081019050610dfd565b50505050905090810190601f168015610e455780820380516001836020036101000a031916815260200191505b50935050505060405180910390a15050565b336000806101000a81548173ffffffffffffffffffffffffffffffffffffffff021916908373ffffffffffffffffffffffffffffffffffffffff160217905550565b6000809054906101000a900473ffffffffffffffffffffffffffffffffffffffff1681565b6000809054906101000a900473ffffffffffffffffffffffffffffffffffffffff1673ffffffffffffffffffffffffffffffffffffffff163373ffffffffffffffffffffffffffffffffffffffff16141515610f1957600080fd5b60036000826040518082805190602001908083835b602083101515610f535780518252602082019150602081019050602083039250610f2e565b6001836020036101000a0380198251168184511680821785525050505050509050019150506040518091039020600019166000191681526020019081526020016000206000610fa291906116e5565b7fe6e691835b821c75b07b5cb7ae7d383e85d0041e89871368ed5f41a67134482a816040518080602001828103825283818151815260200191508051906020019080838360005b83811015611004578082015181840152602081019050610fe9565b50505050905090810190601f1680156110315780820380516001836020036101000a031916815260200191505b509250505060405180910390a150565b606060036000836040518082805190602001908083835b60208310151561107d5780518252602082019150602081019050602083039250611058565b6001836020036101000a0380198251168184511680821785525050505050509050019150506040518091039020600019166000191681526020019081526020016000208054600181600116156101000203166002900480601f0160208091040260200160405190810160405280929190818152602001828054600181600116156101000203166002900480156111545780601f1061112957610100808354040283529160200191611154565b820191906000526020600020905b81548152906001019060200180831161113757829003601f168201915b50505050509050919050565b6000809054906101000a900473ffffffffffffffffffffffffffffffffffffffff1673ffffffffffffffffffffffffffffffffffffffff163373ffffffffffffffffffffffffffffffffffffffff161415156111bb57600080fd5b8060016000846040518082805190602001908083835b6020831015156111f657805182526020820191506020810190506020830392506111d1565b6001836020036101000a03801982511681845116808217855250505050505090500191505060405180910390206000191660001916815260200190815260200160002060006101000a81548173ffffffffffffffffffffffffffffffffffffffff021916908373ffffffffffffffffffffffffffffffffffffffff1602179055507f2a1a55d7966a6bb6e4f08dcd6fd098b939891c9f7528df549e9770667a8a02ba828260405180806020018373ffffffffffffffffffffffffffffffffffffffff1673ffffffffffffffffffffffffffffffffffffffff168152602001828103825284818151815260200191508051906020019080838360005b8381101561130c5780820151818401526020810190506112f1565b50505050905090810190601f1680156113395780820380516001836020036101000a031916815260200191505b50935050505060405180910390a15050565b6000809054906101000a900473ffffffffffffffffffffffffffffffffffffffff1673ffffffffffffffffffffffffffffffffffffffff163373ffffffffffffffffffffffffffffffffffffffff161415156113a657600080fd5b8060036000846040518082805190602001908083835b6020831015156113e157805182526020820191506020810190506020830392506113bc565b6001836020036101000a038019825116818451168082178552505050505050905001915050604051809103902060001916600019168152602001908152602001600020908051906020019061143792919061172d565b507f410eddefb807d899bc8882a95951655391fe0a4d0c444cb6545a5761f3b4aaab8282604051808060200180602001838103835285818151815260200191508051906020019080838360005b8381101561149f578082015181840152602081019050611484565b50505050905090810190601f1680156114cc5780820380516001836020036101000a031916815260200191505b50838103825284818151815260200191508051906020019080838360005b838110156115055780820151818401526020810190506114ea565b50505050905090810190601f1680156115325780820380516001836020036101000a031916815260200191505b5094505050505060405180910390a15050565b60026020528060005260406000206000915090505481565b60016020528060005260406000206000915054906101000a900473ffffffffffffffffffffffffffffffffffffffff1681565b6000809054906101000a900473ffffffffffffffffffffffffffffffffffffffff1673ffffffffffffffffffffffffffffffffffffffff163373ffffffffffffffffffffffffffffffffffffffff161415156115eb57600080fd5b600073ffffffffffffffffffffffffffffffffffffffff168173ffffffffffffffffffffffffffffffffffffffff161415151561162757600080fd5b8073ffffffffffffffffffffffffffffffffffffffff166000809054906101000a900473ffffffffffffffffffffffffffffffffffffffff1673ffffffffffffffffffffffffffffffffffffffff167f8be0079c531659141344cd1fd0a4f28419497f9722a3daafe3b4186f6b6457e060405160405180910390a3806000806101000a81548173ffffffffffffffffffffffffffffffffffffffff021916908373ffffffffffffffffffffffffffffffffffffffff16021790555050565b50805460018160011615610100020316600290046000825580601f1061170b575061172a565b601f01602090049060005260206000209081019061172991906117ad565b5b50565b828054600181600116156101000203166002900490600052602060002090601f016020900481019282601f1061176e57805160ff191683800117855561179c565b8280016001018555821561179c579182015b8281111561179b578251825591602001919060010190611780565b5b5090506117a991906117ad565b5090565b6117cf91905b808211156117cb5760008160009055506001016117b3565b5090565b905600a165627a7a72305820dfb477ca0ee56056c0ddc96ba2e4ca81db55ba8b535bfe2b2c13a117e9bf52540029",
  "source": "pragma solidity ^0.4.18;\n\nimport \"zeppelin-solidity/contracts/ownership/Ownable.sol\";\n\n/**\n * @dev the Registry contains settings and addresses of contracts for the Partii Ecosystem\n *\n **/\ncontract ParatiiRegistry is Ownable  {\n\n  mapping (bytes32=>address) public contracts;\n  mapping (bytes32=>uint) public numbers;\n  mapping (bytes32=>string) public strings;\n\n  event LogRegisterAddress(string _name, address _address);\n  event LogUnregisterAddress(string _name);\n  event LogRegisterUint(string _name, uint _number);\n  event LogUnregisterUint(string _name);\n  event LogRegisterString(string _name, string _string);\n  event LogUnregisterString(string _name);\n\n  function Registry() public {\n      owner = msg.sender;\n  }\n\n  function registerAddress(string _name, address _address) public onlyOwner {\n    contracts[keccak256(_name)] = _address;\n    LogRegisterAddress(_name, _address);\n  }\n\n  function unregisterAddress(string _name) public onlyOwner {\n    delete contracts[keccak256(_name)];\n    LogUnregisterAddress(_name);\n  }\n\n  function getContract(string _name) public constant returns(address) {\n    return contracts[keccak256(_name)];\n  }\n\n  function registerUint(string _name, uint _number) public onlyOwner {\n    numbers[keccak256(_name)] = _number;\n    LogRegisterUint(_name, _number);\n  }\n\n  function unregisterUint(string _name) public onlyOwner {\n    delete numbers[keccak256(_name)];\n    LogUnregisterUint(_name);\n  }\n\n  function getUint(string _name) public constant returns(uint) {\n    return numbers[keccak256(_name)];\n  }\n\n  function registerString(string _name, string _string) public onlyOwner {\n    strings[keccak256(_name)] = _string;\n    LogRegisterString(_name, _string);\n  }\n\n  function unregisterString(string _name) public onlyOwner {\n    delete strings[keccak256(_name)];\n    LogUnregisterString(_name);\n  }\n\n  function getString(string _name) public constant returns(string) {\n    return strings[keccak256(_name)];\n  }\n}\n",
  "sourcePath": "/media/op/w3/paratii/paratii-contracts/contracts/paratii/ParatiiRegistry.sol",
  "compiler": {
    "name": "solc",
    "version": "0.4.23+commit.124ca40d.Emscripten.clang"
  },
  "schemaVersion": "2.0.0",
  "updatedAt": "2018-04-26T18:28:32.694Z"
}