{
  "contractName": "ParatiiAvatar",
  "abi": [
    {
      "constant": false,
      "inputs": [
        {
          "name": "_from",
          "type": "address"
        },
        {
          "name": "_to",
          "type": "address"
        },
        {
          "name": "_value",
          "type": "uint256"
        }
      ],
      "name": "transferFrom",
      "outputs": [
        {
          "name": "",
          "type": "bool"
        }
      ],
      "payable": false,
      "stateMutability": "nonpayable",
      "type": "function"
    },
    {
      "constant": true,
      "inputs": [
        {
          "name": "",
          "type": "uint256"
        }
      ],
      "name": "whitelist",
      "outputs": [
        {
          "name": "",
          "type": "address"
        }
      ],
      "payable": false,
      "stateMutability": "view",
      "type": "function"
    },
    {
      "constant": false,
      "inputs": [
        {
          "name": "_address",
          "type": "address"
        }
      ],
      "name": "removeFromWhitelist",
      "outputs": [],
      "payable": false,
      "stateMutability": "nonpayable",
      "type": "function"
    },
    {
      "constant": true,
      "inputs": [],
      "name": "owner",
      "outputs": [
        {
          "name": "",
          "type": "address"
        }
      ],
      "payable": false,
      "stateMutability": "view",
      "type": "function"
    },
    {
      "constant": true,
      "inputs": [],
      "name": "paratiiRegistry",
      "outputs": [
        {
          "name": "",
          "type": "address"
        }
      ],
      "payable": false,
      "stateMutability": "view",
      "type": "function"
    },
    {
      "constant": false,
      "inputs": [
        {
          "name": "_address",
          "type": "address"
        }
      ],
      "name": "addToWhitelist",
      "outputs": [],
      "payable": false,
      "stateMutability": "nonpayable",
      "type": "function"
    },
    {
      "constant": true,
      "inputs": [
        {
          "name": "_address",
          "type": "address"
        }
      ],
      "name": "isOnWhiteList",
      "outputs": [
        {
          "name": "",
          "type": "bool"
        }
      ],
      "payable": false,
      "stateMutability": "view",
      "type": "function"
    },
    {
      "constant": false,
      "inputs": [
        {
          "name": "newOwner",
          "type": "address"
        }
      ],
      "name": "transferOwnership",
      "outputs": [],
      "payable": false,
      "stateMutability": "nonpayable",
      "type": "function"
    },
    {
      "inputs": [
        {
          "name": "_paratiiRegistry",
          "type": "address"
        }
      ],
      "payable": false,
      "stateMutability": "nonpayable",
      "type": "constructor"
    },
    {
      "anonymous": false,
      "inputs": [
        {
          "indexed": true,
          "name": "previousOwner",
          "type": "address"
        },
        {
          "indexed": true,
          "name": "newOwner",
          "type": "address"
        }
      ],
      "name": "OwnershipTransferred",
      "type": "event"
    }
  ],
  "bytecode": "0x6060604052341561000f57600080fd5b604051602080610c7f83398101604052808051906020019091905050336000806101000a81548173ffffffffffffffffffffffffffffffffffffffff021916908373ffffffffffffffffffffffffffffffffffffffff16021790555080600160006101000a81548173ffffffffffffffffffffffffffffffffffffffff021916908373ffffffffffffffffffffffffffffffffffffffff160217905550336000806101000a81548173ffffffffffffffffffffffffffffffffffffffff021916908373ffffffffffffffffffffffffffffffffffffffff16021790555050610b83806100fc6000396000f30060606040526004361061008e576000357c0100000000000000000000000000000000000000000000000000000000900463ffffffff16806323b872dd146100935780637ebd1b301461010c5780638ab1d6811461016f5780638da5cb5b146101a85780639e20f789146101fd578063e43252d714610252578063ecb223ab1461028b578063f2fde38b146102dc575b600080fd5b341561009e57600080fd5b6100f2600480803573ffffffffffffffffffffffffffffffffffffffff1690602001909190803573ffffffffffffffffffffffffffffffffffffffff16906020019091908035906020019091905050610315565b604051808215151515815260200191505060405180910390f35b341561011757600080fd5b61012d6004808035906020019091905050610517565b604051808273ffffffffffffffffffffffffffffffffffffffff1673ffffffffffffffffffffffffffffffffffffffff16815260200191505060405180910390f35b341561017a57600080fd5b6101a6600480803573ffffffffffffffffffffffffffffffffffffffff16906020019091905050610556565b005b34156101b357600080fd5b6101bb610682565b604051808273ffffffffffffffffffffffffffffffffffffffff1673ffffffffffffffffffffffffffffffffffffffff16815260200191505060405180910390f35b341561020857600080fd5b6102106106a7565b604051808273ffffffffffffffffffffffffffffffffffffffff1673ffffffffffffffffffffffffffffffffffffffff16815260200191505060405180910390f35b341561025d57600080fd5b610289600480803573ffffffffffffffffffffffffffffffffffffffff169060200190919050506106cd565b005b341561029657600080fd5b6102c2600480803573ffffffffffffffffffffffffffffffffffffffff1690602001909190505061090d565b604051808215151515815260200191505060405180910390f35b34156102e757600080fd5b610313600480803573ffffffffffffffffffffffffffffffffffffffff169060200190919050506109b1565b005b6000806103213361090d565b151561032c57600080fd5b600160009054906101000a900473ffffffffffffffffffffffffffffffffffffffff1673ffffffffffffffffffffffffffffffffffffffff1663358177736000604051602001526040518163ffffffff167c010000000000000000000000000000000000000000000000000000000002815260040180806020018281038252600c8152602001807f50617261746969546f6b656e0000000000000000000000000000000000000000815250602001915050602060405180830381600087803b15156103f657600080fd5b6102c65a03f1151561040757600080fd5b5050506040518051905090508073ffffffffffffffffffffffffffffffffffffffff166323b872dd8686866000604051602001526040518463ffffffff167c0100000000000000000000000000000000000000000000000000000000028152600401808473ffffffffffffffffffffffffffffffffffffffff1673ffffffffffffffffffffffffffffffffffffffff1681526020018373ffffffffffffffffffffffffffffffffffffffff1673ffffffffffffffffffffffffffffffffffffffff1681526020018281526020019350505050602060405180830381600087803b15156104f257600080fd5b6102c65a03f1151561050357600080fd5b505050604051805190509150509392505050565b60028181548110151561052657fe5b90600052602060002090016000915054906101000a900473ffffffffffffffffffffffffffffffffffffffff1681565b60008060009054906101000a900473ffffffffffffffffffffffffffffffffffffffff1673ffffffffffffffffffffffffffffffffffffffff163373ffffffffffffffffffffffffffffffffffffffff161415156105b357600080fd5b600090505b60028054905081101561067e578173ffffffffffffffffffffffffffffffffffffffff166002828154811015156105eb57fe5b906000526020600020900160009054906101000a900473ffffffffffffffffffffffffffffffffffffffff1673ffffffffffffffffffffffffffffffffffffffff1614156106715760028181548110151561064257fe5b906000526020600020900160006101000a81549073ffffffffffffffffffffffffffffffffffffffff02191690555b80806001019150506105b8565b5050565b6000809054906101000a900473ffffffffffffffffffffffffffffffffffffffff1681565b600160009054906101000a900473ffffffffffffffffffffffffffffffffffffffff1681565b6000806000809054906101000a900473ffffffffffffffffffffffffffffffffffffffff1673ffffffffffffffffffffffffffffffffffffffff163373ffffffffffffffffffffffffffffffffffffffff1614151561072b57600080fd5b6002805490509150600090505b600280549050811015610838578273ffffffffffffffffffffffffffffffffffffffff1660028281548110151561076b57fe5b906000526020600020900160009054906101000a900473ffffffffffffffffffffffffffffffffffffffff1673ffffffffffffffffffffffffffffffffffffffff1614156107b857610908565b600073ffffffffffffffffffffffffffffffffffffffff166002828154811015156107df57fe5b906000526020600020900160009054906101000a900473ffffffffffffffffffffffffffffffffffffffff1673ffffffffffffffffffffffffffffffffffffffff16141561082b578091505b8080600101915050610738565b6002805490508214156108ad57600280548060010182816108599190610b06565b9160005260206000209001600085909190916101000a81548173ffffffffffffffffffffffffffffffffffffffff021916908373ffffffffffffffffffffffffffffffffffffffff16021790555050610907565b826002838154811015156108bd57fe5b906000526020600020900160006101000a81548173ffffffffffffffffffffffffffffffffffffffff021916908373ffffffffffffffffffffffffffffffffffffffff1602179055505b5b505050565b600080600090505b6002805490508110156109a6578273ffffffffffffffffffffffffffffffffffffffff1660028281548110151561094857fe5b906000526020600020900160009054906101000a900473ffffffffffffffffffffffffffffffffffffffff1673ffffffffffffffffffffffffffffffffffffffff16141561099957600191506109ab565b8080600101915050610915565b600091505b50919050565b6000809054906101000a900473ffffffffffffffffffffffffffffffffffffffff1673ffffffffffffffffffffffffffffffffffffffff163373ffffffffffffffffffffffffffffffffffffffff16141515610a0c57600080fd5b600073ffffffffffffffffffffffffffffffffffffffff168173ffffffffffffffffffffffffffffffffffffffff1614151515610a4857600080fd5b8073ffffffffffffffffffffffffffffffffffffffff166000809054906101000a900473ffffffffffffffffffffffffffffffffffffffff1673ffffffffffffffffffffffffffffffffffffffff167f8be0079c531659141344cd1fd0a4f28419497f9722a3daafe3b4186f6b6457e060405160405180910390a3806000806101000a81548173ffffffffffffffffffffffffffffffffffffffff021916908373ffffffffffffffffffffffffffffffffffffffff16021790555050565b815481835581811511610b2d57818360005260206000209182019101610b2c9190610b32565b5b505050565b610b5491905b80821115610b50576000816000905550600101610b38565b5090565b905600a165627a7a72305820381fe187b0c0813204badfc2c64d3065c243b6a94e01e934222002c470bfe6720029",
  "source": "pragma solidity ^0.4.18;\nimport './ParatiiRegistry.sol';\nimport './ParatiiToken.sol';\nimport \"zeppelin-solidity/contracts/ownership/Ownable.sol\";\n/*\n * @dev A contract that holds PTI for the paratii DAO\n *\n */\n\ncontract ParatiiAvatar is Ownable {\n    ParatiiRegistry public paratiiRegistry;\n\n    address[] public whitelist;\n\n    modifier onlyWhitelist() {\n        require(isOnWhiteList(msg.sender));\n        _;\n    }\n\n    function ParatiiAvatar(ParatiiRegistry _paratiiRegistry) {\n        paratiiRegistry = _paratiiRegistry;\n        owner = msg.sender;\n    }\n\n    function addToWhitelist(address _address) onlyOwner {\n      // check if the address is already known, and if there is a free space in the whitelist\n      uint freeSpace = whitelist.length;\n      for (uint i=0; i < whitelist.length; i++) {\n          if (whitelist[i] == _address) {\n            return;\n          }\n          if (whitelist[i] == address(0)) {\n            freeSpace = i;\n          }\n      }\n      if (freeSpace == whitelist.length){\n          whitelist.push(_address);\n      } else {\n          whitelist[freeSpace] = _address;\n      }\n    }\n\n    function removeFromWhitelist(address _address) onlyOwner {\n      for (uint i=0; i < whitelist.length; i++) {\n          if (whitelist[i] == _address) {\n              delete whitelist[i];\n          }\n      }\n    }\n\n    function isOnWhiteList(address _address) public constant returns(bool) {\n      for (uint i=0; i < whitelist.length; i++) {\n          if (whitelist[i] == _address) {\n              return true;\n          }\n      }\n      return false;\n    }\n\n    function transferFrom(address _from, address _to, uint256 _value) onlyWhitelist returns (bool)   {\n        ParatiiToken token = ParatiiToken(paratiiRegistry.getContract('ParatiiToken'));\n        return token.transferFrom(_from, _to, _value);\n    }\n}\n",
  "sourcePath": "/media/data/projects/paratii/paratii-contracts/contracts/paratii/ParatiiAvatar.sol",
  "compiler": {
    "name": "solc",
    "version": "0.4.18+commit.9cf6e910.Emscripten.clang"
  },
  "schemaVersion": "1.0.1",
  "updatedAt": "2017-12-19T08:42:22.953Z"
}