{
  "contractName": "PTIDistributor",
  "abi": [
    {
      "constant": true,
      "inputs": [],
      "name": "registry",
      "outputs": [
        {
          "name": "",
          "type": "address"
        }
      ],
      "payable": false,
      "stateMutability": "view",
      "type": "function"
    },
    {
      "constant": true,
      "inputs": [],
      "name": "owner",
      "outputs": [
        {
          "name": "",
          "type": "address"
        }
      ],
      "payable": false,
      "stateMutability": "view",
      "type": "function"
    },
    {
      "constant": false,
      "inputs": [
        {
          "name": "newOwner",
          "type": "address"
        }
      ],
      "name": "transferOwnership",
      "outputs": [],
      "payable": false,
      "stateMutability": "nonpayable",
      "type": "function"
    },
    {
      "constant": true,
      "inputs": [
        {
          "name": "",
          "type": "bytes32"
        }
      ],
      "name": "isUsed",
      "outputs": [
        {
          "name": "",
          "type": "bool"
        }
      ],
      "payable": false,
      "stateMutability": "view",
      "type": "function"
    },
    {
      "inputs": [
        {
          "name": "_registry",
          "type": "address"
        }
      ],
      "payable": false,
      "stateMutability": "nonpayable",
      "type": "constructor"
    },
    {
      "anonymous": false,
      "inputs": [
        {
          "indexed": false,
          "name": "_toAddress",
          "type": "address"
        },
        {
          "indexed": false,
          "name": "_amount",
          "type": "uint256"
        },
        {
          "indexed": false,
          "name": "_reason",
          "type": "string"
        }
      ],
      "name": "LogDistribute",
      "type": "event"
    },
    {
      "anonymous": false,
      "inputs": [
        {
          "indexed": false,
          "name": "_hashing",
          "type": "bytes32"
        }
      ],
      "name": "LogDebug",
      "type": "event"
    },
    {
      "anonymous": false,
      "inputs": [
        {
          "indexed": false,
          "name": "_owner",
          "type": "address"
        }
      ],
      "name": "LogDebugOwner",
      "type": "event"
    },
    {
      "anonymous": false,
      "inputs": [
        {
          "indexed": true,
          "name": "previousOwner",
          "type": "address"
        },
        {
          "indexed": true,
          "name": "newOwner",
          "type": "address"
        }
      ],
      "name": "OwnershipTransferred",
      "type": "event"
    },
    {
      "constant": false,
      "inputs": [
        {
          "name": "_toAddress",
          "type": "address"
        },
        {
          "name": "_amount",
          "type": "uint256"
        },
        {
          "name": "_salt",
          "type": "bytes32"
        },
        {
          "name": "_reason",
          "type": "string"
        },
        {
          "name": "_v",
          "type": "uint8"
        },
        {
          "name": "_r",
          "type": "bytes32"
        },
        {
          "name": "_s",
          "type": "bytes32"
        }
      ],
      "name": "distribute",
      "outputs": [],
      "payable": false,
      "stateMutability": "nonpayable",
      "type": "function"
    },
    {
      "constant": false,
      "inputs": [
        {
          "name": "_amount",
          "type": "uint256"
        },
        {
          "name": "_salt",
          "type": "bytes32"
        },
        {
          "name": "_reason",
          "type": "string"
        },
        {
          "name": "_v",
          "type": "uint8"
        },
        {
          "name": "_r",
          "type": "bytes32"
        },
        {
          "name": "_s",
          "type": "bytes32"
        }
      ],
      "name": "checkOwnerPacked",
      "outputs": [],
      "payable": false,
      "stateMutability": "nonpayable",
      "type": "function"
    },
    {
      "constant": true,
      "inputs": [
        {
          "name": "_hash",
          "type": "bytes32"
        },
        {
          "name": "_v",
          "type": "uint8"
        },
        {
          "name": "_r",
          "type": "bytes32"
        },
        {
          "name": "_s",
          "type": "bytes32"
        }
      ],
      "name": "checkOwner",
      "outputs": [
        {
          "name": "",
          "type": "address"
        }
      ],
      "payable": false,
      "stateMutability": "view",
      "type": "function"
    },
    {
      "constant": false,
      "inputs": [
        {
          "name": "_amount",
          "type": "uint256"
        },
        {
          "name": "_salt",
          "type": "bytes32"
        },
        {
          "name": "_reason",
          "type": "string"
        }
      ],
      "name": "checkHashing",
      "outputs": [],
      "payable": false,
      "stateMutability": "nonpayable",
      "type": "function"
    }
  ],
  "bytecode": "0x6060604052341561000f57600080fd5b60405160208061105783398101604052808051906020019091905050336000806101000a81548173ffffffffffffffffffffffffffffffffffffffff021916908373ffffffffffffffffffffffffffffffffffffffff160217905550336000806101000a81548173ffffffffffffffffffffffffffffffffffffffff021916908373ffffffffffffffffffffffffffffffffffffffff16021790555080600160006101000a81548173ffffffffffffffffffffffffffffffffffffffff021916908373ffffffffffffffffffffffffffffffffffffffff16021790555050610f5b806100fc6000396000f30060606040526004361061008e576000357c0100000000000000000000000000000000000000000000000000000000900463ffffffff1680635c7c6f931461009357806365995335146101065780637b1039991461019f5780638da5cb5b146101f4578063a88a8e3214610249578063d882044314610301578063f2fde38b1461038e578063fe255a18146103c7575b600080fd5b341561009e57600080fd5b61010460048080359060200190919080356000191690602001909190803590602001908201803590602001908080601f01602080910402602001604051908101604052809392919081815260200183838082843782019150505050505091905050610406565b005b341561011157600080fd5b61019d60048080359060200190919080356000191690602001909190803590602001908201803590602001908080601f0160208091040260200160405190810160405280939291908181526020018383808284378201915050505050509190803560ff1690602001909190803560001916906020019091908035600019169060200190919050506104ca565b005b34156101aa57600080fd5b6101b26106f4565b604051808273ffffffffffffffffffffffffffffffffffffffff1673ffffffffffffffffffffffffffffffffffffffff16815260200191505060405180910390f35b34156101ff57600080fd5b61020761071a565b604051808273ffffffffffffffffffffffffffffffffffffffff1673ffffffffffffffffffffffffffffffffffffffff16815260200191505060405180910390f35b341561025457600080fd5b6102ff600480803573ffffffffffffffffffffffffffffffffffffffff169060200190919080359060200190919080356000191690602001909190803590602001908201803590602001908080601f0160208091040260200160405190810160405280939291908181526020018383808284378201915050505050509190803560ff16906020019091908035600019169060200190919080356000191690602001909190505061073f565b005b341561030c57600080fd5b61034c60048080356000191690602001909190803560ff169060200190919080356000191690602001909190803560001916906020019091905050610c5a565b604051808273ffffffffffffffffffffffffffffffffffffffff1673ffffffffffffffffffffffffffffffffffffffff16815260200191505060405180910390f35b341561039957600080fd5b6103c5600480803573ffffffffffffffffffffffffffffffffffffffff16906020019091905050610da6565b005b34156103d257600080fd5b6103ec600480803560001916906020019091905050610efb565b604051808215151515815260200191505060405180910390f35b600083838360405180848152602001836000191660001916815260200182805190602001908083835b602083101515610454578051825260208201915060208101905060208303925061042f565b6001836020036101000a0380198251168184511680821785525050505050509050019350505050604051809103902090507f05e46912c9be87d8a6830598db8544b61884d9d22f3921597a9a6e8a340914b38160405180826000191660001916815260200191505060405180910390a150505050565b60006104d4610f1b565b600088888860405180848152602001836000191660001916815260200182805190602001908083835b60208310151561052257805182526020820191506020810190506020830392506104fd565b6001836020036101000a0380198251168184511680821785525050505050509050019350505050604051809103902092506040805190810160405280601c81526020017f19457468657265756d205369676e6564204d6573736167653a0a333200000000815250915081836040518083805190602001908083835b6020831015156105c2578051825260208201915060208101905060208303925061059d565b6001836020036101000a038019825116818451168082178552505050505050905001826000191660001916815260200192505050604051809103902090507ff9af0632ddaf7a690a6486635894cfe799c6b72244b459660893f9f7b95771e8600182888888604051600081526020016040526000604051602001526040518085600019166000191681526020018460ff1660ff16815260200183600019166000191681526020018260001916600019168152602001945050505050602060405160208103908084039060008661646e5a03f1151561069f57600080fd5b505060206040510351604051808273ffffffffffffffffffffffffffffffffffffffff1673ffffffffffffffffffffffffffffffffffffffff16815260200191505060405180910390a1505050505050505050565b600160009054906101000a900473ffffffffffffffffffffffffffffffffffffffff1681565b6000809054906101000a900473ffffffffffffffffffffffffffffffffffffffff1681565b6000610749610f1b565b60008089898960405180848152602001836000191660001916815260200182805190602001908083835b6020831015156107985780518252602082019150602081019050602083039250610773565b6001836020036101000a0380198251168184511680821785525050505050509050019350505050604051809103902093506040805190810160405280601c81526020017f19457468657265756d205369676e6564204d6573736167653a0a333200000000815250925082846040518083805190602001908083835b6020831015156108385780518252602082019150602081019050602083039250610813565b6001836020036101000a03801982511681845116808217855250505050505090500182600019166000191681526020019250505060405180910390209150600260008a6000191660001916815260200190815260200160002060009054906101000a900460ff1615801561097e57506000809054906101000a900473ffffffffffffffffffffffffffffffffffffffff1673ffffffffffffffffffffffffffffffffffffffff16600183898989604051600081526020016040526000604051602001526040518085600019166000191681526020018460ff1660ff16815260200183600019166000191681526020018260001916600019168152602001945050505050602060405160208103908084039060008661646e5a03f1151561095d57600080fd5b50506020604051035173ffffffffffffffffffffffffffffffffffffffff16145b151561098957600080fd5b6001600260008b6000191660001916815260200190815260200160002060006101000a81548160ff021916908315150217905550600160009054906101000a900473ffffffffffffffffffffffffffffffffffffffff1673ffffffffffffffffffffffffffffffffffffffff1663358177736000604051602001526040518163ffffffff167c010000000000000000000000000000000000000000000000000000000002815260040180806020018281038252600c8152602001807f50617261746969546f6b656e0000000000000000000000000000000000000000815250602001915050602060405180830381600087803b1515610a8757600080fd5b6102c65a03f11515610a9857600080fd5b5050506040518051905090508073ffffffffffffffffffffffffffffffffffffffff1663a9059cbb8c8c6000604051602001526040518363ffffffff167c0100000000000000000000000000000000000000000000000000000000028152600401808373ffffffffffffffffffffffffffffffffffffffff1673ffffffffffffffffffffffffffffffffffffffff16815260200182815260200192505050602060405180830381600087803b1515610b4f57600080fd5b6102c65a03f11515610b6057600080fd5b505050604051805190501515610b7557600080fd5b7f47c36377eacf5c9bf0b0bffe0f11388976bba76b10c4a87c59a7d6847497205b8b8b8a604051808473ffffffffffffffffffffffffffffffffffffffff1673ffffffffffffffffffffffffffffffffffffffff16815260200183815260200180602001828103825283818151815260200191508051906020019080838360005b83811015610c11578082015181840152602081019050610bf6565b50505050905090810190601f168015610c3e5780820380516001836020036101000a031916815260200191505b5094505050505060405180910390a15050505050505050505050565b6000610c64610f1b565b60006040805190810160405280601c81526020017f19457468657265756d205369676e6564204d6573736167653a0a333200000000815250915081876040518083805190602001908083835b602083101515610cd55780518252602082019150602081019050602083039250610cb0565b6001836020036101000a03801982511681845116808217855250505050505090500182600019166000191681526020019250505060405180910390209050600181878787604051600081526020016040526000604051602001526040518085600019166000191681526020018460ff1660ff16815260200183600019166000191681526020018260001916600019168152602001945050505050602060405160208103908084039060008661646e5a03f11515610d9157600080fd5b50506020604051035192505050949350505050565b6000809054906101000a900473ffffffffffffffffffffffffffffffffffffffff1673ffffffffffffffffffffffffffffffffffffffff163373ffffffffffffffffffffffffffffffffffffffff16141515610e0157600080fd5b600073ffffffffffffffffffffffffffffffffffffffff168173ffffffffffffffffffffffffffffffffffffffff1614151515610e3d57600080fd5b8073ffffffffffffffffffffffffffffffffffffffff166000809054906101000a900473ffffffffffffffffffffffffffffffffffffffff1673ffffffffffffffffffffffffffffffffffffffff167f8be0079c531659141344cd1fd0a4f28419497f9722a3daafe3b4186f6b6457e060405160405180910390a3806000806101000a81548173ffffffffffffffffffffffffffffffffffffffff021916908373ffffffffffffffffffffffffffffffffffffffff16021790555050565b60026020528060005260406000206000915054906101000a900460ff1681565b6020604051908101604052806000815250905600a165627a7a7230582044f025922bd8169753d19b6757826b78491f7bb68593715afc67b27cb4f830000029",
  "source": "pragma solidity ^0.4.18;\n\nimport \"zeppelin-solidity/contracts/ownership/Ownable.sol\";\nimport './ParatiiToken.sol';\nimport './Registry.sol';\n\ncontract PTIDistributor is Ownable {\n\n    Registry public registry;\n\n    event LogDistribute(address _toAddress, uint _amount, string _reason);\n    event LogDebug(bytes32 _hashing);\n    event LogDebugOwner(address _owner);\n\n    mapping(bytes32 => bool) public isUsed;\n\n    function PTIDistributor(Registry _registry) public {\n        owner = msg.sender;\n        registry = _registry;\n    }\n\n\n    function distribute(address _toAddress, uint256 _amount, bytes32 _salt, string _reason, uint8 _v, bytes32 _r, bytes32 _s) {\n      bytes32 message = keccak256(_amount, _salt, _reason);\n      bytes memory prefix = \"\\x19Ethereum Signed Message:\\n32\";\n      bytes32 prefixedHash = keccak256(prefix, message);\n      require(!isUsed[_salt] && ecrecover(prefixedHash, _v, _r, _s) == owner);\n      isUsed[_salt] = true;\n      ParatiiToken token = ParatiiToken(registry.getContract('ParatiiToken'));\n      require(token.transfer(_toAddress, _amount));\n      LogDistribute(_toAddress, _amount, _reason);\n    }\n\n    function checkOwnerPacked(uint256 _amount, bytes32 _salt, string _reason, uint8 _v, bytes32 _r, bytes32 _s) {\n      bytes32 message = keccak256(_amount, _salt, _reason);\n      bytes memory prefix = \"\\x19Ethereum Signed Message:\\n32\";\n      bytes32 prefixedHash = keccak256(prefix, message);\n      LogDebugOwner( ecrecover(prefixedHash, _v, _r, _s) );\n    }\n    function checkOwner(bytes32 _hash, uint8 _v, bytes32 _r, bytes32 _s) constant returns (address) {\n      bytes memory prefix = \"\\x19Ethereum Signed Message:\\n32\";\n      bytes32 prefixedHash = keccak256(prefix, _hash);\n      return ecrecover(prefixedHash, _v, _r, _s);\n    }\n\n    function checkHashing(uint256 _amount, bytes32 _salt, string _reason) {\n      bytes32 hashing = keccak256(_amount, _salt, _reason);\n      LogDebug( hashing );\n    }\n}\n",
  "sourcePath": "/home/enrico/paratii/paratii-contracts/contracts/paratii/PTIDistributor.sol",
  "compiler": {
    "name": "solc",
    "version": "0.4.19+commit.c4cbbb05.Emscripten.clang"
  },
  "schemaVersion": "1.0.1",
  "updatedAt": "2018-05-17T14:06:20.128Z"
}