{
  "contractName": "Registry",
  "abi": [
    {
      "constant": true,
      "inputs": [
        {
          "name": "",
          "type": "bytes32"
        }
      ],
      "name": "strings",
      "outputs": [
        {
          "name": "",
          "type": "string"
        }
      ],
      "payable": false,
      "stateMutability": "view",
      "type": "function"
    },
    {
      "constant": true,
      "inputs": [],
      "name": "owner",
      "outputs": [
        {
          "name": "",
          "type": "address"
        }
      ],
      "payable": false,
      "stateMutability": "view",
      "type": "function"
    },
    {
      "constant": true,
      "inputs": [
        {
          "name": "",
          "type": "bytes32"
        }
      ],
      "name": "numbers",
      "outputs": [
        {
          "name": "",
          "type": "uint256"
        }
      ],
      "payable": false,
      "stateMutability": "view",
      "type": "function"
    },
    {
      "constant": true,
      "inputs": [
        {
          "name": "",
          "type": "bytes32"
        }
      ],
      "name": "contracts",
      "outputs": [
        {
          "name": "",
          "type": "address"
        }
      ],
      "payable": false,
      "stateMutability": "view",
      "type": "function"
    },
    {
      "constant": false,
      "inputs": [
        {
          "name": "newOwner",
          "type": "address"
        }
      ],
      "name": "transferOwnership",
      "outputs": [],
      "payable": false,
      "stateMutability": "nonpayable",
      "type": "function"
    },
    {
      "inputs": [],
      "payable": false,
      "stateMutability": "nonpayable",
      "type": "constructor"
    },
    {
      "anonymous": false,
      "inputs": [
        {
          "indexed": false,
          "name": "_name",
          "type": "string"
        },
        {
          "indexed": false,
          "name": "_address",
          "type": "address"
        }
      ],
      "name": "LogRegisterAddress",
      "type": "event"
    },
    {
      "anonymous": false,
      "inputs": [
        {
          "indexed": false,
          "name": "_name",
          "type": "string"
        }
      ],
      "name": "LogUnregisterAddress",
      "type": "event"
    },
    {
      "anonymous": false,
      "inputs": [
        {
          "indexed": false,
          "name": "_name",
          "type": "string"
        },
        {
          "indexed": false,
          "name": "_number",
          "type": "uint256"
        }
      ],
      "name": "LogRegisterUint",
      "type": "event"
    },
    {
      "anonymous": false,
      "inputs": [
        {
          "indexed": false,
          "name": "_name",
          "type": "string"
        }
      ],
      "name": "LogUnregisterUint",
      "type": "event"
    },
    {
      "anonymous": false,
      "inputs": [
        {
          "indexed": false,
          "name": "_name",
          "type": "string"
        },
        {
          "indexed": false,
          "name": "_string",
          "type": "string"
        }
      ],
      "name": "LogRegisterString",
      "type": "event"
    },
    {
      "anonymous": false,
      "inputs": [
        {
          "indexed": false,
          "name": "_name",
          "type": "string"
        }
      ],
      "name": "LogUnregisterString",
      "type": "event"
    },
    {
      "anonymous": false,
      "inputs": [
        {
          "indexed": true,
          "name": "previousOwner",
          "type": "address"
        },
        {
          "indexed": true,
          "name": "newOwner",
          "type": "address"
        }
      ],
      "name": "OwnershipTransferred",
      "type": "event"
    },
    {
      "constant": false,
      "inputs": [
        {
          "name": "_name",
          "type": "string"
        },
        {
          "name": "_address",
          "type": "address"
        }
      ],
      "name": "registerAddress",
      "outputs": [],
      "payable": false,
      "stateMutability": "nonpayable",
      "type": "function"
    },
    {
      "constant": false,
      "inputs": [
        {
          "name": "_name",
          "type": "string"
        }
      ],
      "name": "unregisterAddress",
      "outputs": [],
      "payable": false,
      "stateMutability": "nonpayable",
      "type": "function"
    },
    {
      "constant": true,
      "inputs": [
        {
          "name": "_name",
          "type": "string"
        }
      ],
      "name": "getContract",
      "outputs": [
        {
          "name": "",
          "type": "address"
        }
      ],
      "payable": false,
      "stateMutability": "view",
      "type": "function"
    },
    {
      "constant": false,
      "inputs": [
        {
          "name": "_name",
          "type": "string"
        },
        {
          "name": "_number",
          "type": "uint256"
        }
      ],
      "name": "registerUint",
      "outputs": [],
      "payable": false,
      "stateMutability": "nonpayable",
      "type": "function"
    },
    {
      "constant": false,
      "inputs": [
        {
          "name": "_name",
          "type": "string"
        }
      ],
      "name": "unregisterUint",
      "outputs": [],
      "payable": false,
      "stateMutability": "nonpayable",
      "type": "function"
    },
    {
      "constant": true,
      "inputs": [
        {
          "name": "_name",
          "type": "string"
        }
      ],
      "name": "getUint",
      "outputs": [
        {
          "name": "",
          "type": "uint256"
        }
      ],
      "payable": false,
      "stateMutability": "view",
      "type": "function"
    },
    {
      "constant": false,
      "inputs": [
        {
          "name": "_name",
          "type": "string"
        },
        {
          "name": "_string",
          "type": "string"
        }
      ],
      "name": "registerString",
      "outputs": [],
      "payable": false,
      "stateMutability": "nonpayable",
      "type": "function"
    },
    {
      "constant": false,
      "inputs": [
        {
          "name": "_name",
          "type": "string"
        }
      ],
      "name": "unregisterString",
      "outputs": [],
      "payable": false,
      "stateMutability": "nonpayable",
      "type": "function"
    },
    {
      "constant": true,
      "inputs": [
        {
          "name": "_name",
          "type": "string"
        }
      ],
      "name": "getString",
      "outputs": [
        {
          "name": "",
          "type": "string"
        }
      ],
      "payable": false,
      "stateMutability": "view",
      "type": "function"
    }
  ],
  "bytecode": "0x608060405234801561001057600080fd5b50336000806101000a81548173ffffffffffffffffffffffffffffffffffffffff021916908373ffffffffffffffffffffffffffffffffffffffff160217905550336000806101000a81548173ffffffffffffffffffffffffffffffffffffffff021916908373ffffffffffffffffffffffffffffffffffffffff16021790555061179a806100a06000396000f3006080604052600436106100d0576000357c0100000000000000000000000000000000000000000000000000000000900463ffffffff16806326404c37146100d5578063358177731461013e5780633708a96b146101e7578063498bff00146102505780636059936e146102cd57806375b45351146103775780638da5cb5b146103ea57806397d7e807146104415780639c981fcb146104aa578063b13f5f191461058c578063bd93528714610615578063c724982b146106c4578063ec56a37314610709578063f2fde38b1461077a575b600080fd5b3480156100e157600080fd5b5061013c600480360381019080803590602001908201803590602001908080601f01602080910402602001604051908101604052809392919081815260200183838082843782019150505050505091929192905050506107bd565b005b34801561014a57600080fd5b506101a5600480360381019080803590602001908201803590602001908080601f0160208091040260200160405190810160405280939291908181526020018383808284378201915050505050509192919290505050610957565b604051808273ffffffffffffffffffffffffffffffffffffffff1673ffffffffffffffffffffffffffffffffffffffff16815260200191505060405180910390f35b3480156101f357600080fd5b5061024e600480360381019080803590602001908201803590602001908080601f01602080910402602001604051908101604052809392919081815260200183838082843782019150505050505091929192905050506109fe565b005b34801561025c57600080fd5b506102b7600480360381019080803590602001908201803590602001908080601f0160208091040260200160405190810160405280939291908181526020018383808284378201915050505050509192919290505050610b79565b6040518082815260200191505060405180910390f35b3480156102d957600080fd5b506102fc6004803603810190808035600019169060200190929190505050610c00565b6040518080602001828103825283818151815260200191508051906020019080838360005b8381101561033c578082015181840152602081019050610321565b50505050905090810190601f1680156103695780820380516001836020036101000a031916815260200191505b509250505060405180910390f35b34801561038357600080fd5b506103e8600480360381019080803590602001908201803590602001908080601f016020809104026020016040519081016040528093929190818152602001838380828437820191505050505050919291929080359060200190929190505050610cb0565b005b3480156103f657600080fd5b506103ff610e35565b604051808273ffffffffffffffffffffffffffffffffffffffff1673ffffffffffffffffffffffffffffffffffffffff16815260200191505060405180910390f35b34801561044d57600080fd5b506104a8600480360381019080803590602001908201803590602001908080601f0160208091040260200160405190810160405280939291908181526020018383808284378201915050505050509192919290505050610e5a565b005b3480156104b657600080fd5b50610511600480360381019080803590602001908201803590602001908080601f0160208091040260200160405190810160405280939291908181526020018383808284378201915050505050509192919290505050610fdd565b6040518080602001828103825283818151815260200191508051906020019080838360005b83811015610551578082015181840152602081019050610536565b50505050905090810190601f16801561057e5780820380516001836020036101000a031916815260200191505b509250505060405180910390f35b34801561059857600080fd5b50610613600480360381019080803590602001908201803590602001908080601f0160208091040260200160405190810160405280939291908181526020018383808284378201915050505050509192919290803573ffffffffffffffffffffffffffffffffffffffff1690602001909291905050506110fc565b005b34801561062157600080fd5b506106c2600480360381019080803590602001908201803590602001908080601f0160208091040260200160405190810160405280939291908181526020018383808284378201915050505050509192919290803590602001908201803590602001908080601f01602080910402602001604051908101604052809392919081815260200183838082843782019150505050505091929192905050506112e7565b005b3480156106d057600080fd5b506106f360048036038101908080356000191690602001909291905050506114e1565b6040518082815260200191505060405180910390f35b34801561071557600080fd5b5061073860048036038101908080356000191690602001909291905050506114f9565b604051808273ffffffffffffffffffffffffffffffffffffffff1673ffffffffffffffffffffffffffffffffffffffff16815260200191505060405180910390f35b34801561078657600080fd5b506107bb600480360381019080803573ffffffffffffffffffffffffffffffffffffffff16906020019092919050505061152c565b005b6000809054906101000a900473ffffffffffffffffffffffffffffffffffffffff1673ffffffffffffffffffffffffffffffffffffffff163373ffffffffffffffffffffffffffffffffffffffff1614151561081857600080fd5b60016000826040518082805190602001908083835b602083101515610852578051825260208201915060208101905060208303925061082d565b6001836020036101000a03801982511681845116808217855250505050505090500191505060405180910390206000191660001916815260200190815260200160002060006101000a81549073ffffffffffffffffffffffffffffffffffffffff02191690557fa76e7b6e2c26769c731f99243d786a5fa6f8d70201a88db135d7c0bb21d1afc3816040518080602001828103825283818151815260200191508051906020019080838360005b8381101561091a5780820151818401526020810190506108ff565b50505050905090810190601f1680156109475780820380516001836020036101000a031916815260200191505b509250505060405180910390a150565b600060016000836040518082805190602001908083835b602083101515610993578051825260208201915060208101905060208303925061096e565b6001836020036101000a03801982511681845116808217855250505050505090500191505060405180910390206000191660001916815260200190815260200160002060009054906101000a900473ffffffffffffffffffffffffffffffffffffffff169050919050565b6000809054906101000a900473ffffffffffffffffffffffffffffffffffffffff1673ffffffffffffffffffffffffffffffffffffffff163373ffffffffffffffffffffffffffffffffffffffff16141515610a5957600080fd5b60026000826040518082805190602001908083835b602083101515610a935780518252602082019150602081019050602083039250610a6e565b6001836020036101000a038019825116818451168082178552505050505050905001915050604051809103902060001916600019168152602001908152602001600020600090557fa4de87e6562b1cde60454f2969e0775b4f27f1db0047f106f63c00f4e19a596a816040518080602001828103825283818151815260200191508051906020019080838360005b83811015610b3c578082015181840152602081019050610b21565b50505050905090810190601f168015610b695780820380516001836020036101000a031916815260200191505b509250505060405180910390a150565b600060026000836040518082805190602001908083835b602083101515610bb55780518252602082019150602081019050602083039250610b90565b6001836020036101000a038019825116818451168082178552505050505050905001915050604051809103902060001916600019168152602001908152602001600020549050919050565b60036020528060005260406000206000915090508054600181600116156101000203166002900480601f016020809104026020016040519081016040528092919081815260200182805460018160011615610100020316600290048015610ca85780601f10610c7d57610100808354040283529160200191610ca8565b820191906000526020600020905b815481529060010190602001808311610c8b57829003601f168201915b505050505081565b6000809054906101000a900473ffffffffffffffffffffffffffffffffffffffff1673ffffffffffffffffffffffffffffffffffffffff163373ffffffffffffffffffffffffffffffffffffffff16141515610d0b57600080fd5b8060026000846040518082805190602001908083835b602083101515610d465780518252602082019150602081019050602083039250610d21565b6001836020036101000a038019825116818451168082178552505050505050905001915050604051809103902060001916600019168152602001908152602001600020819055507f8c8f8f23d981717abe1d63307dea4737664c320ea49169cf2357c32d3eb0459882826040518080602001838152602001828103825284818151815260200191508051906020019080838360005b83811015610df6578082015181840152602081019050610ddb565b50505050905090810190601f168015610e235780820380516001836020036101000a031916815260200191505b50935050505060405180910390a15050565b6000809054906101000a900473ffffffffffffffffffffffffffffffffffffffff1681565b6000809054906101000a900473ffffffffffffffffffffffffffffffffffffffff1673ffffffffffffffffffffffffffffffffffffffff163373ffffffffffffffffffffffffffffffffffffffff16141515610eb557600080fd5b60036000826040518082805190602001908083835b602083101515610eef5780518252602082019150602081019050602083039250610eca565b6001836020036101000a0380198251168184511680821785525050505050509050019150506040518091039020600019166000191681526020019081526020016000206000610f3e9190611681565b7fe6e691835b821c75b07b5cb7ae7d383e85d0041e89871368ed5f41a67134482a816040518080602001828103825283818151815260200191508051906020019080838360005b83811015610fa0578082015181840152602081019050610f85565b50505050905090810190601f168015610fcd5780820380516001836020036101000a031916815260200191505b509250505060405180910390a150565b606060036000836040518082805190602001908083835b6020831015156110195780518252602082019150602081019050602083039250610ff4565b6001836020036101000a0380198251168184511680821785525050505050509050019150506040518091039020600019166000191681526020019081526020016000208054600181600116156101000203166002900480601f0160208091040260200160405190810160405280929190818152602001828054600181600116156101000203166002900480156110f05780601f106110c5576101008083540402835291602001916110f0565b820191906000526020600020905b8154815290600101906020018083116110d357829003601f168201915b50505050509050919050565b6000809054906101000a900473ffffffffffffffffffffffffffffffffffffffff1673ffffffffffffffffffffffffffffffffffffffff163373ffffffffffffffffffffffffffffffffffffffff1614151561115757600080fd5b8060016000846040518082805190602001908083835b602083101515611192578051825260208201915060208101905060208303925061116d565b6001836020036101000a03801982511681845116808217855250505050505090500191505060405180910390206000191660001916815260200190815260200160002060006101000a81548173ffffffffffffffffffffffffffffffffffffffff021916908373ffffffffffffffffffffffffffffffffffffffff1602179055507f2a1a55d7966a6bb6e4f08dcd6fd098b939891c9f7528df549e9770667a8a02ba828260405180806020018373ffffffffffffffffffffffffffffffffffffffff1673ffffffffffffffffffffffffffffffffffffffff168152602001828103825284818151815260200191508051906020019080838360005b838110156112a857808201518184015260208101905061128d565b50505050905090810190601f1680156112d55780820380516001836020036101000a031916815260200191505b50935050505060405180910390a15050565b6000809054906101000a900473ffffffffffffffffffffffffffffffffffffffff1673ffffffffffffffffffffffffffffffffffffffff163373ffffffffffffffffffffffffffffffffffffffff1614151561134257600080fd5b8060036000846040518082805190602001908083835b60208310151561137d5780518252602082019150602081019050602083039250611358565b6001836020036101000a03801982511681845116808217855250505050505090500191505060405180910390206000191660001916815260200190815260200160002090805190602001906113d39291906116c9565b507f410eddefb807d899bc8882a95951655391fe0a4d0c444cb6545a5761f3b4aaab8282604051808060200180602001838103835285818151815260200191508051906020019080838360005b8381101561143b578082015181840152602081019050611420565b50505050905090810190601f1680156114685780820380516001836020036101000a031916815260200191505b50838103825284818151815260200191508051906020019080838360005b838110156114a1578082015181840152602081019050611486565b50505050905090810190601f1680156114ce5780820380516001836020036101000a031916815260200191505b5094505050505060405180910390a15050565b60026020528060005260406000206000915090505481565b60016020528060005260406000206000915054906101000a900473ffffffffffffffffffffffffffffffffffffffff1681565b6000809054906101000a900473ffffffffffffffffffffffffffffffffffffffff1673ffffffffffffffffffffffffffffffffffffffff163373ffffffffffffffffffffffffffffffffffffffff1614151561158757600080fd5b600073ffffffffffffffffffffffffffffffffffffffff168173ffffffffffffffffffffffffffffffffffffffff16141515156115c357600080fd5b8073ffffffffffffffffffffffffffffffffffffffff166000809054906101000a900473ffffffffffffffffffffffffffffffffffffffff1673ffffffffffffffffffffffffffffffffffffffff167f8be0079c531659141344cd1fd0a4f28419497f9722a3daafe3b4186f6b6457e060405160405180910390a3806000806101000a81548173ffffffffffffffffffffffffffffffffffffffff021916908373ffffffffffffffffffffffffffffffffffffffff16021790555050565b50805460018160011615610100020316600290046000825580601f106116a757506116c6565b601f0160209004906000526020600020908101906116c59190611749565b5b50565b828054600181600116156101000203166002900490600052602060002090601f016020900481019282601f1061170a57805160ff1916838001178555611738565b82800160010185558215611738579182015b8281111561173757825182559160200191906001019061171c565b5b5090506117459190611749565b5090565b61176b91905b8082111561176757600081600090555060010161174f565b5090565b905600a165627a7a723058205386287f0289c36bea37898db1940dea00516589f1ac597c7f63f2f14c6953b30029",
  "source": "pragma solidity ^0.4.18;\n\nimport \"zeppelin-solidity/contracts/ownership/Ownable.sol\";\n\n/**\n * @dev the Registry contains settings and addresses of contracts for the Partii Ecosystem\n *\n **/\ncontract Registry is Ownable  {\n\n  mapping (bytes32=>address) public contracts;\n  mapping (bytes32=>uint) public numbers;\n  mapping (bytes32=>string) public strings;\n\n  event LogRegisterAddress(string _name, address _address);\n  event LogUnregisterAddress(string _name);\n  event LogRegisterUint(string _name, uint _number);\n  event LogUnregisterUint(string _name);\n  event LogRegisterString(string _name, string _string);\n  event LogUnregisterString(string _name);\n\n  function Registry() public {\n      owner = msg.sender;\n  }\n\n  function registerAddress(string _name, address _address) public onlyOwner {\n    contracts[keccak256(_name)] = _address;\n    LogRegisterAddress(_name, _address);\n  }\n\n  function unregisterAddress(string _name) public onlyOwner {\n    delete contracts[keccak256(_name)];\n    LogUnregisterAddress(_name);\n  }\n\n  function getContract(string _name) public constant returns(address) {\n    return contracts[keccak256(_name)];\n  }\n\n  function registerUint(string _name, uint _number) public onlyOwner {\n    numbers[keccak256(_name)] = _number;\n    LogRegisterUint(_name, _number);\n  }\n\n  function unregisterUint(string _name) public onlyOwner {\n    delete numbers[keccak256(_name)];\n    LogUnregisterUint(_name);\n  }\n\n  function getUint(string _name) public constant returns(uint) {\n    return numbers[keccak256(_name)];\n  }\n\n  function registerString(string _name, string _string) public onlyOwner {\n    strings[keccak256(_name)] = _string;\n    LogRegisterString(_name, _string);\n  }\n\n  function unregisterString(string _name) public onlyOwner {\n    delete strings[keccak256(_name)];\n    LogUnregisterString(_name);\n  }\n\n  function getString(string _name) public constant returns(string) {\n    return strings[keccak256(_name)];\n  }\n}\n",
  "sourcePath": "/home/enrico/paratii/paratii-contracts/contracts/paratii/Registry.sol",
  "compiler": {
    "name": "solc",
    "version": "0.4.23+commit.124ca40d.Emscripten.clang"
  },
  "schemaVersion": "2.0.0",
  "updatedAt": "2018-05-17T09:43:13.457Z"
}