{
  "contractName": "Sales",
  "abi": [
    {
      "constant": true,
      "inputs": [],
      "name": "registry",
      "outputs": [
        {
          "name": "",
          "type": "address"
        }
      ],
      "payable": false,
      "stateMutability": "view",
      "type": "function"
    },
    {
      "constant": true,
      "inputs": [],
      "name": "owner",
      "outputs": [
        {
          "name": "",
          "type": "address"
        }
      ],
      "payable": false,
      "stateMutability": "view",
      "type": "function"
    },
    {
      "constant": false,
      "inputs": [
        {
          "name": "newOwner",
          "type": "address"
        }
      ],
      "name": "transferOwnership",
      "outputs": [],
      "payable": false,
      "stateMutability": "nonpayable",
      "type": "function"
    },
    {
      "inputs": [
        {
          "name": "_registry",
          "type": "address"
        }
      ],
      "payable": false,
      "stateMutability": "nonpayable",
      "type": "constructor"
    },
    {
      "anonymous": false,
      "inputs": [
        {
          "indexed": false,
          "name": "_buyer",
          "type": "address"
        },
        {
          "indexed": false,
          "name": "_videoId",
          "type": "string"
        },
        {
          "indexed": false,
          "name": "_price",
          "type": "uint256"
        },
        {
          "indexed": false,
          "name": "_ipfsData",
          "type": "string"
        }
      ],
      "name": "LogCreateSale",
      "type": "event"
    },
    {
      "anonymous": false,
      "inputs": [
        {
          "indexed": false,
          "name": "_buyer",
          "type": "address"
        },
        {
          "indexed": false,
          "name": "_videoId",
          "type": "string"
        }
      ],
      "name": "LogRemoveSale",
      "type": "event"
    },
    {
      "anonymous": false,
      "inputs": [
        {
          "indexed": true,
          "name": "previousOwner",
          "type": "address"
        },
        {
          "indexed": true,
          "name": "newOwner",
          "type": "address"
        }
      ],
      "name": "OwnershipTransferred",
      "type": "event"
    },
    {
      "constant": false,
      "inputs": [
        {
          "name": "_buyer",
          "type": "address"
        },
        {
          "name": "_videoId",
          "type": "string"
        },
        {
          "name": "_price",
          "type": "uint256"
        },
        {
          "name": "_ipfsData",
          "type": "string"
        }
      ],
      "name": "create",
      "outputs": [],
      "payable": false,
      "stateMutability": "nonpayable",
      "type": "function"
    },
    {
      "constant": false,
      "inputs": [
        {
          "name": "_buyer",
          "type": "address"
        },
        {
          "name": "_videoId",
          "type": "string"
        }
      ],
      "name": "remove",
      "outputs": [],
      "payable": false,
      "stateMutability": "nonpayable",
      "type": "function"
    },
    {
      "constant": true,
      "inputs": [
        {
          "name": "_buyer",
          "type": "address"
        },
        {
          "name": "_videoId",
          "type": "string"
        }
      ],
      "name": "get",
      "outputs": [
        {
          "name": "",
          "type": "uint256"
        },
        {
          "name": "",
          "type": "string"
        }
      ],
      "payable": false,
      "stateMutability": "view",
      "type": "function"
    },
    {
      "constant": true,
      "inputs": [
        {
          "name": "_buyer",
          "type": "address"
        },
        {
          "name": "_videoId",
          "type": "string"
        }
      ],
      "name": "userBoughtVideo",
      "outputs": [
        {
          "name": "",
          "type": "bool"
        }
      ],
      "payable": false,
      "stateMutability": "view",
      "type": "function"
    }
  ],
  "bytecode": "0x6060604052341561000f57600080fd5b60405160208061116b83398101604052808051906020019091905050336000806101000a81548173ffffffffffffffffffffffffffffffffffffffff021916908373ffffffffffffffffffffffffffffffffffffffff160217905550336000806101000a81548173ffffffffffffffffffffffffffffffffffffffff021916908373ffffffffffffffffffffffffffffffffffffffff16021790555080600160006101000a81548173ffffffffffffffffffffffffffffffffffffffff021916908373ffffffffffffffffffffffffffffffffffffffff1602179055505061106f806100fc6000396000f300606060405260043610610083576000357c0100000000000000000000000000000000000000000000000000000000900463ffffffff16806349209fc8146100885780637b103999146101045780638da5cb5b14610159578063abebf126146101ae578063e8e459e014610242578063f2fde38b1461030a578063fc2525ab14610343575b600080fd5b341561009357600080fd5b610102600480803573ffffffffffffffffffffffffffffffffffffffff1690602001909190803590602001908201803590602001908080601f0160208091040260200160405190810160405280939291908181526020018383808284378201915050505050509190505061043f565b005b341561010f57600080fd5b610117610771565b604051808273ffffffffffffffffffffffffffffffffffffffff1673ffffffffffffffffffffffffffffffffffffffff16815260200191505060405180910390f35b341561016457600080fd5b61016c610797565b604051808273ffffffffffffffffffffffffffffffffffffffff1673ffffffffffffffffffffffffffffffffffffffff16815260200191505060405180910390f35b34156101b957600080fd5b610228600480803573ffffffffffffffffffffffffffffffffffffffff1690602001909190803590602001908201803590602001908080601f016020809104026020016040519081016040528093929190818152602001838380828437820191505050505050919050506107bc565b604051808215151515815260200191505060405180910390f35b341561024d57600080fd5b610308600480803573ffffffffffffffffffffffffffffffffffffffff1690602001909190803590602001908201803590602001908080601f0160208091040260200160405190810160405280939291908181526020018383808284378201915050505050509190803590602001909190803590602001908201803590602001908080601f01602080910402602001604051908101604052809392919081815260200183838082843782019150505050505091905050610891565b005b341561031557600080fd5b610341600480803573ffffffffffffffffffffffffffffffffffffffff16906020019091905050610c74565b005b341561034e57600080fd5b6103bd600480803573ffffffffffffffffffffffffffffffffffffffff1690602001909190803590602001908201803590602001908080601f01602080910402602001604051908101604052809392919081815260200183838082843782019150505050505091905050610dc9565b6040518083815260200180602001828103825283818151815260200191508051906020019080838360005b838110156104035780820151818401526020810190506103e8565b50505050905090810190601f1680156104305780820380516001836020036101000a031916815260200191505b50935050505060405180910390f35b6000809054906101000a900473ffffffffffffffffffffffffffffffffffffffff1673ffffffffffffffffffffffffffffffffffffffff163373ffffffffffffffffffffffffffffffffffffffff1614806105a95750600160009054906101000a900473ffffffffffffffffffffffffffffffffffffffff1673ffffffffffffffffffffffffffffffffffffffff1663358177736000604051602001526040518163ffffffff167c01000000000000000000000000000000000000000000000000000000000281526004018080602001828103825260058152602001807f53746f7265000000000000000000000000000000000000000000000000000000815250602001915050602060405180830381600087803b151561055f57600080fd5b6102c65a03f1151561057057600080fd5b5050506040518051905073ffffffffffffffffffffffffffffffffffffffff163373ffffffffffffffffffffffffffffffffffffffff16145b15156105b457600080fd5b600260008373ffffffffffffffffffffffffffffffffffffffff1673ffffffffffffffffffffffffffffffffffffffff1681526020019081526020016000206000826040518082805190602001908083835b60208310151561062b5780518252602082019150602081019050602083039250610606565b6001836020036101000a038019825116818451168082178552505050505050905001915050604051809103902060001916600019168152602001908152602001600020600080820160006101000a81549060ff0219169055600182016000905560028201600061069b9190610f42565b50507f83652eb81b824d0e5d35726dc1adb19408af592acb527de2994fa5a4d2d4f8808282604051808373ffffffffffffffffffffffffffffffffffffffff1673ffffffffffffffffffffffffffffffffffffffff16815260200180602001828103825283818151815260200191508051906020019080838360005b83811015610732578082015181840152602081019050610717565b50505050905090810190601f16801561075f5780820380516001836020036101000a031916815260200191505b50935050505060405180910390a15050565b600160009054906101000a900473ffffffffffffffffffffffffffffffffffffffff1681565b6000809054906101000a900473ffffffffffffffffffffffffffffffffffffffff1681565b6000600260008473ffffffffffffffffffffffffffffffffffffffff1673ffffffffffffffffffffffffffffffffffffffff1681526020019081526020016000206000836040518082805190602001908083835b6020831015156108355780518252602082019150602081019050602083039250610810565b6001836020036101000a03801982511681845116808217855250505050505090500191505060405180910390206000191660001916815260200190815260200160002060000160009054906101000a900460ff16905092915050565b6000809054906101000a900473ffffffffffffffffffffffffffffffffffffffff1673ffffffffffffffffffffffffffffffffffffffff163373ffffffffffffffffffffffffffffffffffffffff1614806109fb5750600160009054906101000a900473ffffffffffffffffffffffffffffffffffffffff1673ffffffffffffffffffffffffffffffffffffffff1663358177736000604051602001526040518163ffffffff167c01000000000000000000000000000000000000000000000000000000000281526004018080602001828103825260058152602001807f53746f7265000000000000000000000000000000000000000000000000000000815250602001915050602060405180830381600087803b15156109b157600080fd5b6102c65a03f115156109c257600080fd5b5050506040518051905073ffffffffffffffffffffffffffffffffffffffff163373ffffffffffffffffffffffffffffffffffffffff16145b1515610a0657600080fd5b60606040519081016040528060011515815260200183815260200182815250600260008673ffffffffffffffffffffffffffffffffffffffff1673ffffffffffffffffffffffffffffffffffffffff1681526020019081526020016000206000856040518082805190602001908083835b602083101515610a9c5780518252602082019150602081019050602083039250610a77565b6001836020036101000a03801982511681845116808217855250505050505090500191505060405180910390206000191660001916815260200190815260200160002060008201518160000160006101000a81548160ff021916908315150217905550602082015181600101556040820151816002019080519060200190610b25929190610f8a565b509050507f038378601c4d12a51dc5d62e0763a5950eae787276525db73d68924a3bd6f8aa84848484604051808573ffffffffffffffffffffffffffffffffffffffff1673ffffffffffffffffffffffffffffffffffffffff1681526020018060200184815260200180602001838103835286818151815260200191508051906020019080838360005b83811015610bca578082015181840152602081019050610baf565b50505050905090810190601f168015610bf75780820380516001836020036101000a031916815260200191505b50838103825284818151815260200191508051906020019080838360005b83811015610c30578082015181840152602081019050610c15565b50505050905090810190601f168015610c5d5780820380516001836020036101000a031916815260200191505b50965050505050505060405180910390a150505050565b6000809054906101000a900473ffffffffffffffffffffffffffffffffffffffff1673ffffffffffffffffffffffffffffffffffffffff163373ffffffffffffffffffffffffffffffffffffffff16141515610ccf57600080fd5b600073ffffffffffffffffffffffffffffffffffffffff168173ffffffffffffffffffffffffffffffffffffffff1614151515610d0b57600080fd5b8073ffffffffffffffffffffffffffffffffffffffff166000809054906101000a900473ffffffffffffffffffffffffffffffffffffffff1673ffffffffffffffffffffffffffffffffffffffff167f8be0079c531659141344cd1fd0a4f28419497f9722a3daafe3b4186f6b6457e060405160405180910390a3806000806101000a81548173ffffffffffffffffffffffffffffffffffffffff021916908373ffffffffffffffffffffffffffffffffffffffff16021790555050565b6000610dd361100a565b6000600260008673ffffffffffffffffffffffffffffffffffffffff1673ffffffffffffffffffffffffffffffffffffffff1681526020019081526020016000206000856040518082805190602001908083835b602083101515610e4c5780518252602082019150602081019050602083039250610e27565b6001836020036101000a0380198251168184511680821785525050505050509050019150506040518091039020600019166000191681526020019081526020016000209050806001015481600201808054600181600116156101000203166002900480601f016020809104026020016040519081016040528092919081815260200182805460018160011615610100020316600290048015610f2f5780601f10610f0457610100808354040283529160200191610f2f565b820191906000526020600020905b815481529060010190602001808311610f1257829003601f168201915b5050505050905092509250509250929050565b50805460018160011615610100020316600290046000825580601f10610f685750610f87565b601f016020900490600052602060002090810190610f86919061101e565b5b50565b828054600181600116156101000203166002900490600052602060002090601f016020900481019282601f10610fcb57805160ff1916838001178555610ff9565b82800160010185558215610ff9579182015b82811115610ff8578251825591602001919060010190610fdd565b5b509050611006919061101e565b5090565b602060405190810160405280600081525090565b61104091905b8082111561103c576000816000905550600101611024565b5090565b905600a165627a7a723058202adca22fb209bdaca078d65990f5099817cb9cf7fe748a0952c409c85ef5bb6a0029",
  "source": "pragma solidity ^0.4.18;\n\nimport \"zeppelin-solidity/contracts/ownership/Ownable.sol\";\nimport 'zeppelin-solidity/contracts/math/SafeMath.sol';\nimport './Registry.sol';\n\ncontract Sales is Ownable {\n\n    Registry public registry;\n\n    struct Data {\n      bool _isRegistered;\n      uint _price;\n      string _ipfsData;\n    }\n\n\n    // mapping from user addrsses and video ids to booleans\n    mapping (address=> mapping (bytes32 => Data)) private _sales;\n\n    event LogCreateSale(address _buyer, string _videoId, uint _price, string _ipfsData);\n    event LogRemoveSale(address _buyer, string _videoId);\n\n    modifier onlyOwnerOrStore() {\n        require((msg.sender == owner) || (msg.sender == registry.getContract('Store')));\n        _;\n    }\n\n    function Sales(Registry _registry) public {\n        owner = msg.sender;\n        registry = _registry;\n    }\n\n   /**\n    * @dev registers a sale of a video\n    * Does not do any payments - this call only registers the sale\n    * Only the Store contract (as well as the owner) can register a sale\n    * @param _videoId the id of the video\n    * @param _buyer the buyer of the video (an ethereum address)\n    * @param _price the price that was paid for the video\n    * @param _ipfsData a reference to further data that can be found on ipfs\n    */\n    function create(address _buyer, string _videoId, uint _price, string _ipfsData)\n        public onlyOwnerOrStore {\n        _sales[_buyer][keccak256(_videoId)] = Data(true, _price, _ipfsData);\n        LogCreateSale(_buyer, _videoId, _price, _ipfsData);\n    }\n\n    /**\n     * @dev Remove the sale from the registry\n     * Only the Store contract or the owner can remove a sale\n     */\n    function remove(address _buyer, string _videoId)\n        public onlyOwnerOrStore {\n        delete _sales[_buyer][keccak256(_videoId)];\n        LogRemoveSale(_buyer, _videoId);\n    }\n\n    /**\n     * @dev Get information about the sale from the registry\n     * Only the Store contract or the owner can remove a sale\n     * @return price and ipfsData\n     */\n    function get(address _buyer, string _videoId) public  constant returns(uint, string) {\n        Data storage _data = _sales[_buyer][keccak256(_videoId)];\n        return (\n            _data._price,\n            _data._ipfsData\n        );\n    }\n\n    function userBoughtVideo(address _buyer, string _videoId) public constant returns(bool) {\n        return _sales[_buyer][keccak256(_videoId)]._isRegistered;\n    }\n}\n",
  "sourcePath": "/home/enrico/paratii/paratii-contracts/contracts/paratii/Sales.sol",
  "compiler": {
    "name": "solc",
    "version": "0.4.19+commit.c4cbbb05.Emscripten.clang"
  },
  "schemaVersion": "1.0.1",
  "updatedAt": "2018-05-17T15:42:26.718Z"
}