{
  "contractName": "SendEther",
  "abi": [
    {
      "constant": false,
      "inputs": [
        {
          "name": "_to",
          "type": "address"
        },
        {
          "name": "_description",
          "type": "string"
        }
      ],
      "name": "transfer",
      "outputs": [
        {
          "name": "",
          "type": "bool"
        }
      ],
      "payable": true,
      "type": "function",
      "stateMutability": "payable"
    },
    {
      "payable": false,
      "type": "fallback",
      "stateMutability": "nonpayable"
    },
    {
      "anonymous": false,
      "inputs": [
        {
          "indexed": false,
          "name": "from",
          "type": "address"
        },
        {
          "indexed": false,
          "name": "to",
          "type": "address"
        },
        {
          "indexed": false,
          "name": "value",
          "type": "uint256"
        },
        {
          "indexed": false,
          "name": "description",
          "type": "string"
        }
      ],
      "name": "LogSendEther",
      "type": "event"
    }
  ],
  "bytecode": "0x6060604052341561000f57600080fd5b61025e8061001e6000396000f300606060405260043610610041576000357c0100000000000000000000000000000000000000000000000000000000900463ffffffff1680630988664914610051575b341561004c57600080fd5b600080fd5b6100c0600480803573ffffffffffffffffffffffffffffffffffffffff1690602001909190803590602001908201803590602001908080601f016020809104026020016040519081016040528093929190818152602001838380828437820191505050505050919050506100da565b604051808215151515815260200191505060405180910390f35b60008273ffffffffffffffffffffffffffffffffffffffff166108fc349081150290604051600060405180830381858888f19350505050151561011c57600080fd5b7fa8da2a10447235381d4a8921c260b89c83b471b8aff2127abc1d434348812e7133843485604051808573ffffffffffffffffffffffffffffffffffffffff1673ffffffffffffffffffffffffffffffffffffffff1681526020018473ffffffffffffffffffffffffffffffffffffffff1673ffffffffffffffffffffffffffffffffffffffff16815260200183815260200180602001828103825283818151815260200191508051906020019080838360005b838110156101eb5780820151818401526020810190506101d0565b50505050905090810190601f1680156102185780820380516001836020036101000a031916815260200191505b509550505050505060405180910390a160019050929150505600a165627a7a72305820b610811c32a733b1289844eaf8e2b94a76e196af5f64c63038f913d748b83ca80029",
  "source": "pragma solidity ^0.4.18;\n\n/**\n * @title SendEther\n * @dev A Contract that wraps the native transfer function and logs an event.\n */\n\ncontract SendEther {\n\n    event LogSendEther(\n      address from,\n      address to,\n      uint value,\n      string description\n    );\n\n    // If someone accidentally sends ether to this contract, revert;\n    function () {\n        revert();\n    }\n\n    /**\n     * @dev Transfer ether to address _to, providing a description\n     * The only difference with sending ETH directly is that the action is logged\n     * @param _to recipient of the ETH\n     * @param _description  A description to log\n     */\n    function transfer(address _to, string _description) payable returns(bool)  {\n       _to.transfer(msg.value);\n       LogSendEther(msg.sender, _to, msg.value, _description);\n       return true;\n    }\n\n}\n",
  "sourcePath": "/media/data/projects/paratii/paratii-contracts/contracts/paratii/SendEther.sol",
  "compiler": {
    "name": "solc",
    "version": "0.4.18+commit.9cf6e910.Emscripten.clang"
  },
  "schemaVersion": "1.0.1",
  "updatedAt": "2017-11-23T22:02:43.063Z"
}