{
  "contractName": "SendEther",
  "abi": [
    {
      "payable": false,
      "stateMutability": "nonpayable",
      "type": "fallback"
    },
    {
      "anonymous": false,
      "inputs": [
        {
          "indexed": false,
          "name": "from",
          "type": "address"
        },
        {
          "indexed": false,
          "name": "to",
          "type": "address"
        },
        {
          "indexed": false,
          "name": "value",
          "type": "uint256"
        },
        {
          "indexed": false,
          "name": "description",
          "type": "string"
        }
      ],
      "name": "LogSendEther",
      "type": "event"
    },
    {
      "constant": false,
      "inputs": [
        {
          "name": "_to",
          "type": "address"
        },
        {
          "name": "_description",
          "type": "string"
        }
      ],
      "name": "transfer",
      "outputs": [
        {
          "name": "",
          "type": "bool"
        }
      ],
      "payable": true,
      "stateMutability": "payable",
      "type": "function"
    }
  ],
  "bytecode": "0x608060405234801561001057600080fd5b50610272806100206000396000f300608060405260043610610041576000357c0100000000000000000000000000000000000000000000000000000000900463ffffffff1680630988664914610053575b34801561004d57600080fd5b50600080fd5b6100cd600480360381019080803573ffffffffffffffffffffffffffffffffffffffff169060200190929190803590602001908201803590602001908080601f01602080910402602001604051908101604052809392919081815260200183838082843782019150505050505091929192905050506100e7565b604051808215151515815260200191505060405180910390f35b60008273ffffffffffffffffffffffffffffffffffffffff166108fc349081150290604051600060405180830381858888f1935050505015801561012f573d6000803e3d6000fd5b507fa8da2a10447235381d4a8921c260b89c83b471b8aff2127abc1d434348812e7133843485604051808573ffffffffffffffffffffffffffffffffffffffff1673ffffffffffffffffffffffffffffffffffffffff1681526020018473ffffffffffffffffffffffffffffffffffffffff1673ffffffffffffffffffffffffffffffffffffffff16815260200183815260200180602001828103825283818151815260200191508051906020019080838360005b838110156101ff5780820151818401526020810190506101e4565b50505050905090810190601f16801561022c5780820380516001836020036101000a031916815260200191505b509550505050505060405180910390a160019050929150505600a165627a7a723058204fc2e97784d8979adaf76927420bff954e5a201667fd259b4c9d7b615c2500f70029",
  "source": "pragma solidity ^0.4.18;\n\n/**\n * @title SendEther\n * @dev A Contract that wraps the native transfer function and logs an event.\n */\n\ncontract SendEther {\n\n    event LogSendEther(\n        address from,\n        address to,\n        uint value,\n        string description\n    );\n\n    // If someone accidentally sends ether to this contract, revert;\n    function () public {\n        revert();\n    }\n\n    /**\n     * @dev Transfer ether to address _to, providing a description\n     * The only difference with sending ETH directly is that the action is logged\n     * @param _to recipient of the ETH\n     * @param _description  A description to log\n     */\n    function transfer(address _to, string _description) public payable returns(bool)  {\n        _to.transfer(msg.value);\n        emit LogSendEther(msg.sender, _to, msg.value, _description);\n        return true;\n    }\n\n}\n",
  "sourcePath": "/media/data2/projects/paratii/contracts/contracts/paratii/SendEther.sol",
  "compiler": {
    "name": "solc",
    "version": "0.4.24+commit.e67f0147.Emscripten.clang"
  },
  "schemaVersion": "2.0.1",
  "updatedAt": "2018-07-05T11:09:36.677Z"
}