{
  "contractName": "Store",
  "abi": [
    {
      "constant": false,
      "inputs": [
        {
          "name": "videoId",
          "type": "string"
        },
        {
          "name": "ipfsData",
          "type": "string"
        }
      ],
      "name": "buyVideo",
      "outputs": [
        {
          "name": "",
          "type": "bool"
        }
      ],
      "payable": false,
      "stateMutability": "nonpayable",
      "type": "function"
    },
    {
      "constant": true,
      "inputs": [],
      "name": "registry",
      "outputs": [
        {
          "name": "",
          "type": "address"
        }
      ],
      "payable": false,
      "stateMutability": "view",
      "type": "function"
    },
    {
      "constant": true,
      "inputs": [],
      "name": "owner",
      "outputs": [
        {
          "name": "",
          "type": "address"
        }
      ],
      "payable": false,
      "stateMutability": "view",
      "type": "function"
    },
    {
      "constant": true,
      "inputs": [],
      "name": "sales",
      "outputs": [
        {
          "name": "",
          "type": "address"
        }
      ],
      "payable": false,
      "stateMutability": "view",
      "type": "function"
    },
    {
      "constant": false,
      "inputs": [
        {
          "name": "newOwner",
          "type": "address"
        }
      ],
      "name": "transferOwnership",
      "outputs": [],
      "payable": false,
      "stateMutability": "nonpayable",
      "type": "function"
    },
    {
      "inputs": [
        {
          "name": "_registry",
          "type": "address"
        }
      ],
      "payable": false,
      "stateMutability": "nonpayable",
      "type": "constructor"
    },
    {
      "payable": false,
      "stateMutability": "nonpayable",
      "type": "fallback"
    },
    {
      "anonymous": false,
      "inputs": [
        {
          "indexed": false,
          "name": "_videoId",
          "type": "string"
        },
        {
          "indexed": false,
          "name": "_buyer",
          "type": "address"
        },
        {
          "indexed": false,
          "name": "_price",
          "type": "uint256"
        }
      ],
      "name": "LogBuyVideo",
      "type": "event"
    },
    {
      "anonymous": false,
      "inputs": [
        {
          "indexed": false,
          "name": "_msg",
          "type": "address"
        }
      ],
      "name": "LogAddress",
      "type": "event"
    },
    {
      "anonymous": false,
      "inputs": [
        {
          "indexed": false,
          "name": "_msg",
          "type": "int256"
        }
      ],
      "name": "LogInt",
      "type": "event"
    },
    {
      "anonymous": false,
      "inputs": [
        {
          "indexed": false,
          "name": "_msg",
          "type": "string"
        }
      ],
      "name": "LogString",
      "type": "event"
    },
    {
      "anonymous": false,
      "inputs": [
        {
          "indexed": false,
          "name": "_msg",
          "type": "uint256"
        }
      ],
      "name": "LogUint",
      "type": "event"
    },
    {
      "anonymous": false,
      "inputs": [
        {
          "indexed": false,
          "name": "_msg",
          "type": "bytes"
        }
      ],
      "name": "LogBytes",
      "type": "event"
    },
    {
      "anonymous": false,
      "inputs": [
        {
          "indexed": false,
          "name": "_msg",
          "type": "bytes32"
        }
      ],
      "name": "LogBytes32",
      "type": "event"
    },
    {
      "anonymous": false,
      "inputs": [
        {
          "indexed": false,
          "name": "_msg",
          "type": "bool"
        }
      ],
      "name": "LogBool",
      "type": "event"
    },
    {
      "anonymous": false,
      "inputs": [
        {
          "indexed": true,
          "name": "previousOwner",
          "type": "address"
        },
        {
          "indexed": true,
          "name": "newOwner",
          "type": "address"
        }
      ],
      "name": "OwnershipTransferred",
      "type": "event"
    }
  ],
  "bytecode": "0x6060604052341561000f57600080fd5b604051602080610f1183398101604052808051906020019091905050336000806101000a81548173ffffffffffffffffffffffffffffffffffffffff021916908373ffffffffffffffffffffffffffffffffffffffff16021790555080600260006101000a81548173ffffffffffffffffffffffffffffffffffffffff021916908373ffffffffffffffffffffffffffffffffffffffff16021790555050610e55806100bc6000396000f30060606040526004361061006d576000357c0100000000000000000000000000000000000000000000000000000000900463ffffffff1680633560d4c51461007d5780637b103999146101355780638da5cb5b1461018a578063aace52fe146101df578063f2fde38b14610234575b341561007857600080fd5b600080fd5b341561008857600080fd5b61011b600480803590602001908201803590602001908080601f0160208091040260200160405190810160405280939291908181526020018383808284378201915050505050509190803590602001908201803590602001908080601f0160208091040260200160405190810160405280939291908181526020018383808284378201915050505050509190505061026d565b604051808215151515815260200191505060405180910390f35b341561014057600080fd5b610148610b08565b604051808273ffffffffffffffffffffffffffffffffffffffff1673ffffffffffffffffffffffffffffffffffffffff16815260200191505060405180910390f35b341561019557600080fd5b61019d610b2e565b604051808273ffffffffffffffffffffffffffffffffffffffff1673ffffffffffffffffffffffffffffffffffffffff16815260200191505060405180910390f35b34156101ea57600080fd5b6101f2610b53565b604051808273ffffffffffffffffffffffffffffffffffffffff1673ffffffffffffffffffffffffffffffffffffffff16815260200191505060405180910390f35b341561023f57600080fd5b61026b600480803573ffffffffffffffffffffffffffffffffffffffff16906020019091905050610b79565b005b600080600080600080600080600080600260009054906101000a900473ffffffffffffffffffffffffffffffffffffffff1673ffffffffffffffffffffffffffffffffffffffff1663358177736000604051602001526040518163ffffffff167c01000000000000000000000000000000000000000000000000000000000281526004018080602001828103825260068152602001807f4176617461720000000000000000000000000000000000000000000000000000815250602001915050602060405180830381600087803b151561034657600080fd5b6102c65a03f1151561035757600080fd5b505050604051805190509850600260009054906101000a900473ffffffffffffffffffffffffffffffffffffffff1673ffffffffffffffffffffffffffffffffffffffff1663358177736000604051602001526040518163ffffffff167c01000000000000000000000000000000000000000000000000000000000281526004018080602001828103825260068152602001807f566964656f730000000000000000000000000000000000000000000000000000815250602001915050602060405180830381600087803b151561042d57600080fd5b6102c65a03f1151561043e57600080fd5b5050506040518051905073ffffffffffffffffffffffffffffffffffffffff1663693ec85e8d600060405160c001526040518263ffffffff167c01000000000000000000000000000000000000000000000000000000000281526004018080602001828103825283818151815260200191508051906020019080838360005b838110156104d85780820151818401526020810190506104bd565b50505050905090810190601f1680156105055780820380516001836020036101000a031916815260200191505b509250505060c060405180830381600087803b151561052357600080fd5b6102c65a03f1151561053457600080fd5b5050506040518051906020018051906020018051906020018051906020018051906020018051905097509750975097509750975061059c670de0b6b3a764000061058e61057f610cce565b8a610dba90919063ffffffff16565b610df590919063ffffffff16565b91508873ffffffffffffffffffffffffffffffffffffffff166323b872dd338b856000604051602001526040518463ffffffff167c0100000000000000000000000000000000000000000000000000000000028152600401808473ffffffffffffffffffffffffffffffffffffffff1673ffffffffffffffffffffffffffffffffffffffff1681526020018373ffffffffffffffffffffffffffffffffffffffff1673ffffffffffffffffffffffffffffffffffffffff1681526020018281526020019350505050602060405180830381600087803b151561067d57600080fd5b6102c65a03f1151561068e57600080fd5b50505060405180519050506106ac8288610e1090919063ffffffff16565b90508873ffffffffffffffffffffffffffffffffffffffff166323b872dd338a846000604051602001526040518463ffffffff167c0100000000000000000000000000000000000000000000000000000000028152600401808473ffffffffffffffffffffffffffffffffffffffff1673ffffffffffffffffffffffffffffffffffffffff1681526020018373ffffffffffffffffffffffffffffffffffffffff1673ffffffffffffffffffffffffffffffffffffffff1681526020018281526020019350505050602060405180830381600087803b151561078d57600080fd5b6102c65a03f1151561079e57600080fd5b5050506040518051905050600260009054906101000a900473ffffffffffffffffffffffffffffffffffffffff1673ffffffffffffffffffffffffffffffffffffffff1663358177736000604051602001526040518163ffffffff167c01000000000000000000000000000000000000000000000000000000000281526004018080602001828103825260058152602001807f53616c6573000000000000000000000000000000000000000000000000000000815250602001915050602060405180830381600087803b151561087357600080fd5b6102c65a03f1151561088457600080fd5b5050506040518051905073ffffffffffffffffffffffffffffffffffffffff1663e8e459e0338e8a8f6040518563ffffffff167c0100000000000000000000000000000000000000000000000000000000028152600401808573ffffffffffffffffffffffffffffffffffffffff1673ffffffffffffffffffffffffffffffffffffffff1681526020018060200184815260200180602001838103835286818151815260200191508051906020019080838360005b83811015610954578082015181840152602081019050610939565b50505050905090810190601f1680156109815780820380516001836020036101000a031916815260200191505b50838103825284818151815260200191508051906020019080838360005b838110156109ba57808201518184015260208101905061099f565b50505050905090810190601f1680156109e75780820380516001836020036101000a031916815260200191505b509650505050505050600060405180830381600087803b1515610a0957600080fd5b6102c65a03f11515610a1a57600080fd5b5050507ffb16a0cb01447521c51cd70864c5a9fa252ff62fcff41f679b24426dc4793e278c338960405180806020018473ffffffffffffffffffffffffffffffffffffffff1673ffffffffffffffffffffffffffffffffffffffff168152602001838152602001828103825285818151815260200191508051906020019080838360005b83811015610ab9578082015181840152602081019050610a9e565b50505050905090810190601f168015610ae65780820380516001836020036101000a031916815260200191505b5094505050505060405180910390a16001995050505050505050505092915050565b600260009054906101000a900473ffffffffffffffffffffffffffffffffffffffff1681565b6000809054906101000a900473ffffffffffffffffffffffffffffffffffffffff1681565b600160009054906101000a900473ffffffffffffffffffffffffffffffffffffffff1681565b6000809054906101000a900473ffffffffffffffffffffffffffffffffffffffff1673ffffffffffffffffffffffffffffffffffffffff163373ffffffffffffffffffffffffffffffffffffffff16141515610bd457600080fd5b600073ffffffffffffffffffffffffffffffffffffffff168173ffffffffffffffffffffffffffffffffffffffff1614151515610c1057600080fd5b8073ffffffffffffffffffffffffffffffffffffffff166000809054906101000a900473ffffffffffffffffffffffffffffffffffffffff1673ffffffffffffffffffffffffffffffffffffffff167f8be0079c531659141344cd1fd0a4f28419497f9722a3daafe3b4186f6b6457e060405160405180910390a3806000806101000a81548173ffffffffffffffffffffffffffffffffffffffff021916908373ffffffffffffffffffffffffffffffffffffffff16021790555050565b6000600260009054906101000a900473ffffffffffffffffffffffffffffffffffffffff1673ffffffffffffffffffffffffffffffffffffffff1663498bff006000604051602001526040518163ffffffff167c010000000000000000000000000000000000000000000000000000000002815260040180806020018281038252601c8152602001807f566964656f5265646973747269627574696f6e506f6f6c536861726500000000815250602001915050602060405180830381600087803b1515610d9a57600080fd5b6102c65a03f11515610dab57600080fd5b50505060405180519050905090565b6000806000841415610dcf5760009150610dee565b8284029050828482811515610de057fe5b04141515610dea57fe5b8091505b5092915050565b6000808284811515610e0357fe5b0490508091505092915050565b6000828211151515610e1e57fe5b8183039050929150505600a165627a7a7230582072d43056c8e426a0ba63ba9c62573c6d73e961516dcb098dd7ac29756554bc900029",
  "source": "pragma solidity ^0.4.18;\n\nimport 'zeppelin-solidity/contracts/math/SafeMath.sol';\nimport './Avatar.sol';\nimport './ParatiiToken.sol';\nimport './Registry.sol';\nimport './Sales.sol';\nimport './Users.sol';\nimport './Videos.sol';\nimport '../debug/Debug.sol';\n\n\n/**\n * @title Store\n * @dev A Contract that wraps the native transfer function and logs an event.\n */\n\ncontract Store is Ownable, Debug {\n\n    using SafeMath for uint256;\n\n    Sales public sales;\n    Registry public registry;\n\n    event LogBuyVideo(string _videoId, address _buyer, uint _price);\n\n    function Store(Registry _registry) public {\n      registry = _registry;\n    }\n\n    // If someone accidentally sends ether to this contract, revert;\n    function () public {\n        revert();\n    }\n\n    /**\n     * @dev buyVideo msg.sender buys a video\n     * @param videoId the id of the video\n     * For the transaction to succeed, the buyer must have approved for the Avatar to transfer\n     * the sum to the owner and the redistribution pool.\n     */\n    function buyVideo(string videoId, string ipfsData) public returns(bool)  {\n       // get the info about the video\n       Avatar avatar = Avatar(registry.getContract('Avatar'));\n       /*Videos videos = Videos(registry.getContract('Videos'));*/\n       var (owner, price, _3, _4_, _5, _6) = Videos(registry.getContract('Videos')).get(videoId);\n       uint256 paratiiPart = price.mul(redistributionPoolShare()).div(10 ** 18);\n       avatar.transferFrom(msg.sender, address(avatar), paratiiPart);\n       uint256 ownerPart = price.sub(paratiiPart);\n       avatar.transferFrom(msg.sender, owner, ownerPart);\n       Sales(registry.getContract('Sales')).create(msg.sender, videoId, price, ipfsData);\n       LogBuyVideo(videoId, msg.sender, price);\n       return true;\n    }\n\n    function redistributionPoolShare() internal constant returns(uint256) {\n        // the \"percentage\" in precision 10**18\n        return registry.getUint('VideoRedistributionPoolShare');\n    }\n}\n",
  "sourcePath": "/media/data/projects/paratii/paratii-contracts/contracts/paratii/Store.sol",
  "compiler": {
    "name": "solc",
    "version": "0.4.18+commit.9cf6e910.Emscripten.clang"
  },
  "schemaVersion": "1.0.1",
  "updatedAt": "2018-01-25T09:31:50.066Z"
}