{
  "contractName": "TcrPlaceholder",
  "abi": [
    {
      "constant": true,
      "inputs": [],
      "name": "minDeposit",
      "outputs": [
        {
          "name": "",
          "type": "uint256"
        }
      ],
      "payable": false,
      "stateMutability": "view",
      "type": "function"
    },
    {
      "constant": true,
      "inputs": [],
      "name": "applyStageLen",
      "outputs": [
        {
          "name": "",
          "type": "uint256"
        }
      ],
      "payable": false,
      "stateMutability": "view",
      "type": "function"
    },
    {
      "constant": true,
      "inputs": [
        {
          "name": "",
          "type": "bytes32"
        }
      ],
      "name": "listings",
      "outputs": [
        {
          "name": "applicationExpiry",
          "type": "uint256"
        },
        {
          "name": "whitelisted",
          "type": "bool"
        },
        {
          "name": "owner",
          "type": "address"
        },
        {
          "name": "unstakedDeposit",
          "type": "uint256"
        },
        {
          "name": "challengeID",
          "type": "uint256"
        }
      ],
      "payable": false,
      "stateMutability": "view",
      "type": "function"
    },
    {
      "constant": true,
      "inputs": [],
      "name": "token",
      "outputs": [
        {
          "name": "",
          "type": "address"
        }
      ],
      "payable": false,
      "stateMutability": "view",
      "type": "function"
    },
    {
      "inputs": [
        {
          "name": "_tokenAddr",
          "type": "address"
        },
        {
          "name": "_minDeposit",
          "type": "uint256"
        },
        {
          "name": "_applyStageLen",
          "type": "uint256"
        }
      ],
      "payable": false,
      "stateMutability": "nonpayable",
      "type": "constructor"
    },
    {
      "anonymous": false,
      "inputs": [
        {
          "indexed": false,
          "name": "videoId",
          "type": "string"
        },
        {
          "indexed": false,
          "name": "deposit",
          "type": "uint256"
        }
      ],
      "name": "_Application",
      "type": "event"
    },
    {
      "constant": false,
      "inputs": [
        {
          "name": "_videoId",
          "type": "string"
        },
        {
          "name": "_amount",
          "type": "uint256"
        }
      ],
      "name": "apply",
      "outputs": [],
      "payable": false,
      "stateMutability": "nonpayable",
      "type": "function"
    },
    {
      "constant": false,
      "inputs": [
        {
          "name": "amount",
          "type": "uint256"
        }
      ],
      "name": "deposit",
      "outputs": [],
      "payable": false,
      "stateMutability": "nonpayable",
      "type": "function"
    },
    {
      "constant": false,
      "inputs": [
        {
          "name": "amount",
          "type": "uint256"
        }
      ],
      "name": "withdraw",
      "outputs": [],
      "payable": false,
      "stateMutability": "nonpayable",
      "type": "function"
    },
    {
      "constant": false,
      "inputs": [
        {
          "name": "videoId",
          "type": "string"
        }
      ],
      "name": "exit",
      "outputs": [],
      "payable": false,
      "stateMutability": "nonpayable",
      "type": "function"
    },
    {
      "constant": true,
      "inputs": [
        {
          "name": "_videoId",
          "type": "string"
        }
      ],
      "name": "isWhitelisted",
      "outputs": [
        {
          "name": "whitelisted",
          "type": "bool"
        }
      ],
      "payable": false,
      "stateMutability": "view",
      "type": "function"
    },
    {
      "constant": true,
      "inputs": [
        {
          "name": "_videoId",
          "type": "string"
        }
      ],
      "name": "appWasMade",
      "outputs": [
        {
          "name": "exists",
          "type": "bool"
        }
      ],
      "payable": false,
      "stateMutability": "view",
      "type": "function"
    },
    {
      "constant": true,
      "inputs": [
        {
          "name": "_termDate",
          "type": "uint256"
        }
      ],
      "name": "isExpired",
      "outputs": [
        {
          "name": "expired",
          "type": "bool"
        }
      ],
      "payable": false,
      "stateMutability": "view",
      "type": "function"
    },
    {
      "constant": true,
      "inputs": [],
      "name": "getMinDeposit",
      "outputs": [
        {
          "name": "",
          "type": "uint256"
        }
      ],
      "payable": false,
      "stateMutability": "view",
      "type": "function"
    }
  ],
  "bytecode": "0x6060604052341561000f57600080fd5b6040516060806109628339810160405280805190602001909190805190602001909190805190602001909190505082600160006101000a81548173ffffffffffffffffffffffffffffffffffffffff021916908373ffffffffffffffffffffffffffffffffffffffff16021790555081600281905550806003819055505050506108c48061009e6000396000f3006060604052600436106100ba576000357c0100000000000000000000000000000000000000000000000000000000900463ffffffff1680630eaad3f1146100bf5780630f53ba51146100e85780632e1a7d4d1461015d57806341b3d185146101805780637f073360146101a9578063b48eea44146101d2578063b6b55f2514610247578063bfa535c71461026a578063c18b8db4146102a1578063d9548e5314610328578063e7fb538814610363578063fc0c546a14610391575b600080fd5b34156100ca57600080fd5b6100d26103e6565b6040518082815260200191505060405180910390f35b34156100f357600080fd5b610143600480803590602001908201803590602001908080601f016020809104026020016040519081016040528093929190818152602001838380828437820191505050505050919050506103f0565b604051808215151515815260200191505060405180910390f35b341561016857600080fd5b61017e600480803590602001909190505061047b565b005b341561018b57600080fd5b61019361047e565b6040518082815260200191505060405180910390f35b34156101b457600080fd5b6101bc610484565b6040518082815260200191505060405180910390f35b34156101dd57600080fd5b61022d600480803590602001908201803590602001908080601f0160208091040260200160405190810160405280939291908181526020018383808284378201915050505050509190505061048a565b604051808215151515815260200191505060405180910390f35b341561025257600080fd5b6102686004808035906020019091905050610520565b005b341561027557600080fd5b61029f60048080359060200190820180359060200191909192908035906020019091905050610523565b005b34156102ac57600080fd5b6102c66004808035600019169060200190919050506107ff565b60405180868152602001851515151581526020018473ffffffffffffffffffffffffffffffffffffffff1673ffffffffffffffffffffffffffffffffffffffff1681526020018381526020018281526020019550505050505060405180910390f35b341561033357600080fd5b6103496004808035906020019091905050610862565b604051808215151515815260200191505060405180910390f35b341561036e57600080fd5b61038f6004808035906020019082018035906020019190919290505061086e565b005b341561039c57600080fd5b6103a4610872565b604051808273ffffffffffffffffffffffffffffffffffffffff1673ffffffffffffffffffffffffffffffffffffffff16815260200191505060405180910390f35b6000600254905090565b600080600080846040518082805190602001908083835b60208310151561042c5780518252602082019150602081019050602083039250610407565b6001836020036101000a03801982511681845116808217855250505050505090500191505060405180910390206000191660001916815260200190815260200160002060000154119050919050565b50565b60025481565b60035481565b6000806000836040518082805190602001908083835b6020831015156104c557805182526020820191506020810190506020830392506104a0565b6001836020036101000a03801982511681845116808217855250505050505090500191505060405180910390206000191660001916815260200190815260200160002060010160009054906101000a900460ff169050919050565b50565b600061056084848080601f01602080910402602001604051908101604052809392919081815260200183838082843782019150505050505061048a565b15151561056c57600080fd5b6105a784848080601f0160208091040260200160405190810160405280939291908181526020018383808284378201915050505050506103f0565b1515156105b357600080fd5b60025482101515156105c457600080fd5b6000808585604051808383808284378201915050925050506040518091039020600019166000191681526020019081526020016000209050338160010160016101000a81548173ffffffffffffffffffffffffffffffffffffffff021916908373ffffffffffffffffffffffffffffffffffffffff160217905550600160009054906101000a900473ffffffffffffffffffffffffffffffffffffffff1673ffffffffffffffffffffffffffffffffffffffff166323b872dd8260010160019054906101000a900473ffffffffffffffffffffffffffffffffffffffff1630856000604051602001526040518463ffffffff167c0100000000000000000000000000000000000000000000000000000000028152600401808473ffffffffffffffffffffffffffffffffffffffff1673ffffffffffffffffffffffffffffffffffffffff1681526020018373ffffffffffffffffffffffffffffffffffffffff1673ffffffffffffffffffffffffffffffffffffffff1681526020018281526020019350505050602060405180830381600087803b151561076457600080fd5b6102c65a03f1151561077557600080fd5b50505060405180519050151561078a57600080fd5b600354420181600001819055508181600201819055507f8679b3793e06c33189be2319d77a55df6769e3b9061611d27f1809b3d56d2e6884848460405180806020018381526020018281038252858582818152602001925080828437820191505094505050505060405180910390a150505050565b60006020528060005260406000206000915090508060000154908060010160009054906101000a900460ff16908060010160019054906101000a900473ffffffffffffffffffffffffffffffffffffffff16908060020154908060030154905085565b60004282109050919050565b5050565b600160009054906101000a900473ffffffffffffffffffffffffffffffffffffffff16815600a165627a7a7230582099f6d4e61e2457e74ea8ebf4a84aba948a6db48903be3867166294af2c87edf60029",
  "source": "pragma solidity ^0.4.18;\n\nimport \"./ParatiiToken.sol\";\n\n/// WARNING , NOT PRODUCTION READY, based on ADCHAIN Registry.\n/// THIS IS JUST A PLACEHOLDER..\ncontract TcrPlaceholder {\n\n  // Events\n  // ---------\n\n  event _Application(string videoId, uint deposit);\n\n  struct Listing {\n    uint applicationExpiry; // Expiration date of apply stage\n    bool whitelisted;       // registration status\n    address owner;          // Owner of the video.\n    uint unstakedDeposit;   // unlocked tokens\n    uint challengeID;       // ID of canonical challenge\n  }\n\n  // Maps of videoId Hashes to listing data.\n  mapping(bytes32 => Listing) public listings;\n\n  ParatiiToken public token;\n  uint public minDeposit;\n  uint public applyStageLen;\n\n  // ---------------------------------------------------------------------------\n  // CONSTRUCTOR\n  // ------------------\n\n  function TcrPlaceholder(\n    address _tokenAddr,\n    uint _minDeposit,\n    uint _applyStageLen\n  ) {\n    token = ParatiiToken(_tokenAddr);\n    minDeposit = _minDeposit;\n    applyStageLen = _applyStageLen; // 100 blocks.\n  }\n\n  // ---------------------------------------------------------------------------\n  // Video creator functions\n  //------------------------\n\n  /**\n   * allow video creator to apply for whitelisting for a video.\n   * @param  _videoId  the videoId\n   * @param  _amount   the amount to Stake\n   */\n  function apply(string _videoId, uint _amount) external {\n    require(!isWhitelisted(_videoId));\n    require(!appWasMade(_videoId));\n    require(_amount >= minDeposit);\n\n    // set owner\n    Listing storage listing = listings[keccak256(_videoId)];\n    listing.owner = msg.sender;\n\n    // transfer tokens from user to TcrPlaceholder contract\n    require(token.transferFrom(listing.owner, this, _amount));\n\n    // sets apply stage and end time.\n    listing.applicationExpiry = block.timestamp + applyStageLen;\n    listing.unstakedDeposit = _amount;\n\n    _Application(_videoId, _amount);\n  }\n\n  /**\n   * deposit an amount of tokens. (unstaked)\n   * @param  amount the amount to deposit\n   * @return {EVENT}      returns event log of deposit event.\n   */\n  function deposit(uint amount) external {\n\n  }\n\n  /**\n   * take out an amount of tokens from the unstaked tokens.\n   * @param  amount the amount to take out\n   */\n  function withdraw(uint amount) external {\n\n  }\n\n  /**\n   * allow video creator to remove a video from the listing and return tokens.\n   * @param  videoId videoId to remove\n   */\n  function exit(string videoId) external {\n\n  }\n\n  //----------------------------------------------------------------------------\n  //  Token HODLers functions\n  //--------------------------\n\n  // ---------------------------------------------------------------------------\n  // Utilities\n  //------------------------\n  /// @dev returns true if video is whitelisted\n  function isWhitelisted(string _videoId) constant public returns (bool whitelisted) {\n    return listings[keccak256(_videoId)].whitelisted;\n  }\n\n  // @dev returns true if apply was called for this video\n  function appWasMade(string _videoId) constant public returns (bool exists) {\n    return listings[keccak256(_videoId)].applicationExpiry > 0;\n  }\n\n  /// @dev returns true if the provided termDate has passed\n  function isExpired(uint _termDate) constant public returns (bool expired) {\n    return _termDate < block.timestamp;\n  }\n\n  function getMinDeposit() constant public returns (uint) {\n    return minDeposit;\n  }\n\n\n}\n",
  "sourcePath": "/media/op/w3/paratii/paratii-contracts/contracts/paratii/TcrPlaceholder.sol",
  "compiler": {
    "name": "solc",
    "version": "0.4.19+commit.c4cbbb05.Emscripten.clang"
  },
  "schemaVersion": "1.0.1",
  "updatedAt": "2018-02-16T21:37:48.278Z"
}