{
  "contractName": "TcrPlaceholder",
  "abi": [
    {
      "constant": true,
      "inputs": [],
      "name": "minDeposit",
      "outputs": [
        {
          "name": "",
          "type": "uint256"
        }
      ],
      "payable": false,
      "stateMutability": "view",
      "type": "function"
    },
    {
      "constant": true,
      "inputs": [],
      "name": "registry",
      "outputs": [
        {
          "name": "",
          "type": "address"
        }
      ],
      "payable": false,
      "stateMutability": "view",
      "type": "function"
    },
    {
      "constant": true,
      "inputs": [],
      "name": "applyStageLen",
      "outputs": [
        {
          "name": "",
          "type": "uint256"
        }
      ],
      "payable": false,
      "stateMutability": "view",
      "type": "function"
    },
    {
      "constant": true,
      "inputs": [],
      "name": "owner",
      "outputs": [
        {
          "name": "",
          "type": "address"
        }
      ],
      "payable": false,
      "stateMutability": "view",
      "type": "function"
    },
    {
      "constant": true,
      "inputs": [
        {
          "name": "",
          "type": "bytes32"
        }
      ],
      "name": "listings",
      "outputs": [
        {
          "name": "applicationExpiry",
          "type": "uint256"
        },
        {
          "name": "whitelisted",
          "type": "bool"
        },
        {
          "name": "owner",
          "type": "address"
        },
        {
          "name": "unstakedDeposit",
          "type": "uint256"
        },
        {
          "name": "challengeID",
          "type": "uint256"
        }
      ],
      "payable": false,
      "stateMutability": "view",
      "type": "function"
    },
    {
      "constant": false,
      "inputs": [
        {
          "name": "newOwner",
          "type": "address"
        }
      ],
      "name": "transferOwnership",
      "outputs": [],
      "payable": false,
      "stateMutability": "nonpayable",
      "type": "function"
    },
    {
      "constant": true,
      "inputs": [],
      "name": "token",
      "outputs": [
        {
          "name": "",
          "type": "address"
        }
      ],
      "payable": false,
      "stateMutability": "view",
      "type": "function"
    },
    {
      "inputs": [
        {
          "name": "_registry",
          "type": "address"
        },
        {
          "name": "_tokenAddr",
          "type": "address"
        },
        {
          "name": "_minDeposit",
          "type": "uint256"
        },
        {
          "name": "_applyStageLen",
          "type": "uint256"
        }
      ],
      "payable": false,
      "stateMutability": "nonpayable",
      "type": "constructor"
    },
    {
      "anonymous": false,
      "inputs": [
        {
          "indexed": false,
          "name": "videoId",
          "type": "string"
        },
        {
          "indexed": false,
          "name": "deposit",
          "type": "uint256"
        }
      ],
      "name": "_Application",
      "type": "event"
    },
    {
      "anonymous": false,
      "inputs": [
        {
          "indexed": false,
          "name": "videoId",
          "type": "string"
        }
      ],
      "name": "_NewVideoWhitelisted",
      "type": "event"
    },
    {
      "anonymous": false,
      "inputs": [
        {
          "indexed": true,
          "name": "previousOwner",
          "type": "address"
        },
        {
          "indexed": true,
          "name": "newOwner",
          "type": "address"
        }
      ],
      "name": "OwnershipTransferred",
      "type": "event"
    },
    {
      "constant": false,
      "inputs": [
        {
          "name": "_videoId",
          "type": "string"
        },
        {
          "name": "_amount",
          "type": "uint256"
        }
      ],
      "name": "apply",
      "outputs": [],
      "payable": false,
      "stateMutability": "nonpayable",
      "type": "function"
    },
    {
      "constant": false,
      "inputs": [
        {
          "name": "amount",
          "type": "uint256"
        }
      ],
      "name": "deposit",
      "outputs": [],
      "payable": false,
      "stateMutability": "nonpayable",
      "type": "function"
    },
    {
      "constant": false,
      "inputs": [
        {
          "name": "amount",
          "type": "uint256"
        }
      ],
      "name": "withdraw",
      "outputs": [],
      "payable": false,
      "stateMutability": "nonpayable",
      "type": "function"
    },
    {
      "constant": false,
      "inputs": [
        {
          "name": "_videoId",
          "type": "string"
        }
      ],
      "name": "exit",
      "outputs": [],
      "payable": false,
      "stateMutability": "nonpayable",
      "type": "function"
    },
    {
      "constant": false,
      "inputs": [
        {
          "name": "_videoId",
          "type": "string"
        }
      ],
      "name": "removeListing",
      "outputs": [],
      "payable": false,
      "stateMutability": "nonpayable",
      "type": "function"
    },
    {
      "constant": false,
      "inputs": [
        {
          "name": "_videoId",
          "type": "string"
        }
      ],
      "name": "updateStatus",
      "outputs": [],
      "payable": false,
      "stateMutability": "nonpayable",
      "type": "function"
    },
    {
      "constant": true,
      "inputs": [
        {
          "name": "_videoId",
          "type": "string"
        }
      ],
      "name": "isWhitelisted",
      "outputs": [
        {
          "name": "whitelisted",
          "type": "bool"
        }
      ],
      "payable": false,
      "stateMutability": "view",
      "type": "function"
    },
    {
      "constant": true,
      "inputs": [
        {
          "name": "_videoId",
          "type": "string"
        }
      ],
      "name": "appWasMade",
      "outputs": [
        {
          "name": "exists",
          "type": "bool"
        }
      ],
      "payable": false,
      "stateMutability": "view",
      "type": "function"
    },
    {
      "constant": true,
      "inputs": [
        {
          "name": "_termDate",
          "type": "uint256"
        }
      ],
      "name": "isExpired",
      "outputs": [
        {
          "name": "expired",
          "type": "bool"
        }
      ],
      "payable": false,
      "stateMutability": "view",
      "type": "function"
    },
    {
      "constant": true,
      "inputs": [],
      "name": "getMinDeposit",
      "outputs": [
        {
          "name": "",
          "type": "uint256"
        }
      ],
      "payable": false,
      "stateMutability": "view",
      "type": "function"
    },
    {
      "constant": true,
      "inputs": [
        {
          "name": "_videoId",
          "type": "string"
        }
      ],
      "name": "canBeWhitelisted",
      "outputs": [
        {
          "name": "",
          "type": "bool"
        }
      ],
      "payable": false,
      "stateMutability": "view",
      "type": "function"
    }
  ],
  "bytecode": "0x608060405234801561001057600080fd5b506040516080806114c683398101806040528101908080519060200190929190805190602001909291908051906020019092919080519060200190929190505050336000806101000a81548173ffffffffffffffffffffffffffffffffffffffff021916908373ffffffffffffffffffffffffffffffffffffffff160217905550336000806101000a81548173ffffffffffffffffffffffffffffffffffffffff021916908373ffffffffffffffffffffffffffffffffffffffff16021790555083600560006101000a81548173ffffffffffffffffffffffffffffffffffffffff021916908373ffffffffffffffffffffffffffffffffffffffff16021790555082600260006101000a81548173ffffffffffffffffffffffffffffffffffffffff021916908373ffffffffffffffffffffffffffffffffffffffff160217905550816003819055508060048190555050505050611352806101746000396000f3006080604052600436106100fc576000357c0100000000000000000000000000000000000000000000000000000000900463ffffffff1680630eaad3f1146101015780630f53ba511461012c5780632c215998146101ad5780632e1a7d4d1461021657806341b3d185146102435780635149606e1461026e5780637b103999146102d75780637f0733601461032e5780638da5cb5b14610359578063b48eea44146103b0578063b6b55f2514610431578063bfa535c71461045e578063c18b8db4146104a3578063c53c614d14610534578063d9548e53146105b5578063e7fb5388146105fa578063f2fde38b14610635578063fc0c546a14610678575b600080fd5b34801561010d57600080fd5b506101166106cf565b6040518082815260200191505060405180910390f35b34801561013857600080fd5b50610193600480360381019080803590602001908201803590602001908080601f01602080910402602001604051908101604052809392919081815260200183838082843782019150505050505091929192905050506106d9565b604051808215151515815260200191505060405180910390f35b3480156101b957600080fd5b50610214600480360381019080803590602001908201803590602001908080601f0160208091040260200160405190810160405280939291908181526020018383808284378201915050505050509192919290505050610765565b005b34801561022257600080fd5b5061024160048036038101908080359060200190929190505050610825565b005b34801561024f57600080fd5b50610258610828565b6040518082815260200191505060405180910390f35b34801561027a57600080fd5b506102d5600480360381019080803590602001908201803590602001908080601f016020809104026020016040519081016040528093929190818152602001838380828437820191505050505050919291929050505061082e565b005b3480156102e357600080fd5b506102ec610895565b604051808273ffffffffffffffffffffffffffffffffffffffff1673ffffffffffffffffffffffffffffffffffffffff16815260200191505060405180910390f35b34801561033a57600080fd5b506103436108bb565b6040518082815260200191505060405180910390f35b34801561036557600080fd5b5061036e6108c1565b604051808273ffffffffffffffffffffffffffffffffffffffff1673ffffffffffffffffffffffffffffffffffffffff16815260200191505060405180910390f35b3480156103bc57600080fd5b50610417600480360381019080803590602001908201803590602001908080601f01602080910402602001604051908101604052809392919081815260200183838082843782019150505050505091929192905050506108e6565b604051808215151515815260200191505060405180910390f35b34801561043d57600080fd5b5061045c6004803603810190808035906020019092919050505061097d565b005b34801561046a57600080fd5b506104a160048036038101908080359060200190820180359060200191909192939192939080359060200190929190505050610980565b005b3480156104af57600080fd5b506104d26004803603810190808035600019169060200190929190505050610c75565b60405180868152602001851515151581526020018473ffffffffffffffffffffffffffffffffffffffff1673ffffffffffffffffffffffffffffffffffffffff1681526020018381526020018281526020019550505050505060405180910390f35b34801561054057600080fd5b5061059b600480360381019080803590602001908201803590602001908080601f0160208091040260200160405190810160405280939291908181526020018383808284378201915050505050509192919290505050610cd8565b604051808215151515815260200191505060405180910390f35b3480156105c157600080fd5b506105e060048036038101908080359060200190929190505050610da3565b604051808215151515815260200191505060405180910390f35b34801561060657600080fd5b50610633600480360381019080803590602001908201803590602001919091929391929390505050610daf565b005b34801561064157600080fd5b50610676600480360381019080803573ffffffffffffffffffffffffffffffffffffffff169060200190929190505050610ece565b005b34801561068457600080fd5b5061068d611023565b604051808273ffffffffffffffffffffffffffffffffffffffff1673ffffffffffffffffffffffffffffffffffffffff16815260200191505060405180910390f35b6000600354905090565b60008060016000846040518082805190602001908083835b60208310151561071657805182526020820191506020810190506020830392506106f1565b6001836020036101000a03801982511681845116808217855250505050505090500191505060405180910390206000191660001916815260200190815260200160002060000154119050919050565b61076e81610cd8565b1561081d5761077c81611049565b7fc92324d3d33d8a562daa770a1055b75689efa4374d7c65f0a9b2f6b9f090d796816040518080602001828103825283818151815260200191508051906020019080838360005b838110156107de5780820151818401526020810190506107c3565b50505050905090810190601f16801561080b5780820380516001836020036101000a031916815260200191505b509250505060405180910390a1610822565b600080fd5b50565b50565b60035481565b6000809054906101000a900473ffffffffffffffffffffffffffffffffffffffff1673ffffffffffffffffffffffffffffffffffffffff163373ffffffffffffffffffffffffffffffffffffffff1614151561088957600080fd5b610892816110ea565b50565b600560009054906101000a900473ffffffffffffffffffffffffffffffffffffffff1681565b60045481565b6000809054906101000a900473ffffffffffffffffffffffffffffffffffffffff1681565b600060016000836040518082805190602001908083835b60208310151561092257805182526020820191506020810190506020830392506108fd565b6001836020036101000a03801982511681845116808217855250505050505090500191505060405180910390206000191660001916815260200190815260200160002060010160009054906101000a900460ff169050919050565b50565b60006109bd84848080601f0160208091040260200160405190810160405280939291908181526020018383808284378201915050505050506108e6565b1515156109c957600080fd5b610a0484848080601f0160208091040260200160405190810160405280939291908181526020018383808284378201915050505050506106d9565b151515610a1057600080fd5b6003548210151515610a2157600080fd5b600160008585604051808383808284378201915050925050506040518091039020600019166000191681526020019081526020016000209050338160010160016101000a81548173ffffffffffffffffffffffffffffffffffffffff021916908373ffffffffffffffffffffffffffffffffffffffff160217905550600260009054906101000a900473ffffffffffffffffffffffffffffffffffffffff1673ffffffffffffffffffffffffffffffffffffffff166323b872dd8260010160019054906101000a900473ffffffffffffffffffffffffffffffffffffffff1630856040518463ffffffff167c0100000000000000000000000000000000000000000000000000000000028152600401808473ffffffffffffffffffffffffffffffffffffffff1673ffffffffffffffffffffffffffffffffffffffff1681526020018373ffffffffffffffffffffffffffffffffffffffff1673ffffffffffffffffffffffffffffffffffffffff1681526020018281526020019350505050602060405180830381600087803b158015610bba57600080fd5b505af1158015610bce573d6000803e3d6000fd5b505050506040513d6020811015610be457600080fd5b81019080805190602001909291905050501515610c0057600080fd5b600454430181600001819055508181600201819055507f8679b3793e06c33189be2319d77a55df6769e3b9061611d27f1809b3d56d2e6884848460405180806020018381526020018281038252858582818152602001925080828437820191505094505050505060405180910390a150505050565b60016020528060005260406000206000915090508060000154908060010160009054906101000a900460ff16908060010160019054906101000a900473ffffffffffffffffffffffffffffffffffffffff16908060020154908060030154905085565b600080826040518082805190602001908083835b602083101515610d115780518252602082019150602081019050602083039250610cec565b6001836020036101000a03801982511681845116808217855250505050505090500191505060405180910390209050610d49836106d9565b8015610d785750610d7760016000836000191660001916815260200190815260200160002060000154610da3565b5b8015610d8a5750610d88836108e6565b155b15610d985760019150610d9d565b600091505b50919050565b60004382109050919050565b60006001600084846040518083838082843782019150509250505060405180910390206000191660001916815260200190815260200160002090508060010160019054906101000a900473ffffffffffffffffffffffffffffffffffffffff1673ffffffffffffffffffffffffffffffffffffffff163373ffffffffffffffffffffffffffffffffffffffff16141515610e4857600080fd5b610e8383838080601f0160208091040260200160405190810160405280939291908181526020018383808284378201915050505050506108e6565b1515610e8e57600080fd5b610ec983838080601f0160208091040260200160405190810160405280939291908181526020018383808284378201915050505050506110ea565b505050565b6000809054906101000a900473ffffffffffffffffffffffffffffffffffffffff1673ffffffffffffffffffffffffffffffffffffffff163373ffffffffffffffffffffffffffffffffffffffff16141515610f2957600080fd5b600073ffffffffffffffffffffffffffffffffffffffff168173ffffffffffffffffffffffffffffffffffffffff1614151515610f6557600080fd5b8073ffffffffffffffffffffffffffffffffffffffff166000809054906101000a900473ffffffffffffffffffffffffffffffffffffffff1673ffffffffffffffffffffffffffffffffffffffff167f8be0079c531659141344cd1fd0a4f28419497f9722a3daafe3b4186f6b6457e060405160405180910390a3806000806101000a81548173ffffffffffffffffffffffffffffffffffffffff021916908373ffffffffffffffffffffffffffffffffffffffff16021790555050565b600260009054906101000a900473ffffffffffffffffffffffffffffffffffffffff1681565b6000816040518082805190602001908083835b602083101515611081578051825260208201915060208101905060208303925061105c565b6001836020036101000a038019825116818451168082178552505050505050905001915050604051809103902090506001806000836000191660001916815260200190815260200160002060010160006101000a81548160ff0219169083151502179055505050565b600080826040518082805190602001908083835b60208310151561112357805182526020820191506020810190506020830392506110fe565b6001836020036101000a0380198251168184511680821785525050505050509050019150506040518091039020915060016000836000191660001916815260200190815260200160002090506000816002015411156112b057600260009054906101000a900473ffffffffffffffffffffffffffffffffffffffff1673ffffffffffffffffffffffffffffffffffffffff1663a9059cbb8260010160019054906101000a900473ffffffffffffffffffffffffffffffffffffffff1683600201546040518363ffffffff167c0100000000000000000000000000000000000000000000000000000000028152600401808373ffffffffffffffffffffffffffffffffffffffff1673ffffffffffffffffffffffffffffffffffffffff16815260200182815260200192505050602060405180830381600087803b15801561126957600080fd5b505af115801561127d573d6000803e3d6000fd5b505050506040513d602081101561129357600080fd5b810190808051906020019092919050505015156112af57600080fd5b5b6001600083600019166000191681526020019081526020016000206000808201600090556001820160006101000a81549060ff02191690556001820160016101000a81549073ffffffffffffffffffffffffffffffffffffffff02191690556002820160009055600382016000905550505050505600a165627a7a723058202246bedb2c2cb2ba7f860a1b3cee8868bc51462717b16e157cfced07ec2d109a0029",
  "source": "pragma solidity ^0.4.18;\n\nimport \"zeppelin-solidity/contracts/ownership/Ownable.sol\";\nimport \"./ParatiiToken.sol\";\nimport \"./Registry.sol\";\n\n/// WARNING , NOT PRODUCTION READY, based on ADCHAIN Registry.\n/// THIS IS JUST A PLACEHOLDER..\ncontract TcrPlaceholder is Ownable {\n\n    // Events\n    // ---------\n\n    event _Application(string videoId, uint deposit);\n    event _NewVideoWhitelisted(string videoId);\n\n    struct Listing {\n        uint applicationExpiry; // Expiration date of apply stage\n        bool whitelisted;       // registration status\n        address owner;          // Owner of the video.\n        uint unstakedDeposit;   // Number of tokens in the listing not locked in a challenge\n        uint challengeID;       // ID of canonical challenge\n    }\n\n    // Maps of videoId Hashes to listing data.\n    mapping(bytes32 => Listing) public listings;\n\n    ParatiiToken public token;\n    uint public minDeposit;\n    uint public applyStageLen;\n    Registry public registry;\n\n    // ---------------------------------------------------------------------------\n    // CONSTRUCTOR\n    // ------------------\n\n    constructor(\n        Registry _registry,\n        address _tokenAddr,\n        uint _minDeposit,\n        uint _applyStageLen\n    ) public {\n        owner = msg.sender;\n        registry = _registry;\n        token = ParatiiToken(_tokenAddr);\n        minDeposit = _minDeposit;\n        applyStageLen = _applyStageLen; // 100 blocks.\n    }\n\n    // ---------------------------------------------------------------------------\n    // Video creator functions\n    //------------------------\n\n    /**\n    * allow video creator to apply for whitelisting for a video.\n    * @param  _videoId  the videoId\n    * @param  _amount   the amount to Stake\n    */\n    function apply(string _videoId, uint _amount) external {\n        require(!isWhitelisted(_videoId));\n        require(!appWasMade(_videoId));\n        require(_amount >= minDeposit);\n\n        // set owner\n        Listing storage listing = listings[keccak256(_videoId)];\n        listing.owner = msg.sender;\n\n        // transfer tokens from user to TcrPlaceholder contract\n        require(token.transferFrom(listing.owner, this, _amount));\n\n        // sets apply stage and end time.\n        listing.applicationExpiry = block.number + applyStageLen;\n        listing.unstakedDeposit = _amount;\n\n        emit _Application(_videoId, _amount);\n    }\n\n    /**\n    * deposit an amount of tokens. (unstaked)\n    * @param  amount the amount to deposit\n    * @return {EVENT}      returns event log of deposit event.\n    */\n    function deposit(uint amount) external {\n\n    }\n\n    /**\n    * take out an amount of tokens from the unstaked tokens.\n    * @param  amount the amount to take out\n    */\n    function withdraw(uint amount) external {\n\n    }\n\n    /**\n    * allow video creator to remove a video from the listing and return tokens.\n    * @param  _videoId videoId to remove\n    */\n    function exit(string _videoId) external {\n        Listing storage listing = listings[keccak256(_videoId)];\n\n        require(msg.sender == listing.owner);\n        require(isWhitelisted(_videoId));\n\n        // Cannot exit during ongoing challenge\n        /* require(!challenges[listing.challengeID].isInitialized() ||\n                challenges[listing.challengeID].isResolved()); */\n\n        // Remove domain & return tokens\n        resetListing(_videoId);\n    }\n\n    /**\n    * remove a video , Only the TCR owner can do this.\n    * @param  _videoId id of the video to remove.\n    */\n    function removeListing(string _videoId) public onlyOwner {\n        resetListing(_videoId);\n    }\n\n    /**\n    @notice             Updates a videos's status from 'application' to 'listing'\n    @notice             or resolves a challenge if one exists.\n    @param _videoId      The videoId whose status is being updated\n    */\n    function updateStatus(string _videoId) public {\n        if (canBeWhitelisted(_videoId)) {\n            whitelistApplication(_videoId);\n            emit _NewVideoWhitelisted(_videoId);\n        } else {\n            revert();\n        }\n    }\n\n    /**\n    @dev Called by updateStatus() if the applicationExpiry date passed without a\n    challenge being made\n    @dev Called by resolveChallenge() if an application/listing beat a challenge.\n    @param _videoId The _videoId of an application/listing to be whitelisted\n    */\n    function whitelistApplication(string _videoId) private {\n        bytes32 videoHash = keccak256(_videoId);\n\n        listings[videoHash].whitelisted = true;\n    }\n\n    //----------------------------------------------------------------------------\n    //  Token HODLers functions\n    //--------------------------\n\n    // ---------------------------------------------------------------------------\n    // Utilities\n    //------------------------\n    /// @dev returns true if video is whitelisted\n    function isWhitelisted(string _videoId) view public returns (bool whitelisted) {\n        return listings[keccak256(_videoId)].whitelisted;\n    }\n\n    // @dev returns true if apply was called for this video\n    function appWasMade(string _videoId) view public returns (bool exists) {\n        return listings[keccak256(_videoId)].applicationExpiry > 0;\n    }\n\n    /// @dev returns true if the provided termDate has passed\n    function isExpired(uint _termDate) view public returns (bool expired) {\n        return _termDate < block.number;\n    }\n\n    function getMinDeposit() view public returns (uint) {\n        return minDeposit;\n    }\n\n    /**\n    @dev                Determines whether the video of an application can be whitelisted.\n    @param _videoId      The videoId whose status should be examined\n    */\n    function canBeWhitelisted(string _videoId) view public returns (bool) {\n        bytes32 videoHash = keccak256(_videoId);\n\n        // Ensures that the application was made,\n        // the application period has ended,\n        // the video can be whitelisted,\n        if (\n            appWasMade(_videoId) &&\n            isExpired(listings[videoHash].applicationExpiry) &&\n            !isWhitelisted(_videoId)\n        ) { return true; }\n\n        return false;\n    }\n\n    /**\n    @dev deletes a listing from the whitelist and transfers tokens back to owner\n    @param _videoId the videoId to be removed\n    */\n    function resetListing(string _videoId) private {\n        bytes32 videoHash = keccak256(_videoId);\n        Listing storage listing = listings[videoHash];\n\n        // Transfers any remaining balance back to the owner\n        if (listing.unstakedDeposit > 0)\n            require(token.transfer(listing.owner, listing.unstakedDeposit));\n\n        delete listings[videoHash];\n    }\n\n}\n",
  "sourcePath": "/home/ubuntu/workspace/paratii-contracts/contracts/paratii/TcrPlaceholder.sol",
  "compiler": {
    "name": "solc",
    "version": "0.4.24+commit.e67f0147.Emscripten.clang"
  },
  "schemaVersion": "2.0.1",
  "updatedAt": "2018-06-29T16:29:38.964Z"
}