{
  "contractName": "TcrPlaceholder",
  "abi": [
    {
      "constant": true,
      "inputs": [],
      "name": "minDeposit",
      "outputs": [
        {
          "name": "",
          "type": "uint256"
        }
      ],
      "payable": false,
      "stateMutability": "view",
      "type": "function"
    },
    {
      "constant": true,
      "inputs": [],
      "name": "registry",
      "outputs": [
        {
          "name": "",
          "type": "address"
        }
      ],
      "payable": false,
      "stateMutability": "view",
      "type": "function"
    },
    {
      "constant": true,
      "inputs": [],
      "name": "applyStageLen",
      "outputs": [
        {
          "name": "",
          "type": "uint256"
        }
      ],
      "payable": false,
      "stateMutability": "view",
      "type": "function"
    },
    {
      "constant": true,
      "inputs": [],
      "name": "owner",
      "outputs": [
        {
          "name": "",
          "type": "address"
        }
      ],
      "payable": false,
      "stateMutability": "view",
      "type": "function"
    },
    {
      "constant": true,
      "inputs": [
        {
          "name": "",
          "type": "bytes32"
        }
      ],
      "name": "listings",
      "outputs": [
        {
          "name": "applicationExpiry",
          "type": "uint256"
        },
        {
          "name": "whitelisted",
          "type": "bool"
        },
        {
          "name": "owner",
          "type": "address"
        },
        {
          "name": "unstakedDeposit",
          "type": "uint256"
        },
        {
          "name": "challengeID",
          "type": "uint256"
        }
      ],
      "payable": false,
      "stateMutability": "view",
      "type": "function"
    },
    {
      "constant": false,
      "inputs": [
        {
          "name": "newOwner",
          "type": "address"
        }
      ],
      "name": "transferOwnership",
      "outputs": [],
      "payable": false,
      "stateMutability": "nonpayable",
      "type": "function"
    },
    {
      "constant": true,
      "inputs": [],
      "name": "token",
      "outputs": [
        {
          "name": "",
          "type": "address"
        }
      ],
      "payable": false,
      "stateMutability": "view",
      "type": "function"
    },
    {
      "inputs": [
        {
          "name": "_registry",
          "type": "address"
        },
        {
          "name": "_tokenAddr",
          "type": "address"
        },
        {
          "name": "_minDeposit",
          "type": "uint256"
        },
        {
          "name": "_applyStageLen",
          "type": "uint256"
        }
      ],
      "payable": false,
      "stateMutability": "nonpayable",
      "type": "constructor"
    },
    {
      "anonymous": false,
      "inputs": [
        {
          "indexed": false,
          "name": "videoId",
          "type": "string"
        },
        {
          "indexed": false,
          "name": "deposit",
          "type": "uint256"
        }
      ],
      "name": "_Application",
      "type": "event"
    },
    {
      "anonymous": false,
      "inputs": [
        {
          "indexed": false,
          "name": "videoId",
          "type": "string"
        }
      ],
      "name": "_NewVideoWhitelisted",
      "type": "event"
    },
    {
      "anonymous": false,
      "inputs": [
        {
          "indexed": true,
          "name": "previousOwner",
          "type": "address"
        },
        {
          "indexed": true,
          "name": "newOwner",
          "type": "address"
        }
      ],
      "name": "OwnershipTransferred",
      "type": "event"
    },
    {
      "constant": false,
      "inputs": [
        {
          "name": "_videoId",
          "type": "string"
        },
        {
          "name": "_amount",
          "type": "uint256"
        }
      ],
      "name": "apply",
      "outputs": [],
      "payable": false,
      "stateMutability": "nonpayable",
      "type": "function"
    },
    {
      "constant": false,
      "inputs": [
        {
          "name": "amount",
          "type": "uint256"
        }
      ],
      "name": "deposit",
      "outputs": [],
      "payable": false,
      "stateMutability": "nonpayable",
      "type": "function"
    },
    {
      "constant": false,
      "inputs": [
        {
          "name": "amount",
          "type": "uint256"
        }
      ],
      "name": "withdraw",
      "outputs": [],
      "payable": false,
      "stateMutability": "nonpayable",
      "type": "function"
    },
    {
      "constant": false,
      "inputs": [
        {
          "name": "_videoId",
          "type": "string"
        }
      ],
      "name": "exit",
      "outputs": [],
      "payable": false,
      "stateMutability": "nonpayable",
      "type": "function"
    },
    {
      "constant": false,
      "inputs": [
        {
          "name": "_videoId",
          "type": "string"
        }
      ],
      "name": "removeListing",
      "outputs": [],
      "payable": false,
      "stateMutability": "nonpayable",
      "type": "function"
    },
    {
      "constant": false,
      "inputs": [
        {
          "name": "_videoId",
          "type": "string"
        }
      ],
      "name": "updateStatus",
      "outputs": [],
      "payable": false,
      "stateMutability": "nonpayable",
      "type": "function"
    },
    {
      "constant": true,
      "inputs": [
        {
          "name": "_videoId",
          "type": "string"
        }
      ],
      "name": "isWhitelisted",
      "outputs": [
        {
          "name": "whitelisted",
          "type": "bool"
        }
      ],
      "payable": false,
      "stateMutability": "view",
      "type": "function"
    },
    {
      "constant": true,
      "inputs": [
        {
          "name": "_videoId",
          "type": "string"
        }
      ],
      "name": "appWasMade",
      "outputs": [
        {
          "name": "exists",
          "type": "bool"
        }
      ],
      "payable": false,
      "stateMutability": "view",
      "type": "function"
    },
    {
      "constant": true,
      "inputs": [
        {
          "name": "_termDate",
          "type": "uint256"
        }
      ],
      "name": "isExpired",
      "outputs": [
        {
          "name": "expired",
          "type": "bool"
        }
      ],
      "payable": false,
      "stateMutability": "view",
      "type": "function"
    },
    {
      "constant": true,
      "inputs": [],
      "name": "getMinDeposit",
      "outputs": [
        {
          "name": "",
          "type": "uint256"
        }
      ],
      "payable": false,
      "stateMutability": "view",
      "type": "function"
    },
    {
      "constant": true,
      "inputs": [
        {
          "name": "_videoId",
          "type": "string"
        }
      ],
      "name": "canBeWhitelisted",
      "outputs": [
        {
          "name": "",
          "type": "bool"
        }
      ],
      "payable": false,
      "stateMutability": "view",
      "type": "function"
    }
  ],
  "bytecode": "0x6060604052341561000f57600080fd5b6040516080806113dc83398101604052808051906020019091908051906020019091908051906020019091908051906020019091905050336000806101000a81548173ffffffffffffffffffffffffffffffffffffffff021916908373ffffffffffffffffffffffffffffffffffffffff160217905550336000806101000a81548173ffffffffffffffffffffffffffffffffffffffff021916908373ffffffffffffffffffffffffffffffffffffffff16021790555083600560006101000a81548173ffffffffffffffffffffffffffffffffffffffff021916908373ffffffffffffffffffffffffffffffffffffffff16021790555082600260006101000a81548173ffffffffffffffffffffffffffffffffffffffff021916908373ffffffffffffffffffffffffffffffffffffffff160217905550816003819055508060048190555050505050611273806101696000396000f3006060604052600436106100fc576000357c0100000000000000000000000000000000000000000000000000000000900463ffffffff1680630eaad3f1146101015780630f53ba511461012a5780632c2159981461019f5780632e1a7d4d146101fc57806341b3d1851461021f5780635149606e146102485780637b103999146102a55780637f073360146102fa5780638da5cb5b14610323578063b48eea4414610378578063b6b55f25146103ed578063bfa535c714610410578063c18b8db414610447578063c53c614d146104ce578063d9548e5314610543578063e7fb53881461057e578063f2fde38b146105ac578063fc0c546a146105e5575b600080fd5b341561010c57600080fd5b61011461063a565b6040518082815260200191505060405180910390f35b341561013557600080fd5b610185600480803590602001908201803590602001908080601f01602080910402602001604051908101604052809392919081815260200183838082843782019150505050505091905050610644565b604051808215151515815260200191505060405180910390f35b34156101aa57600080fd5b6101fa600480803590602001908201803590602001908080601f016020809104026020016040519081016040528093929190818152602001838380828437820191505050505050919050506106d0565b005b341561020757600080fd5b61021d6004808035906020019091905050610790565b005b341561022a57600080fd5b610232610793565b6040518082815260200191505060405180910390f35b341561025357600080fd5b6102a3600480803590602001908201803590602001908080601f01602080910402602001604051908101604052809392919081815260200183838082843782019150505050505091905050610799565b005b34156102b057600080fd5b6102b8610800565b604051808273ffffffffffffffffffffffffffffffffffffffff1673ffffffffffffffffffffffffffffffffffffffff16815260200191505060405180910390f35b341561030557600080fd5b61030d610826565b6040518082815260200191505060405180910390f35b341561032e57600080fd5b61033661082c565b604051808273ffffffffffffffffffffffffffffffffffffffff1673ffffffffffffffffffffffffffffffffffffffff16815260200191505060405180910390f35b341561038357600080fd5b6103d3600480803590602001908201803590602001908080601f01602080910402602001604051908101604052809392919081815260200183838082843782019150505050505091905050610851565b604051808215151515815260200191505060405180910390f35b34156103f857600080fd5b61040e60048080359060200190919050506108e8565b005b341561041b57600080fd5b610445600480803590602001908201803590602001919091929080359060200190919050506108eb565b005b341561045257600080fd5b61046c600480803560001916906020019091905050610bbb565b60405180868152602001851515151581526020018473ffffffffffffffffffffffffffffffffffffffff1673ffffffffffffffffffffffffffffffffffffffff1681526020018381526020018281526020019550505050505060405180910390f35b34156104d957600080fd5b610529600480803590602001908201803590602001908080601f01602080910402602001604051908101604052809392919081815260200183838082843782019150505050505091905050610c1e565b604051808215151515815260200191505060405180910390f35b341561054e57600080fd5b6105646004808035906020019091905050610ce9565b604051808215151515815260200191505060405180910390f35b341561058957600080fd5b6105aa60048080359060200190820180359060200191909192905050610cf5565b005b34156105b757600080fd5b6105e3600480803573ffffffffffffffffffffffffffffffffffffffff16906020019091905050610e14565b005b34156105f057600080fd5b6105f8610f69565b604051808273ffffffffffffffffffffffffffffffffffffffff1673ffffffffffffffffffffffffffffffffffffffff16815260200191505060405180910390f35b6000600354905090565b60008060016000846040518082805190602001908083835b602083101515610681578051825260208201915060208101905060208303925061065c565b6001836020036101000a03801982511681845116808217855250505050505090500191505060405180910390206000191660001916815260200190815260200160002060000154119050919050565b6106d981610c1e565b15610788576106e781610f8f565b7fc92324d3d33d8a562daa770a1055b75689efa4374d7c65f0a9b2f6b9f090d796816040518080602001828103825283818151815260200191508051906020019080838360005b8381101561074957808201518184015260208101905061072e565b50505050905090810190601f1680156107765780820380516001836020036101000a031916815260200191505b509250505060405180910390a161078d565b600080fd5b50565b50565b60035481565b6000809054906101000a900473ffffffffffffffffffffffffffffffffffffffff1673ffffffffffffffffffffffffffffffffffffffff163373ffffffffffffffffffffffffffffffffffffffff161415156107f457600080fd5b6107fd81611030565b50565b600560009054906101000a900473ffffffffffffffffffffffffffffffffffffffff1681565b60045481565b6000809054906101000a900473ffffffffffffffffffffffffffffffffffffffff1681565b600060016000836040518082805190602001908083835b60208310151561088d5780518252602082019150602081019050602083039250610868565b6001836020036101000a03801982511681845116808217855250505050505090500191505060405180910390206000191660001916815260200190815260200160002060010160009054906101000a900460ff169050919050565b50565b600061092884848080601f016020809104026020016040519081016040528093929190818152602001838380828437820191505050505050610851565b15151561093457600080fd5b61096f84848080601f016020809104026020016040519081016040528093929190818152602001838380828437820191505050505050610644565b15151561097b57600080fd5b600354821015151561098c57600080fd5b600160008585604051808383808284378201915050925050506040518091039020600019166000191681526020019081526020016000209050338160010160016101000a81548173ffffffffffffffffffffffffffffffffffffffff021916908373ffffffffffffffffffffffffffffffffffffffff160217905550600260009054906101000a900473ffffffffffffffffffffffffffffffffffffffff1673ffffffffffffffffffffffffffffffffffffffff166323b872dd8260010160019054906101000a900473ffffffffffffffffffffffffffffffffffffffff1630856040518463ffffffff167c0100000000000000000000000000000000000000000000000000000000028152600401808473ffffffffffffffffffffffffffffffffffffffff1673ffffffffffffffffffffffffffffffffffffffff1681526020018373ffffffffffffffffffffffffffffffffffffffff1673ffffffffffffffffffffffffffffffffffffffff1681526020018281526020019350505050602060405180830381600087803b1515610b2457600080fd5b5af11515610b3157600080fd5b505050604051805190501515610b4657600080fd5b600454430181600001819055508181600201819055507f8679b3793e06c33189be2319d77a55df6769e3b9061611d27f1809b3d56d2e6884848460405180806020018381526020018281038252858582818152602001925080828437820191505094505050505060405180910390a150505050565b60016020528060005260406000206000915090508060000154908060010160009054906101000a900460ff16908060010160019054906101000a900473ffffffffffffffffffffffffffffffffffffffff16908060020154908060030154905085565b600080826040518082805190602001908083835b602083101515610c575780518252602082019150602081019050602083039250610c32565b6001836020036101000a03801982511681845116808217855250505050505090500191505060405180910390209050610c8f83610644565b8015610cbe5750610cbd60016000836000191660001916815260200190815260200160002060000154610ce9565b5b8015610cd05750610cce83610851565b155b15610cde5760019150610ce3565b600091505b50919050565b60004382109050919050565b60006001600084846040518083838082843782019150509250505060405180910390206000191660001916815260200190815260200160002090508060010160019054906101000a900473ffffffffffffffffffffffffffffffffffffffff1673ffffffffffffffffffffffffffffffffffffffff163373ffffffffffffffffffffffffffffffffffffffff16141515610d8e57600080fd5b610dc983838080601f016020809104026020016040519081016040528093929190818152602001838380828437820191505050505050610851565b1515610dd457600080fd5b610e0f83838080601f016020809104026020016040519081016040528093929190818152602001838380828437820191505050505050611030565b505050565b6000809054906101000a900473ffffffffffffffffffffffffffffffffffffffff1673ffffffffffffffffffffffffffffffffffffffff163373ffffffffffffffffffffffffffffffffffffffff16141515610e6f57600080fd5b600073ffffffffffffffffffffffffffffffffffffffff168173ffffffffffffffffffffffffffffffffffffffff1614151515610eab57600080fd5b8073ffffffffffffffffffffffffffffffffffffffff166000809054906101000a900473ffffffffffffffffffffffffffffffffffffffff1673ffffffffffffffffffffffffffffffffffffffff167f8be0079c531659141344cd1fd0a4f28419497f9722a3daafe3b4186f6b6457e060405160405180910390a3806000806101000a81548173ffffffffffffffffffffffffffffffffffffffff021916908373ffffffffffffffffffffffffffffffffffffffff16021790555050565b600260009054906101000a900473ffffffffffffffffffffffffffffffffffffffff1681565b6000816040518082805190602001908083835b602083101515610fc75780518252602082019150602081019050602083039250610fa2565b6001836020036101000a038019825116818451168082178552505050505050905001915050604051809103902090506001806000836000191660001916815260200190815260200160002060010160006101000a81548160ff0219169083151502179055505050565b600080826040518082805190602001908083835b6020831015156110695780518252602082019150602081019050602083039250611044565b6001836020036101000a0380198251168184511680821785525050505050509050019150506040518091039020915060016000836000191660001916815260200190815260200160002090506000816002015411156111d157600260009054906101000a900473ffffffffffffffffffffffffffffffffffffffff1673ffffffffffffffffffffffffffffffffffffffff1663a9059cbb8260010160019054906101000a900473ffffffffffffffffffffffffffffffffffffffff1683600201546040518363ffffffff167c0100000000000000000000000000000000000000000000000000000000028152600401808373ffffffffffffffffffffffffffffffffffffffff1673ffffffffffffffffffffffffffffffffffffffff16815260200182815260200192505050602060405180830381600087803b15156111ae57600080fd5b5af115156111bb57600080fd5b5050506040518051905015156111d057600080fd5b5b6001600083600019166000191681526020019081526020016000206000808201600090556001820160006101000a81549060ff02191690556001820160016101000a81549073ffffffffffffffffffffffffffffffffffffffff02191690556002820160009055600382016000905550505050505600a165627a7a72305820039609a16f8becd09c0bcfb430dcce49bdf2f9178e5a5deacc930a46ae3538b00029",
  "source": "pragma solidity ^0.4.18;\n\nimport \"zeppelin-solidity/contracts/ownership/Ownable.sol\";\nimport \"./ParatiiToken.sol\";\nimport './Registry.sol';\n\n/// WARNING , NOT PRODUCTION READY, based on ADCHAIN Registry.\n/// THIS IS JUST A PLACEHOLDER..\ncontract TcrPlaceholder is Ownable {\n\n  // Events\n  // ---------\n\n  event _Application(string videoId, uint deposit);\n  event _NewVideoWhitelisted(string videoId);\n\n  struct Listing {\n    uint applicationExpiry; // Expiration date of apply stage\n    bool whitelisted;       // registration status\n    address owner;          // Owner of the video.\n    uint unstakedDeposit;   // Number of tokens in the listing not locked in a challenge\n    uint challengeID;       // ID of canonical challenge\n  }\n\n  // Maps of videoId Hashes to listing data.\n  mapping(bytes32 => Listing) public listings;\n\n  ParatiiToken public token;\n  uint public minDeposit;\n  uint public applyStageLen;\n  Registry public registry;\n\n  // ---------------------------------------------------------------------------\n  // CONSTRUCTOR\n  // ------------------\n\n  function TcrPlaceholder(\n    Registry _registry,\n    address _tokenAddr,\n    uint _minDeposit,\n    uint _applyStageLen\n  ) {\n    owner = msg.sender;\n    registry = _registry;\n    token = ParatiiToken(_tokenAddr);\n    minDeposit = _minDeposit;\n    applyStageLen = _applyStageLen; // 100 blocks.\n  }\n\n  // ---------------------------------------------------------------------------\n  // Video creator functions\n  //------------------------\n\n  /**\n   * allow video creator to apply for whitelisting for a video.\n   * @param  _videoId  the videoId\n   * @param  _amount   the amount to Stake\n   */\n  function apply(string _videoId, uint _amount) external {\n    require(!isWhitelisted(_videoId));\n    require(!appWasMade(_videoId));\n    require(_amount >= minDeposit);\n\n    // set owner\n    Listing storage listing = listings[keccak256(_videoId)];\n    listing.owner = msg.sender;\n\n    // transfer tokens from user to TcrPlaceholder contract\n    require(token.transferFrom(listing.owner, this, _amount));\n\n    // sets apply stage and end time.\n    listing.applicationExpiry = block.number + applyStageLen;\n    listing.unstakedDeposit = _amount;\n\n    _Application(_videoId, _amount);\n  }\n\n  /**\n   * deposit an amount of tokens. (unstaked)\n   * @param  amount the amount to deposit\n   * @return {EVENT}      returns event log of deposit event.\n   */\n  function deposit(uint amount) external {\n\n  }\n\n  /**\n   * take out an amount of tokens from the unstaked tokens.\n   * @param  amount the amount to take out\n   */\n  function withdraw(uint amount) external {\n\n  }\n\n  /**\n   * allow video creator to remove a video from the listing and return tokens.\n   * @param  _videoId videoId to remove\n   */\n  function exit(string _videoId) external {\n    Listing storage listing = listings[keccak256(_videoId)];\n\n    require(msg.sender == listing.owner);\n    require(isWhitelisted(_videoId));\n\n    // Cannot exit during ongoing challenge\n    /* require(!challenges[listing.challengeID].isInitialized() ||\n            challenges[listing.challengeID].isResolved()); */\n\n    // Remove domain & return tokens\n    resetListing(_videoId);\n  }\n\n  /**\n   * remove a video , Only the TCR owner can do this.\n   * @param  _videoId id of the video to remove.\n   */\n  function removeListing(string _videoId) public onlyOwner {\n    resetListing(_videoId);\n  }\n\n  /**\n  @notice             Updates a videos's status from 'application' to 'listing'\n  @notice             or resolves a challenge if one exists.\n  @param _videoId      The videoId whose status is being updated\n  */\n  function updateStatus(string _videoId) public {\n    if (canBeWhitelisted(_videoId)) {\n      whitelistApplication(_videoId);\n      _NewVideoWhitelisted(_videoId);\n    } else {\n      revert();\n    }\n  }\n\n  /**\n  @dev Called by updateStatus() if the applicationExpiry date passed without a\n  challenge being made\n  @dev Called by resolveChallenge() if an application/listing beat a challenge.\n  @param _videoId The _videoId of an application/listing to be whitelisted\n  */\n  function whitelistApplication(string _videoId) private {\n    bytes32 videoHash = keccak256(_videoId);\n\n    listings[videoHash].whitelisted = true;\n  }\n\n  //----------------------------------------------------------------------------\n  //  Token HODLers functions\n  //--------------------------\n\n  // ---------------------------------------------------------------------------\n  // Utilities\n  //------------------------\n  /// @dev returns true if video is whitelisted\n  function isWhitelisted(string _videoId) constant public returns (bool whitelisted) {\n    return listings[keccak256(_videoId)].whitelisted;\n  }\n\n  // @dev returns true if apply was called for this video\n  function appWasMade(string _videoId) constant public returns (bool exists) {\n    return listings[keccak256(_videoId)].applicationExpiry > 0;\n  }\n\n  /// @dev returns true if the provided termDate has passed\n  function isExpired(uint _termDate) constant public returns (bool expired) {\n    return _termDate < block.number;\n  }\n\n  function getMinDeposit() constant public returns (uint) {\n    return minDeposit;\n  }\n\n  /**\n  @dev                Determines whether the video of an application can be whitelisted.\n  @param _videoId      The videoId whose status should be examined\n  */\n  function canBeWhitelisted(string _videoId) constant public returns (bool) {\n    bytes32 videoHash = keccak256(_videoId);\n\n    // Ensures that the application was made,\n    // the application period has ended,\n    // the video can be whitelisted,\n    if (\n        appWasMade(_videoId) &&\n        isExpired(listings[videoHash].applicationExpiry) &&\n        !isWhitelisted(_videoId)\n    ) { return true; }\n\n    return false;\n  }\n\n  /**\n  @dev deletes a listing from the whitelist and transfers tokens back to owner\n  @param _videoId the videoId to be removed\n  */\n  function resetListing(string _videoId) private {\n    bytes32 videoHash = keccak256(_videoId);\n    Listing storage listing = listings[videoHash];\n\n    // Transfers any remaining balance back to the owner\n    if (listing.unstakedDeposit > 0)\n        require(token.transfer(listing.owner, listing.unstakedDeposit));\n\n    delete listings[videoHash];\n  }\n\n}\n",
  "sourcePath": "/media/data2/projects/paratii/contracts/contracts/paratii/TcrPlaceholder.sol",
  "compiler": {
    "name": "solc",
    "version": "0.4.21+commit.dfe3193c.Emscripten.clang"
  },
  "schemaVersion": "2.0.0",
  "updatedAt": "2018-04-26T18:28:28.300Z"
}