{
  "contractName": "UserRegistry",
  "abi": [
    {
      "constant": false,
      "inputs": [
        {
          "name": "_videoId",
          "type": "string"
        },
        {
          "name": "_liked",
          "type": "bool"
        }
      ],
      "name": "likeVideo",
      "outputs": [],
      "payable": false,
      "type": "function",
      "stateMutability": "nonpayable"
    },
    {
      "constant": false,
      "inputs": [
        {
          "name": "_userAddress",
          "type": "address"
        }
      ],
      "name": "unregisterUser",
      "outputs": [],
      "payable": false,
      "type": "function",
      "stateMutability": "nonpayable"
    },
    {
      "constant": true,
      "inputs": [
        {
          "name": "_userAddress",
          "type": "address"
        },
        {
          "name": "_videoId",
          "type": "string"
        }
      ],
      "name": "userLikesVideo",
      "outputs": [
        {
          "name": "",
          "type": "bool"
        }
      ],
      "payable": false,
      "type": "function",
      "stateMutability": "view"
    },
    {
      "constant": true,
      "inputs": [
        {
          "name": "_userAddress",
          "type": "address"
        }
      ],
      "name": "getUserInfo",
      "outputs": [
        {
          "name": "",
          "type": "string"
        },
        {
          "name": "",
          "type": "string"
        },
        {
          "name": "",
          "type": "string"
        }
      ],
      "payable": false,
      "type": "function",
      "stateMutability": "view"
    },
    {
      "constant": false,
      "inputs": [
        {
          "name": "_videoId",
          "type": "string"
        },
        {
          "name": "_userAddress",
          "type": "address"
        }
      ],
      "name": "acquireVideo",
      "outputs": [],
      "payable": false,
      "type": "function",
      "stateMutability": "nonpayable"
    },
    {
      "constant": true,
      "inputs": [],
      "name": "owner",
      "outputs": [
        {
          "name": "",
          "type": "address"
        }
      ],
      "payable": false,
      "type": "function",
      "stateMutability": "view"
    },
    {
      "constant": true,
      "inputs": [
        {
          "name": "_userAddress",
          "type": "address"
        },
        {
          "name": "_videoId",
          "type": "string"
        }
      ],
      "name": "userDislikesVideo",
      "outputs": [
        {
          "name": "",
          "type": "bool"
        }
      ],
      "payable": false,
      "type": "function",
      "stateMutability": "view"
    },
    {
      "constant": true,
      "inputs": [
        {
          "name": "_userAddress",
          "type": "address"
        },
        {
          "name": "_videoId",
          "type": "string"
        }
      ],
      "name": "userAcquiredVideo",
      "outputs": [
        {
          "name": "",
          "type": "bool"
        }
      ],
      "payable": false,
      "type": "function",
      "stateMutability": "view"
    },
    {
      "constant": true,
      "inputs": [
        {
          "name": "",
          "type": "address"
        }
      ],
      "name": "users",
      "outputs": [
        {
          "name": "_address",
          "type": "address"
        },
        {
          "name": "name",
          "type": "string"
        },
        {
          "name": "email",
          "type": "string"
        },
        {
          "name": "avatar",
          "type": "string"
        }
      ],
      "payable": false,
      "type": "function",
      "stateMutability": "view"
    },
    {
      "constant": false,
      "inputs": [
        {
          "name": "newOwner",
          "type": "address"
        }
      ],
      "name": "transferOwnership",
      "outputs": [],
      "payable": false,
      "type": "function",
      "stateMutability": "nonpayable"
    },
    {
      "constant": false,
      "inputs": [
        {
          "name": "_userAddress",
          "type": "address"
        },
        {
          "name": "_name",
          "type": "string"
        },
        {
          "name": "_email",
          "type": "string"
        },
        {
          "name": "_avatar",
          "type": "string"
        }
      ],
      "name": "registerUser",
      "outputs": [],
      "payable": false,
      "type": "function",
      "stateMutability": "nonpayable"
    },
    {
      "inputs": [
        {
          "name": "_paratiiRegistry",
          "type": "address"
        }
      ],
      "payable": false,
      "type": "constructor",
      "stateMutability": "nonpayable"
    },
    {
      "anonymous": false,
      "inputs": [
        {
          "indexed": false,
          "name": "_address",
          "type": "address"
        },
        {
          "indexed": false,
          "name": "_name",
          "type": "string"
        },
        {
          "indexed": false,
          "name": "_email",
          "type": "string"
        },
        {
          "indexed": false,
          "name": "_avatar",
          "type": "string"
        }
      ],
      "name": "LogRegisterUser",
      "type": "event"
    },
    {
      "anonymous": false,
      "inputs": [
        {
          "indexed": false,
          "name": "_address",
          "type": "address"
        }
      ],
      "name": "LogUnregisterUser",
      "type": "event"
    },
    {
      "anonymous": false,
      "inputs": [
        {
          "indexed": false,
          "name": "_address",
          "type": "address"
        },
        {
          "indexed": false,
          "name": "_videoId",
          "type": "string"
        },
        {
          "indexed": false,
          "name": "_liked",
          "type": "bool"
        }
      ],
      "name": "LogLikeVideo",
      "type": "event"
    },
    {
      "anonymous": false,
      "inputs": [
        {
          "indexed": true,
          "name": "previousOwner",
          "type": "address"
        },
        {
          "indexed": true,
          "name": "newOwner",
          "type": "address"
        }
      ],
      "name": "OwnershipTransferred",
      "type": "event"
    }
  ],
  "bytecode": "0x6060604052341561000f57600080fd5b60405160208061210483398101604052808051906020019091905050336000806101000a81548173ffffffffffffffffffffffffffffffffffffffff021916908373ffffffffffffffffffffffffffffffffffffffff160217905550336000806101000a81548173ffffffffffffffffffffffffffffffffffffffff021916908373ffffffffffffffffffffffffffffffffffffffff16021790555080600160006101000a81548173ffffffffffffffffffffffffffffffffffffffff021916908373ffffffffffffffffffffffffffffffffffffffff160217905550600160009054906101000a900473ffffffffffffffffffffffffffffffffffffffff1673ffffffffffffffffffffffffffffffffffffffff1663358177736000604051602001526040518163ffffffff167c010000000000000000000000000000000000000000000000000000000002815260040180806020018281038252600d8152602001807f566964656f526567697374727900000000000000000000000000000000000000815250602001915050602060405180830381600087803b15156101b657600080fd5b6102c65a03f115156101c757600080fd5b50505060405180519050600260006101000a81548173ffffffffffffffffffffffffffffffffffffffff021916908373ffffffffffffffffffffffffffffffffffffffff16021790555050611ee3806102216000396000f3006060604052600436106100af576000357c0100000000000000000000000000000000000000000000000000000000900463ffffffff168063075ca0d3146100b457806321f2ca3b1461011c57806335068bef146101555780636386c1c7146101e9578063738e4895146103735780638da5cb5b146103ef5780638f886d9414610444578063a3c2bf78146104d8578063a87430ba1461056c578063f2fde38b14610780578063fe69c296146107b9575b600080fd5b34156100bf57600080fd5b61011a600480803590602001908201803590602001908080601f0160208091040260200160405190810160405280939291908181526020018383808284378201915050505050509190803515159060200190919050506108bb565b005b341561012757600080fd5b610153600480803573ffffffffffffffffffffffffffffffffffffffff16906020019091905050610e72565b005b341561016057600080fd5b6101cf600480803573ffffffffffffffffffffffffffffffffffffffff1690602001909190803590602001908201803590602001908080601f01602080910402602001604051908101604052809392919081815260200183838082843782019150505050505091905050610fb1565b604051808215151515815260200191505060405180910390f35b34156101f457600080fd5b610220600480803573ffffffffffffffffffffffffffffffffffffffff16906020019091905050611089565b60405180806020018060200180602001848103845287818151815260200191508051906020019080838360005b8381101561026857808201518184015260208101905061024d565b50505050905090810190601f1680156102955780820380516001836020036101000a031916815260200191505b50848103835286818151815260200191508051906020019080838360005b838110156102ce5780820151818401526020810190506102b3565b50505050905090810190601f1680156102fb5780820380516001836020036101000a031916815260200191505b50848103825285818151815260200191508051906020019080838360005b83811015610334578082015181840152602081019050610319565b50505050905090810190601f1680156103615780820380516001836020036101000a031916815260200191505b50965050505050505060405180910390f35b341561037e57600080fd5b6103ed600480803590602001908201803590602001908080601f0160208091040260200160405190810160405280939291908181526020018383808284378201915050505050509190803573ffffffffffffffffffffffffffffffffffffffff169060200190919050506112d2565b005b34156103fa57600080fd5b6104026115df565b604051808273ffffffffffffffffffffffffffffffffffffffff1673ffffffffffffffffffffffffffffffffffffffff16815260200191505060405180910390f35b341561044f57600080fd5b6104be600480803573ffffffffffffffffffffffffffffffffffffffff1690602001909190803590602001908201803590602001908080601f01602080910402602001604051908101604052809392919081815260200183838082843782019150505050505091905050611604565b604051808215151515815260200191505060405180910390f35b34156104e357600080fd5b610552600480803573ffffffffffffffffffffffffffffffffffffffff1690602001909190803590602001908201803590602001908080601f016020809104026020016040519081016040528093929190818152602001838380828437820191505050505050919050506116dc565b604051808215151515815260200191505060405180910390f35b341561057757600080fd5b6105a3600480803573ffffffffffffffffffffffffffffffffffffffff169060200190919050506117b4565b604051808573ffffffffffffffffffffffffffffffffffffffff1673ffffffffffffffffffffffffffffffffffffffff1681526020018060200180602001806020018481038452878181546001816001161561010002031660029004815260200191508054600181600116156101000203166002900480156106665780601f1061063b57610100808354040283529160200191610666565b820191906000526020600020905b81548152906001019060200180831161064957829003601f168201915b50508481038352868181546001816001161561010002031660029004815260200191508054600181600116156101000203166002900480156106e95780601f106106be576101008083540402835291602001916106e9565b820191906000526020600020905b8154815290600101906020018083116106cc57829003601f168201915b505084810382528581815460018160011615610100020316600290048152602001915080546001816001161561010002031660029004801561076c5780601f106107415761010080835404028352916020019161076c565b820191906000526020600020905b81548152906001019060200180831161074f57829003601f168201915b505097505050505050505060405180910390f35b341561078b57600080fd5b6107b7600480803573ffffffffffffffffffffffffffffffffffffffff16906020019091905050611801565b005b34156107c457600080fd5b6108b9600480803573ffffffffffffffffffffffffffffffffffffffff1690602001909190803590602001908201803590602001908080601f0160208091040260200160405190810160405280939291908181526020018383808284378201915050505050509190803590602001908201803590602001908080601f0160208091040260200160405190810160405280939291908181526020018383808284378201915050505050509190803590602001908201803590602001908080601f01602080910402602001604051908101604052809392919081815260200183838082843782019150505050505091905050611956565b005b600080836108c933826116dc565b15156108d457600080fd5b339250600360008473ffffffffffffffffffffffffffffffffffffffff1673ffffffffffffffffffffffffffffffffffffffff1681526020019081526020016000206005016000866040518082805190602001908083835b602083101515610951578051825260208201915060208101905060208303925061092c565b6001836020036101000a03801982511681845116808217855250505050505090500191505060405180910390206000191660001916815260200190815260200160002091506000826001015414156109ae576109ad85846112d2565b5b8380156109ca57508160000160019054906101000a900460ff16155b15610c0c5760018260000160016101000a81548160ff021916908315150217905550600260009054906101000a900473ffffffffffffffffffffffffffffffffffffffff1673ffffffffffffffffffffffffffffffffffffffff1663075ca0d3868460000160029054906101000a900460ff166040518363ffffffff167c0100000000000000000000000000000000000000000000000000000000028152600401808060200183151515158152602001828103825284818151815260200191508051906020019080838360005b83811015610ab2578082015181840152602081019050610a97565b50505050905090810190601f168015610adf5780820380516001836020036101000a031916815260200191505b509350505050600060405180830381600087803b1515610afe57600080fd5b6102c65a03f11515610b0f57600080fd5b50505060008260000160026101000a81548160ff0219169083151502179055507fa7f48f489e5528c34ca196632deb780c27875fcc3040ed926a744d67aa2d3054838686604051808473ffffffffffffffffffffffffffffffffffffffff1673ffffffffffffffffffffffffffffffffffffffff1681526020018060200183151515158152602001828103825284818151815260200191508051906020019080838360005b83811015610bcf578082015181840152602081019050610bb4565b50505050905090810190601f168015610bfc5780820380516001836020036101000a031916815260200191505b5094505050505060405180910390a15b83158015610c2957508160000160029054906101000a900460ff16155b15610e6b5760018260000160026101000a81548160ff021916908315150217905550600260009054906101000a900473ffffffffffffffffffffffffffffffffffffffff1673ffffffffffffffffffffffffffffffffffffffff166358439c74868460000160019054906101000a900460ff166040518363ffffffff167c0100000000000000000000000000000000000000000000000000000000028152600401808060200183151515158152602001828103825284818151815260200191508051906020019080838360005b83811015610d11578082015181840152602081019050610cf6565b50505050905090810190601f168015610d3e5780820380516001836020036101000a031916815260200191505b509350505050600060405180830381600087803b1515610d5d57600080fd5b6102c65a03f11515610d6e57600080fd5b50505060008260000160016101000a81548160ff0219169083151502179055507fa7f48f489e5528c34ca196632deb780c27875fcc3040ed926a744d67aa2d3054838686604051808473ffffffffffffffffffffffffffffffffffffffff1673ffffffffffffffffffffffffffffffffffffffff1681526020018060200183151515158152602001828103825284818151815260200191508051906020019080838360005b83811015610e2e578082015181840152602081019050610e13565b50505050905090810190601f168015610e5b5780820380516001836020036101000a031916815260200191505b5094505050505060405180910390a15b5050505050565b806000809054906101000a900473ffffffffffffffffffffffffffffffffffffffff1673ffffffffffffffffffffffffffffffffffffffff163373ffffffffffffffffffffffffffffffffffffffff161480610ef957508073ffffffffffffffffffffffffffffffffffffffff163373ffffffffffffffffffffffffffffffffffffffff16145b1515610f0457600080fd5b600360008373ffffffffffffffffffffffffffffffffffffffff1673ffffffffffffffffffffffffffffffffffffffff168152602001908152602001600020600080820160006101000a81549073ffffffffffffffffffffffffffffffffffffffff0219169055600182016000610f7b9190611cdd565b600282016000610f8b9190611cdd565b600382016000610f9b9190611cdd565b600482016000610fab9190611d25565b50505050565b6000600360008473ffffffffffffffffffffffffffffffffffffffff1673ffffffffffffffffffffffffffffffffffffffff1681526020019081526020016000206005016000836040518082805190602001908083835b60208310151561102d5780518252602082019150602081019050602083039250611008565b6001836020036101000a03801982511681845116808217855250505050505090500191505060405180910390206000191660001916815260200190815260200160002060000160019054906101000a900460ff16905092915050565b611091611d46565b611099611d46565b6110a1611d46565b6000600360008673ffffffffffffffffffffffffffffffffffffffff1673ffffffffffffffffffffffffffffffffffffffff1681526020019081526020016000209050806001018160020182600301828054600181600116156101000203166002900480601f0160208091040260200160405190810160405280929190818152602001828054600181600116156101000203166002900480156111855780601f1061115a57610100808354040283529160200191611185565b820191906000526020600020905b81548152906001019060200180831161116857829003601f168201915b50505050509250818054600181600116156101000203166002900480601f0160208091040260200160405190810160405280929190818152602001828054600181600116156101000203166002900480156112215780601f106111f657610100808354040283529160200191611221565b820191906000526020600020905b81548152906001019060200180831161120457829003601f168201915b50505050509150808054600181600116156101000203166002900480601f0160208091040260200160405190810160405280929190818152602001828054600181600116156101000203166002900480156112bd5780601f10611292576101008083540402835291602001916112bd565b820191906000526020600020905b8154815290600101906020018083116112a057829003601f168201915b50505050509050935093509350509193909250565b6000600360008373ffffffffffffffffffffffffffffffffffffffff1673ffffffffffffffffffffffffffffffffffffffff1681526020019081526020016000206005016000846040518082805190602001908083835b60208310151561134e5780518252602082019150602081019050602083039250611329565b6001836020036101000a0380198251168184511680821785525050505050509050019150506040518091039020600019166000191681526020019081526020016000209050600360008373ffffffffffffffffffffffffffffffffffffffff1673ffffffffffffffffffffffffffffffffffffffff16815260200190815260200160002060040180548060010182816113e79190611d5a565b91600052602060002090016000856040518082805190602001908083835b60208310151561142a5780518252602082019150602081019050602083039250611405565b6001836020036101000a0380198251168184511680821785525050505050509050019150506040518091039020909190915090600019169055816001018190555060018160000160006101000a81548160ff02191690831515021790555080600360008473ffffffffffffffffffffffffffffffffffffffff1673ffffffffffffffffffffffffffffffffffffffff1681526020019081526020016000206005016000856040518082805190602001908083835b60208310151561150357805182526020820191506020810190506020830392506114de565b6001836020036101000a0380198251168184511680821785525050505050509050019150506040518091039020600019166000191681526020019081526020016000206000820160009054906101000a900460ff168160000160006101000a81548160ff0219169083151502179055506000820160019054906101000a900460ff168160000160016101000a81548160ff0219169083151502179055506000820160029054906101000a900460ff168160000160026101000a81548160ff02191690831515021790555060018201548160010155905050505050565b6000809054906101000a900473ffffffffffffffffffffffffffffffffffffffff1681565b6000600360008473ffffffffffffffffffffffffffffffffffffffff1673ffffffffffffffffffffffffffffffffffffffff1681526020019081526020016000206005016000836040518082805190602001908083835b602083101515611680578051825260208201915060208101905060208303925061165b565b6001836020036101000a03801982511681845116808217855250505050505090500191505060405180910390206000191660001916815260200190815260200160002060000160029054906101000a900460ff16905092915050565b6000600360008473ffffffffffffffffffffffffffffffffffffffff1673ffffffffffffffffffffffffffffffffffffffff1681526020019081526020016000206005016000836040518082805190602001908083835b6020831015156117585780518252602082019150602081019050602083039250611733565b6001836020036101000a03801982511681845116808217855250505050505090500191505060405180910390206000191660001916815260200190815260200160002060000160009054906101000a900460ff16905092915050565b60036020528060005260406000206000915090508060000160009054906101000a900473ffffffffffffffffffffffffffffffffffffffff16908060010190806002019080600301905084565b6000809054906101000a900473ffffffffffffffffffffffffffffffffffffffff1673ffffffffffffffffffffffffffffffffffffffff163373ffffffffffffffffffffffffffffffffffffffff1614151561185c57600080fd5b600073ffffffffffffffffffffffffffffffffffffffff168173ffffffffffffffffffffffffffffffffffffffff161415151561189857600080fd5b8073ffffffffffffffffffffffffffffffffffffffff166000809054906101000a900473ffffffffffffffffffffffffffffffffffffffff1673ffffffffffffffffffffffffffffffffffffffff167f8be0079c531659141344cd1fd0a4f28419497f9722a3daafe3b4186f6b6457e060405160405180910390a3806000806101000a81548173ffffffffffffffffffffffffffffffffffffffff021916908373ffffffffffffffffffffffffffffffffffffffff16021790555050565b61195e611d86565b846000809054906101000a900473ffffffffffffffffffffffffffffffffffffffff1673ffffffffffffffffffffffffffffffffffffffff163373ffffffffffffffffffffffffffffffffffffffff1614806119e557508073ffffffffffffffffffffffffffffffffffffffff163373ffffffffffffffffffffffffffffffffffffffff16145b15156119f057600080fd5b60a0604051908101604052808773ffffffffffffffffffffffffffffffffffffffff16815260200186815260200185815260200184815260200183815250600360008873ffffffffffffffffffffffffffffffffffffffff1673ffffffffffffffffffffffffffffffffffffffff16815260200190815260200160002060008201518160000160006101000a81548173ffffffffffffffffffffffffffffffffffffffff021916908373ffffffffffffffffffffffffffffffffffffffff1602179055506020820151816001019080519060200190611ad0929190611d9a565b506040820151816002019080519060200190611aed929190611d9a565b506060820151816003019080519060200190611b0a929190611d9a565b506080820151816004019080519060200190611b27929190611e1a565b509050507ff117536054803dace91448812cfc230b47e2b0c8098d0e22d3aa442be1d57e9786868686604051808573ffffffffffffffffffffffffffffffffffffffff1673ffffffffffffffffffffffffffffffffffffffff168152602001806020018060200180602001848103845287818151815260200191508051906020019080838360005b83811015611bca578082015181840152602081019050611baf565b50505050905090810190601f168015611bf75780820380516001836020036101000a031916815260200191505b50848103835286818151815260200191508051906020019080838360005b83811015611c30578082015181840152602081019050611c15565b50505050905090810190601f168015611c5d5780820380516001836020036101000a031916815260200191505b50848103825285818151815260200191508051906020019080838360005b83811015611c96578082015181840152602081019050611c7b565b50505050905090810190601f168015611cc35780820380516001836020036101000a031916815260200191505b5097505050505050505060405180910390a1505050505050565b50805460018160011615610100020316600290046000825580601f10611d035750611d22565b601f016020900490600052602060002090810190611d219190611e6d565b5b50565b5080546000825590600052602060002090810190611d439190611e92565b50565b602060405190810160405280600081525090565b815481835581811511611d8157818360005260206000209182019101611d809190611e92565b5b505050565b602060405190810160405280600081525090565b828054600181600116156101000203166002900490600052602060002090601f016020900481019282601f10611ddb57805160ff1916838001178555611e09565b82800160010185558215611e09579182015b82811115611e08578251825591602001919060010190611ded565b5b509050611e169190611e6d565b5090565b828054828255906000526020600020908101928215611e5c579160200282015b82811115611e5b578251829060001916905591602001919060010190611e3a565b5b509050611e699190611e92565b5090565b611e8f91905b80821115611e8b576000816000905550600101611e73565b5090565b90565b611eb491905b80821115611eb0576000816000905550600101611e98565b5090565b905600a165627a7a72305820338364d9cb14acd506c2e38fb5abc3cfaa77e6a0a8271c401c2ceb55bfff521e0029",
  "source": "pragma solidity ^0.4.18;\n\nimport \"zeppelin-solidity/contracts/ownership/Ownable.sol\";\nimport './VideoRegistry.sol';\nimport './ParatiiRegistry.sol';\n\ncontract UserRegistry is Ownable {\n\n    ParatiiRegistry paratiiRegistry;\n    VideoRegistry videoRegistry;\n\n    struct VideoInfo { // user-related information about this video\n      bool isAcquired; // did the user buy this video?\n      bool liked; // did the user like this video\n      bool disliked; // did the user dislike this video\n      uint _index; // index in the UserInfo.videosIndex\n    }\n\n    struct UserInfo {\n      address _address;\n      string name;\n      string email;\n      string avatar;\n      bytes32[] videoIndex; // the videos this user has seen\n      mapping (bytes32 => VideoInfo) videos; // information about these vids\n    }\n\n    mapping (address=>UserInfo) public users;\n\n    event LogRegisterUser(address _address, string _name, string _email, string _avatar);\n    event LogUnregisterUser(address _address);\n    event LogLikeVideo(address _address, string _videoId, bool _liked);\n\n    modifier onlyOwnerOrUser(address _address) {\n      require(msg.sender == owner || msg.sender == _address);\n      _;\n    }\n\n    modifier isAcquired(string _videoId) {\n        require(userAcquiredVideo(msg.sender, _videoId));\n        _;\n    }\n\n    function UserRegistry(ParatiiRegistry _paratiiRegistry) {\n        owner = msg.sender;\n        paratiiRegistry = _paratiiRegistry;\n        videoRegistry = VideoRegistry(paratiiRegistry.getContract(\"VideoRegistry\"));\n    }\n\n    function registerUser(address _userAddress, string _name, string _email, string _avatar) onlyOwnerOrUser(_userAddress) {\n      bytes32[] memory emptyIndex;\n      users[_userAddress] =  UserInfo({\n          _address: _userAddress,\n          name: _name,\n          email: _email,\n          avatar: _avatar,\n          videoIndex: emptyIndex\n      });\n\n      LogRegisterUser(_userAddress, _name, _email, _avatar);\n    }\n\n    function unregisterUser(address _userAddress) public onlyOwnerOrUser(_userAddress) {\n        delete users[_userAddress];\n    }\n\n    function getUserInfo(address _userAddress) constant returns(string, string, string) {\n      UserInfo storage userInfo = users[_userAddress];\n      return (userInfo.name, userInfo.email, userInfo.avatar);\n    }\n\n    function acquireVideo(string _videoId, address _userAddress) {\n      VideoInfo storage video = users[_userAddress].videos[keccak256(_videoId)];\n      video._index = users[_userAddress].videoIndex.push(keccak256(_videoId));\n      video.isAcquired = true;\n      users[_userAddress].videos[keccak256(_videoId)] = video;\n    }\n\n    /* like/dislike a video.\n     * @param like If true, register a like, if false, register a dislike\n     */\n    function likeVideo(string _videoId, bool _liked) isAcquired(_videoId) {\n      address _userAddress = msg.sender;\n      VideoInfo storage video = users[_userAddress].videos[keccak256(_videoId)];\n\n      // if the video is not known yet\n      if (video._index == 0) {\n        acquireVideo(_videoId, _userAddress);\n      }\n\n      if (_liked && !video.liked) {\n        video.liked = true;\n        videoRegistry.likeVideo(_videoId, video.disliked);\n        video.disliked = false;\n        LogLikeVideo(_userAddress, _videoId, _liked);\n      }\n\n      if (!_liked && !video.disliked) {\n        video.disliked = true;\n        videoRegistry.dislikeVideo(_videoId, video.liked);\n        video.liked = false;\n        LogLikeVideo(_userAddress, _videoId, _liked);\n      }\n    }\n\n    function userLikesVideo(address _userAddress, string _videoId) constant returns(bool) {\n      return users[_userAddress].videos[keccak256(_videoId)].liked;\n    }\n\n    function userDislikesVideo(address _userAddress, string _videoId) constant returns (bool) {\n      return users[_userAddress].videos[keccak256(_videoId)].disliked;\n    }\n\n    function userAcquiredVideo(address _userAddress, string _videoId) constant returns(bool) {\n      return users[_userAddress].videos[keccak256(_videoId)].isAcquired;\n    }\n}\n",
  "sourcePath": "/media/data/projects/paratii/paratii-contracts/contracts/paratii/UserRegistry.sol",
  "compiler": {
    "name": "solc",
    "version": "0.4.18+commit.9cf6e910.Emscripten.clang"
  },
  "schemaVersion": "1.0.1",
  "updatedAt": "2017-11-22T12:02:29.529Z"
}