{
  "contractName": "Users",
  "abi": [
    {
      "constant": true,
      "inputs": [],
      "name": "owner",
      "outputs": [
        {
          "name": "",
          "type": "address"
        }
      ],
      "payable": false,
      "stateMutability": "view",
      "type": "function"
    },
    {
      "constant": true,
      "inputs": [
        {
          "name": "",
          "type": "address"
        }
      ],
      "name": "users",
      "outputs": [
        {
          "name": "name",
          "type": "string"
        },
        {
          "name": "email",
          "type": "string"
        },
        {
          "name": "ipfsData",
          "type": "string"
        }
      ],
      "payable": false,
      "stateMutability": "view",
      "type": "function"
    },
    {
      "constant": false,
      "inputs": [
        {
          "name": "newOwner",
          "type": "address"
        }
      ],
      "name": "transferOwnership",
      "outputs": [],
      "payable": false,
      "stateMutability": "nonpayable",
      "type": "function"
    },
    {
      "inputs": [
        {
          "name": "_registry",
          "type": "address"
        }
      ],
      "payable": false,
      "stateMutability": "nonpayable",
      "type": "constructor"
    },
    {
      "anonymous": false,
      "inputs": [
        {
          "indexed": true,
          "name": "_address",
          "type": "address"
        },
        {
          "indexed": false,
          "name": "_name",
          "type": "string"
        },
        {
          "indexed": false,
          "name": "_email",
          "type": "string"
        },
        {
          "indexed": false,
          "name": "_ipfsData",
          "type": "string"
        }
      ],
      "name": "LogCreateUser",
      "type": "event"
    },
    {
      "anonymous": false,
      "inputs": [
        {
          "indexed": true,
          "name": "_address",
          "type": "address"
        }
      ],
      "name": "LogRemoveUser",
      "type": "event"
    },
    {
      "anonymous": false,
      "inputs": [
        {
          "indexed": true,
          "name": "previousOwner",
          "type": "address"
        },
        {
          "indexed": true,
          "name": "newOwner",
          "type": "address"
        }
      ],
      "name": "OwnershipTransferred",
      "type": "event"
    },
    {
      "constant": false,
      "inputs": [
        {
          "name": "_address",
          "type": "address"
        },
        {
          "name": "_name",
          "type": "string"
        },
        {
          "name": "_email",
          "type": "string"
        },
        {
          "name": "_ipfsData",
          "type": "string"
        }
      ],
      "name": "create",
      "outputs": [],
      "payable": false,
      "stateMutability": "nonpayable",
      "type": "function"
    },
    {
      "constant": false,
      "inputs": [
        {
          "name": "_address",
          "type": "address"
        }
      ],
      "name": "remove",
      "outputs": [],
      "payable": false,
      "stateMutability": "nonpayable",
      "type": "function"
    },
    {
      "constant": true,
      "inputs": [
        {
          "name": "_address",
          "type": "address"
        }
      ],
      "name": "get",
      "outputs": [
        {
          "name": "",
          "type": "string"
        },
        {
          "name": "",
          "type": "string"
        },
        {
          "name": "",
          "type": "string"
        }
      ],
      "payable": false,
      "stateMutability": "view",
      "type": "function"
    }
  ],
  "bytecode": "0x6060604052341561000f57600080fd5b60405160208061115e83398101604052808051906020019091905050336000806101000a81548173ffffffffffffffffffffffffffffffffffffffff021916908373ffffffffffffffffffffffffffffffffffffffff160217905550336000806101000a81548173ffffffffffffffffffffffffffffffffffffffff021916908373ffffffffffffffffffffffffffffffffffffffff16021790555080600160006101000a81548173ffffffffffffffffffffffffffffffffffffffff021916908373ffffffffffffffffffffffffffffffffffffffff16021790555050611062806100fc6000396000f300606060405260043610610078576000357c0100000000000000000000000000000000000000000000000000000000900463ffffffff16806329092d0e1461007d57806358192547146100b65780638da5cb5b146101b8578063a87430ba1461020d578063c2bc2efc14610397578063f2fde38b14610521575b600080fd5b341561008857600080fd5b6100b4600480803573ffffffffffffffffffffffffffffffffffffffff1690602001909190505061055a565b005b34156100c157600080fd5b6101b6600480803573ffffffffffffffffffffffffffffffffffffffff1690602001909190803590602001908201803590602001908080601f0160208091040260200160405190810160405280939291908181526020018383808284378201915050505050509190803590602001908201803590602001908080601f0160208091040260200160405190810160405280939291908181526020018383808284378201915050505050509190803590602001908201803590602001908080601f016020809104026020016040519081016040528093929190818152602001838380828437820191505050505050919050506106a5565b005b34156101c357600080fd5b6101cb610980565b604051808273ffffffffffffffffffffffffffffffffffffffff1673ffffffffffffffffffffffffffffffffffffffff16815260200191505060405180910390f35b341561021857600080fd5b610244600480803573ffffffffffffffffffffffffffffffffffffffff169060200190919050506109a5565b60405180806020018060200180602001848103845287818151815260200191508051906020019080838360005b8381101561028c578082015181840152602081019050610271565b50505050905090810190601f1680156102b95780820380516001836020036101000a031916815260200191505b50848103835286818151815260200191508051906020019080838360005b838110156102f25780820151818401526020810190506102d7565b50505050905090810190601f16801561031f5780820380516001836020036101000a031916815260200191505b50848103825285818151815260200191508051906020019080838360005b8381101561035857808201518184015260208101905061033d565b50505050905090810190601f1680156103855780820380516001836020036101000a031916815260200191505b50965050505050505060405180910390f35b34156103a257600080fd5b6103ce600480803573ffffffffffffffffffffffffffffffffffffffff16906020019091905050610b97565b60405180806020018060200180602001848103845287818151815260200191508051906020019080838360005b838110156104165780820151818401526020810190506103fb565b50505050905090810190601f1680156104435780820380516001836020036101000a031916815260200191505b50848103835286818151815260200191508051906020019080838360005b8381101561047c578082015181840152602081019050610461565b50505050905090810190601f1680156104a95780820380516001836020036101000a031916815260200191505b50848103825285818151815260200191508051906020019080838360005b838110156104e25780820151818401526020810190506104c7565b50505050905090810190601f16801561050f5780820380516001836020036101000a031916815260200191505b50965050505050505060405180910390f35b341561052c57600080fd5b610558600480803573ffffffffffffffffffffffffffffffffffffffff16906020019091905050610de0565b005b806000809054906101000a900473ffffffffffffffffffffffffffffffffffffffff1673ffffffffffffffffffffffffffffffffffffffff163373ffffffffffffffffffffffffffffffffffffffff1614806105e157508073ffffffffffffffffffffffffffffffffffffffff163373ffffffffffffffffffffffffffffffffffffffff16145b15156105ec57600080fd5b600260008373ffffffffffffffffffffffffffffffffffffffff1673ffffffffffffffffffffffffffffffffffffffff1681526020019081526020016000206000808201600061063c9190610f35565b60018201600061064c9190610f35565b60028201600061065c9190610f35565b50508173ffffffffffffffffffffffffffffffffffffffff167f55851df80c45c1f97f20eea833f78ef3d130c5a10c8fc9c7ee1c7f1612b5c5b160405160405180910390a25050565b836000809054906101000a900473ffffffffffffffffffffffffffffffffffffffff1673ffffffffffffffffffffffffffffffffffffffff163373ffffffffffffffffffffffffffffffffffffffff16148061072c57508073ffffffffffffffffffffffffffffffffffffffff163373ffffffffffffffffffffffffffffffffffffffff16145b151561073757600080fd5b60606040519081016040528085815260200184815260200183815250600260008773ffffffffffffffffffffffffffffffffffffffff1673ffffffffffffffffffffffffffffffffffffffff16815260200190815260200160002060008201518160000190805190602001906107ae929190610f7d565b5060208201518160010190805190602001906107cb929190610f7d565b5060408201518160020190805190602001906107e8929190610f7d565b509050508473ffffffffffffffffffffffffffffffffffffffff167fba99562563f525f7262c85e26d4cc59ed7bc12b61f8c070b57cb400fa8e6a9b885858560405180806020018060200180602001848103845287818151815260200191508051906020019080838360005b8381101561086f578082015181840152602081019050610854565b50505050905090810190601f16801561089c5780820380516001836020036101000a031916815260200191505b50848103835286818151815260200191508051906020019080838360005b838110156108d55780820151818401526020810190506108ba565b50505050905090810190601f1680156109025780820380516001836020036101000a031916815260200191505b50848103825285818151815260200191508051906020019080838360005b8381101561093b578082015181840152602081019050610920565b50505050905090810190601f1680156109685780820380516001836020036101000a031916815260200191505b50965050505050505060405180910390a25050505050565b6000809054906101000a900473ffffffffffffffffffffffffffffffffffffffff1681565b6002602052806000526040600020600091509050806000018054600181600116156101000203166002900480601f016020809104026020016040519081016040528092919081815260200182805460018160011615610100020316600290048015610a515780601f10610a2657610100808354040283529160200191610a51565b820191906000526020600020905b815481529060010190602001808311610a3457829003601f168201915b505050505090806001018054600181600116156101000203166002900480601f016020809104026020016040519081016040528092919081815260200182805460018160011615610100020316600290048015610aef5780601f10610ac457610100808354040283529160200191610aef565b820191906000526020600020905b815481529060010190602001808311610ad257829003601f168201915b505050505090806002018054600181600116156101000203166002900480601f016020809104026020016040519081016040528092919081815260200182805460018160011615610100020316600290048015610b8d5780601f10610b6257610100808354040283529160200191610b8d565b820191906000526020600020905b815481529060010190602001808311610b7057829003601f168201915b5050505050905083565b610b9f610ffd565b610ba7610ffd565b610baf610ffd565b6000600260008673ffffffffffffffffffffffffffffffffffffffff1673ffffffffffffffffffffffffffffffffffffffff1681526020019081526020016000209050806000018160010182600201828054600181600116156101000203166002900480601f016020809104026020016040519081016040528092919081815260200182805460018160011615610100020316600290048015610c935780601f10610c6857610100808354040283529160200191610c93565b820191906000526020600020905b815481529060010190602001808311610c7657829003601f168201915b50505050509250818054600181600116156101000203166002900480601f016020809104026020016040519081016040528092919081815260200182805460018160011615610100020316600290048015610d2f5780601f10610d0457610100808354040283529160200191610d2f565b820191906000526020600020905b815481529060010190602001808311610d1257829003601f168201915b50505050509150808054600181600116156101000203166002900480601f016020809104026020016040519081016040528092919081815260200182805460018160011615610100020316600290048015610dcb5780601f10610da057610100808354040283529160200191610dcb565b820191906000526020600020905b815481529060010190602001808311610dae57829003601f168201915b50505050509050935093509350509193909250565b6000809054906101000a900473ffffffffffffffffffffffffffffffffffffffff1673ffffffffffffffffffffffffffffffffffffffff163373ffffffffffffffffffffffffffffffffffffffff16141515610e3b57600080fd5b600073ffffffffffffffffffffffffffffffffffffffff168173ffffffffffffffffffffffffffffffffffffffff1614151515610e7757600080fd5b8073ffffffffffffffffffffffffffffffffffffffff166000809054906101000a900473ffffffffffffffffffffffffffffffffffffffff1673ffffffffffffffffffffffffffffffffffffffff167f8be0079c531659141344cd1fd0a4f28419497f9722a3daafe3b4186f6b6457e060405160405180910390a3806000806101000a81548173ffffffffffffffffffffffffffffffffffffffff021916908373ffffffffffffffffffffffffffffffffffffffff16021790555050565b50805460018160011615610100020316600290046000825580601f10610f5b5750610f7a565b601f016020900490600052602060002090810190610f799190611011565b5b50565b828054600181600116156101000203166002900490600052602060002090601f016020900481019282601f10610fbe57805160ff1916838001178555610fec565b82800160010185558215610fec579182015b82811115610feb578251825591602001919060010190610fd0565b5b509050610ff99190611011565b5090565b602060405190810160405280600081525090565b61103391905b8082111561102f576000816000905550600101611017565b5090565b905600a165627a7a72305820cf4da3ce077aae63259220da5edaafbe2ea97118e00fb3d65bd59b74ac6388de0029",
  "source": "pragma solidity ^0.4.18;\n\nimport \"zeppelin-solidity/contracts/ownership/Ownable.sol\";\nimport './Registry.sol';\n\ncontract Users is Ownable {\n\n    Registry registry;\n\n    struct UserInfo {\n      string name;\n      string email;\n      string ipfsData;\n    }\n\n    mapping (address=>UserInfo) public users;\n\n    event LogCreateUser(\n      address indexed _address,\n      string _name,\n      string _email,\n      string _ipfsData\n    );\n\n    event LogRemoveUser(address indexed _address);\n\n    modifier onlyOwnerOrUser(address _address) {\n      require(msg.sender == owner || msg.sender == _address);\n      _;\n    }\n\n    function Users(Registry _registry) public {\n        owner = msg.sender;\n        registry = _registry;\n    }\n\n    /**\n     * @dev Register a new user\n     * @param _address - the ethereum address of the user\n     * @param _name - the name of the user\n     * @param _email - the email address of the user\n     * @param _ipfsData - the hash of a JSON file with data of the video\n     */\n    function create(\n      address _address,\n      string _name,\n      string _email,\n      string _ipfsData\n    ) public onlyOwnerOrUser(_address) {\n      users[_address] =  UserInfo({\n          name: _name,\n          email: _email,\n          ipfsData: _ipfsData\n      });\n\n      LogCreateUser(_address, _name, _email, _ipfsData);\n    }\n\n    /**\n     * @dev unregister a User\n     * Deletes the data of the user from users\n     * @param _address the address of the user to be unregistered\n     */\n    function remove(address _address) public onlyOwnerOrUser(_address) {\n        delete users[_address];\n        LogRemoveUser(_address);\n    }\n\n    /**\n     * @dev return information about the user\n     * @param _address the address of the user\n     * @return a tuple (name, email, ipfsData)\n     */\n    function get(address _address) public constant returns(string, string, string) {\n      UserInfo storage userInfo = users[_address];\n      return (userInfo.name, userInfo.email, userInfo.ipfsData);\n    }\n}\n",
  "sourcePath": "/media/op/w3/paratii/paratii-contracts/contracts/paratii/Users.sol",
  "compiler": {
    "name": "solc",
    "version": "0.4.21+commit.dfe3193c.Emscripten.clang"
  },
  "schemaVersion": "2.0.0",
  "updatedAt": "2018-04-26T18:13:05.739Z"
}