{
  "contractName": "UserRegistry",
  "abi": [
    {
      "constant": false,
      "inputs": [
        {
          "name": "_videoId",
          "type": "string"
        },
        {
          "name": "_liked",
          "type": "bool"
        }
      ],
      "name": "likeVideo",
      "outputs": [],
      "payable": false,
      "stateMutability": "nonpayable",
      "type": "function"
    },
    {
      "constant": false,
      "inputs": [
        {
          "name": "_userAddress",
          "type": "address"
        }
      ],
      "name": "unregisterUser",
      "outputs": [],
      "payable": false,
      "stateMutability": "nonpayable",
      "type": "function"
    },
    {
      "constant": true,
      "inputs": [
        {
          "name": "_userAddress",
          "type": "address"
        },
        {
          "name": "_videoId",
          "type": "string"
        }
      ],
      "name": "userLikesVideo",
      "outputs": [
        {
          "name": "",
          "type": "bool"
        }
      ],
      "payable": false,
      "stateMutability": "view",
      "type": "function"
    },
    {
      "constant": true,
      "inputs": [
        {
          "name": "_userAddress",
          "type": "address"
        }
      ],
      "name": "getUserInfo",
      "outputs": [
        {
          "name": "",
          "type": "string"
        },
        {
          "name": "",
          "type": "string"
        }
      ],
      "payable": false,
      "stateMutability": "view",
      "type": "function"
    },
    {
      "constant": false,
      "inputs": [
        {
          "name": "_videoId",
          "type": "string"
        },
        {
          "name": "_userAddress",
          "type": "address"
        }
      ],
      "name": "acquireVideo",
      "outputs": [],
      "payable": false,
      "stateMutability": "nonpayable",
      "type": "function"
    },
    {
      "constant": true,
      "inputs": [],
      "name": "owner",
      "outputs": [
        {
          "name": "",
          "type": "address"
        }
      ],
      "payable": false,
      "stateMutability": "view",
      "type": "function"
    },
    {
      "constant": true,
      "inputs": [
        {
          "name": "_userAddress",
          "type": "address"
        },
        {
          "name": "_videoId",
          "type": "string"
        }
      ],
      "name": "userDislikesVideo",
      "outputs": [
        {
          "name": "",
          "type": "bool"
        }
      ],
      "payable": false,
      "stateMutability": "view",
      "type": "function"
    },
    {
      "constant": true,
      "inputs": [
        {
          "name": "_userAddress",
          "type": "address"
        },
        {
          "name": "_videoId",
          "type": "string"
        }
      ],
      "name": "userAcquiredVideo",
      "outputs": [
        {
          "name": "",
          "type": "bool"
        }
      ],
      "payable": false,
      "stateMutability": "view",
      "type": "function"
    },
    {
      "constant": true,
      "inputs": [
        {
          "name": "",
          "type": "address"
        }
      ],
      "name": "users",
      "outputs": [
        {
          "name": "_address",
          "type": "address"
        },
        {
          "name": "name",
          "type": "string"
        },
        {
          "name": "email",
          "type": "string"
        }
      ],
      "payable": false,
      "stateMutability": "view",
      "type": "function"
    },
    {
      "constant": false,
      "inputs": [
        {
          "name": "_userAddress",
          "type": "address"
        },
        {
          "name": "_name",
          "type": "string"
        },
        {
          "name": "_email",
          "type": "string"
        }
      ],
      "name": "registerUser",
      "outputs": [],
      "payable": false,
      "stateMutability": "nonpayable",
      "type": "function"
    },
    {
      "constant": false,
      "inputs": [
        {
          "name": "newOwner",
          "type": "address"
        }
      ],
      "name": "transferOwnership",
      "outputs": [],
      "payable": false,
      "stateMutability": "nonpayable",
      "type": "function"
    },
    {
      "inputs": [
        {
          "name": "_paratiiRegistry",
          "type": "address"
        }
      ],
      "payable": false,
      "stateMutability": "nonpayable",
      "type": "constructor"
    },
    {
      "anonymous": false,
      "inputs": [
        {
          "indexed": false,
          "name": "_address",
          "type": "address"
        },
        {
          "indexed": false,
          "name": "_name",
          "type": "string"
        },
        {
          "indexed": false,
          "name": "_email",
          "type": "string"
        }
      ],
      "name": "LogRegisterUser",
      "type": "event"
    },
    {
      "anonymous": false,
      "inputs": [
        {
          "indexed": false,
          "name": "_address",
          "type": "address"
        }
      ],
      "name": "LogUnregisterUser",
      "type": "event"
    },
    {
      "anonymous": false,
      "inputs": [
        {
          "indexed": false,
          "name": "_address",
          "type": "address"
        },
        {
          "indexed": false,
          "name": "_videoId",
          "type": "string"
        },
        {
          "indexed": false,
          "name": "_liked",
          "type": "bool"
        }
      ],
      "name": "LogLikeVideo",
      "type": "event"
    },
    {
      "anonymous": false,
      "inputs": [
        {
          "indexed": true,
          "name": "previousOwner",
          "type": "address"
        },
        {
          "indexed": true,
          "name": "newOwner",
          "type": "address"
        }
      ],
      "name": "OwnershipTransferred",
      "type": "event"
    }
  ],
  "bytecode": "0x6060604052341561000f57600080fd5b604051602080611e7a83398101604052808051906020019091905050336000806101000a81548173ffffffffffffffffffffffffffffffffffffffff021916908373ffffffffffffffffffffffffffffffffffffffff160217905550336000806101000a81548173ffffffffffffffffffffffffffffffffffffffff021916908373ffffffffffffffffffffffffffffffffffffffff16021790555080600160006101000a81548173ffffffffffffffffffffffffffffffffffffffff021916908373ffffffffffffffffffffffffffffffffffffffff160217905550600160009054906101000a900473ffffffffffffffffffffffffffffffffffffffff1673ffffffffffffffffffffffffffffffffffffffff1663358177736000604051602001526040518163ffffffff167c010000000000000000000000000000000000000000000000000000000002815260040180806020018281038252600d8152602001807f566964656f526567697374727900000000000000000000000000000000000000815250602001915050602060405180830381600087803b15156101b657600080fd5b6102c65a03f115156101c757600080fd5b50505060405180519050600260006101000a81548173ffffffffffffffffffffffffffffffffffffffff021916908373ffffffffffffffffffffffffffffffffffffffff16021790555050611c59806102216000396000f3006060604052600436106100af576000357c0100000000000000000000000000000000000000000000000000000000900463ffffffff168063075ca0d3146100b457806321f2ca3b1461011c57806335068bef146101555780636386c1c7146101e9578063738e4895146103075780638da5cb5b146103835780638f886d94146103d8578063a3c2bf781461046c578063a87430ba14610500578063db0c87c91461068b578063f2fde38b1461074a575b600080fd5b34156100bf57600080fd5b61011a600480803590602001908201803590602001908080601f016020809104026020016040519081016040528093929190818152602001838380828437820191505050505050919080351515906020019091905050610783565b005b341561012757600080fd5b610153600480803573ffffffffffffffffffffffffffffffffffffffff16906020019091905050610d3a565b005b341561016057600080fd5b6101cf600480803573ffffffffffffffffffffffffffffffffffffffff1690602001909190803590602001908201803590602001908080601f01602080910402602001604051908101604052809392919081815260200183838082843782019150505050505091905050610e69565b604051808215151515815260200191505060405180910390f35b34156101f457600080fd5b610220600480803573ffffffffffffffffffffffffffffffffffffffff16906020019091905050610f41565b604051808060200180602001838103835285818151815260200191508051906020019080838360005b83811015610264578082015181840152602081019050610249565b50505050905090810190601f1680156102915780820380516001836020036101000a031916815260200191505b50838103825284818151815260200191508051906020019080838360005b838110156102ca5780820151818401526020810190506102af565b50505050905090810190601f1680156102f75780820380516001836020036101000a031916815260200191505b5094505050505060405180910390f35b341561031257600080fd5b610381600480803590602001908201803590602001908080601f0160208091040260200160405190810160405280939291908181526020018383808284378201915050505050509190803573ffffffffffffffffffffffffffffffffffffffff169060200190919050506110de565b005b341561038e57600080fd5b6103966113eb565b604051808273ffffffffffffffffffffffffffffffffffffffff1673ffffffffffffffffffffffffffffffffffffffff16815260200191505060405180910390f35b34156103e357600080fd5b610452600480803573ffffffffffffffffffffffffffffffffffffffff1690602001909190803590602001908201803590602001908080601f01602080910402602001604051908101604052809392919081815260200183838082843782019150505050505091905050611410565b604051808215151515815260200191505060405180910390f35b341561047757600080fd5b6104e6600480803573ffffffffffffffffffffffffffffffffffffffff1690602001909190803590602001908201803590602001908080601f016020809104026020016040519081016040528093929190818152602001838380828437820191505050505050919050506114e8565b604051808215151515815260200191505060405180910390f35b341561050b57600080fd5b610537600480803573ffffffffffffffffffffffffffffffffffffffff169060200190919050506115c0565b604051808473ffffffffffffffffffffffffffffffffffffffff1673ffffffffffffffffffffffffffffffffffffffff16815260200180602001806020018381038352858181546001816001161561010002031660029004815260200191508054600181600116156101000203166002900480156105f65780601f106105cb576101008083540402835291602001916105f6565b820191906000526020600020905b8154815290600101906020018083116105d957829003601f168201915b50508381038252848181546001816001161561010002031660029004815260200191508054600181600116156101000203166002900480156106795780601f1061064e57610100808354040283529160200191610679565b820191906000526020600020905b81548152906001019060200180831161065c57829003601f168201915b50509550505050505060405180910390f35b341561069657600080fd5b610748600480803573ffffffffffffffffffffffffffffffffffffffff1690602001909190803590602001908201803590602001908080601f0160208091040260200160405190810160405280939291908181526020018383808284378201915050505050509190803590602001908201803590602001908080601f01602080910402602001604051908101604052809392919081815260200183838082843782019150505050505091905050611608565b005b341561075557600080fd5b610781600480803573ffffffffffffffffffffffffffffffffffffffff169060200190919050506118fe565b005b6000808361079133826114e8565b151561079c57600080fd5b339250600360008473ffffffffffffffffffffffffffffffffffffffff1673ffffffffffffffffffffffffffffffffffffffff1681526020019081526020016000206004016000866040518082805190602001908083835b60208310151561081957805182526020820191506020810190506020830392506107f4565b6001836020036101000a03801982511681845116808217855250505050505090500191505060405180910390206000191660001916815260200190815260200160002091506000826001015414156108765761087585846110de565b5b83801561089257508160000160019054906101000a900460ff16155b15610ad45760018260000160016101000a81548160ff021916908315150217905550600260009054906101000a900473ffffffffffffffffffffffffffffffffffffffff1673ffffffffffffffffffffffffffffffffffffffff1663075ca0d3868460000160029054906101000a900460ff166040518363ffffffff167c0100000000000000000000000000000000000000000000000000000000028152600401808060200183151515158152602001828103825284818151815260200191508051906020019080838360005b8381101561097a57808201518184015260208101905061095f565b50505050905090810190601f1680156109a75780820380516001836020036101000a031916815260200191505b509350505050600060405180830381600087803b15156109c657600080fd5b6102c65a03f115156109d757600080fd5b50505060008260000160026101000a81548160ff0219169083151502179055507fa7f48f489e5528c34ca196632deb780c27875fcc3040ed926a744d67aa2d3054838686604051808473ffffffffffffffffffffffffffffffffffffffff1673ffffffffffffffffffffffffffffffffffffffff1681526020018060200183151515158152602001828103825284818151815260200191508051906020019080838360005b83811015610a97578082015181840152602081019050610a7c565b50505050905090810190601f168015610ac45780820380516001836020036101000a031916815260200191505b5094505050505060405180910390a15b83158015610af157508160000160029054906101000a900460ff16155b15610d335760018260000160026101000a81548160ff021916908315150217905550600260009054906101000a900473ffffffffffffffffffffffffffffffffffffffff1673ffffffffffffffffffffffffffffffffffffffff166358439c74868460000160019054906101000a900460ff166040518363ffffffff167c0100000000000000000000000000000000000000000000000000000000028152600401808060200183151515158152602001828103825284818151815260200191508051906020019080838360005b83811015610bd9578082015181840152602081019050610bbe565b50505050905090810190601f168015610c065780820380516001836020036101000a031916815260200191505b509350505050600060405180830381600087803b1515610c2557600080fd5b6102c65a03f11515610c3657600080fd5b50505060008260000160016101000a81548160ff0219169083151502179055507fa7f48f489e5528c34ca196632deb780c27875fcc3040ed926a744d67aa2d3054838686604051808473ffffffffffffffffffffffffffffffffffffffff1673ffffffffffffffffffffffffffffffffffffffff1681526020018060200183151515158152602001828103825284818151815260200191508051906020019080838360005b83811015610cf6578082015181840152602081019050610cdb565b50505050905090810190601f168015610d235780820380516001836020036101000a031916815260200191505b5094505050505060405180910390a15b5050505050565b806000809054906101000a900473ffffffffffffffffffffffffffffffffffffffff1673ffffffffffffffffffffffffffffffffffffffff163373ffffffffffffffffffffffffffffffffffffffff161480610dc157508073ffffffffffffffffffffffffffffffffffffffff163373ffffffffffffffffffffffffffffffffffffffff16145b1515610dcc57600080fd5b600360008373ffffffffffffffffffffffffffffffffffffffff1673ffffffffffffffffffffffffffffffffffffffff168152602001908152602001600020600080820160006101000a81549073ffffffffffffffffffffffffffffffffffffffff0219169055600182016000610e439190611a53565b600282016000610e539190611a53565b600382016000610e639190611a9b565b50505050565b6000600360008473ffffffffffffffffffffffffffffffffffffffff1673ffffffffffffffffffffffffffffffffffffffff1681526020019081526020016000206004016000836040518082805190602001908083835b602083101515610ee55780518252602082019150602081019050602083039250610ec0565b6001836020036101000a03801982511681845116808217855250505050505090500191505060405180910390206000191660001916815260200190815260200160002060000160019054906101000a900460ff16905092915050565b610f49611abc565b610f51611abc565b6000600360008573ffffffffffffffffffffffffffffffffffffffff1673ffffffffffffffffffffffffffffffffffffffff16815260200190815260200160002090508060010181600201818054600181600116156101000203166002900480601f0160208091040260200160405190810160405280929190818152602001828054600181600116156101000203166002900480156110315780601f1061100657610100808354040283529160200191611031565b820191906000526020600020905b81548152906001019060200180831161101457829003601f168201915b50505050509150808054600181600116156101000203166002900480601f0160208091040260200160405190810160405280929190818152602001828054600181600116156101000203166002900480156110cd5780601f106110a2576101008083540402835291602001916110cd565b820191906000526020600020905b8154815290600101906020018083116110b057829003601f168201915b505050505090509250925050915091565b6000600360008373ffffffffffffffffffffffffffffffffffffffff1673ffffffffffffffffffffffffffffffffffffffff1681526020019081526020016000206004016000846040518082805190602001908083835b60208310151561115a5780518252602082019150602081019050602083039250611135565b6001836020036101000a0380198251168184511680821785525050505050509050019150506040518091039020600019166000191681526020019081526020016000209050600360008373ffffffffffffffffffffffffffffffffffffffff1673ffffffffffffffffffffffffffffffffffffffff16815260200190815260200160002060030180548060010182816111f39190611ad0565b91600052602060002090016000856040518082805190602001908083835b6020831015156112365780518252602082019150602081019050602083039250611211565b6001836020036101000a0380198251168184511680821785525050505050509050019150506040518091039020909190915090600019169055816001018190555060018160000160006101000a81548160ff02191690831515021790555080600360008473ffffffffffffffffffffffffffffffffffffffff1673ffffffffffffffffffffffffffffffffffffffff1681526020019081526020016000206004016000856040518082805190602001908083835b60208310151561130f57805182526020820191506020810190506020830392506112ea565b6001836020036101000a0380198251168184511680821785525050505050509050019150506040518091039020600019166000191681526020019081526020016000206000820160009054906101000a900460ff168160000160006101000a81548160ff0219169083151502179055506000820160019054906101000a900460ff168160000160016101000a81548160ff0219169083151502179055506000820160029054906101000a900460ff168160000160026101000a81548160ff02191690831515021790555060018201548160010155905050505050565b6000809054906101000a900473ffffffffffffffffffffffffffffffffffffffff1681565b6000600360008473ffffffffffffffffffffffffffffffffffffffff1673ffffffffffffffffffffffffffffffffffffffff1681526020019081526020016000206004016000836040518082805190602001908083835b60208310151561148c5780518252602082019150602081019050602083039250611467565b6001836020036101000a03801982511681845116808217855250505050505090500191505060405180910390206000191660001916815260200190815260200160002060000160029054906101000a900460ff16905092915050565b6000600360008473ffffffffffffffffffffffffffffffffffffffff1673ffffffffffffffffffffffffffffffffffffffff1681526020019081526020016000206004016000836040518082805190602001908083835b602083101515611564578051825260208201915060208101905060208303925061153f565b6001836020036101000a03801982511681845116808217855250505050505090500191505060405180910390206000191660001916815260200190815260200160002060000160009054906101000a900460ff16905092915050565b60036020528060005260406000206000915090508060000160009054906101000a900473ffffffffffffffffffffffffffffffffffffffff1690806001019080600201905083565b611610611afc565b836000809054906101000a900473ffffffffffffffffffffffffffffffffffffffff1673ffffffffffffffffffffffffffffffffffffffff163373ffffffffffffffffffffffffffffffffffffffff16148061169757508073ffffffffffffffffffffffffffffffffffffffff163373ffffffffffffffffffffffffffffffffffffffff16145b15156116a257600080fd5b6080604051908101604052808673ffffffffffffffffffffffffffffffffffffffff16815260200185815260200184815260200183815250600360008773ffffffffffffffffffffffffffffffffffffffff1673ffffffffffffffffffffffffffffffffffffffff16815260200190815260200160002060008201518160000160006101000a81548173ffffffffffffffffffffffffffffffffffffffff021916908373ffffffffffffffffffffffffffffffffffffffff160217905550602082015181600101908051906020019061177c929190611b10565b506040820151816002019080519060200190611799929190611b10565b5060608201518160030190805190602001906117b6929190611b90565b509050507f0f486c55ff2b4cd89d97b05c5c62a0ac1accbbd3e2659bc77d8c99c8741120ec858585604051808473ffffffffffffffffffffffffffffffffffffffff1673ffffffffffffffffffffffffffffffffffffffff1681526020018060200180602001838103835285818151815260200191508051906020019080838360005b83811015611854578082015181840152602081019050611839565b50505050905090810190601f1680156118815780820380516001836020036101000a031916815260200191505b50838103825284818151815260200191508051906020019080838360005b838110156118ba57808201518184015260208101905061189f565b50505050905090810190601f1680156118e75780820380516001836020036101000a031916815260200191505b509550505050505060405180910390a15050505050565b6000809054906101000a900473ffffffffffffffffffffffffffffffffffffffff1673ffffffffffffffffffffffffffffffffffffffff163373ffffffffffffffffffffffffffffffffffffffff1614151561195957600080fd5b600073ffffffffffffffffffffffffffffffffffffffff168173ffffffffffffffffffffffffffffffffffffffff161415151561199557600080fd5b8073ffffffffffffffffffffffffffffffffffffffff166000809054906101000a900473ffffffffffffffffffffffffffffffffffffffff1673ffffffffffffffffffffffffffffffffffffffff167f8be0079c531659141344cd1fd0a4f28419497f9722a3daafe3b4186f6b6457e060405160405180910390a3806000806101000a81548173ffffffffffffffffffffffffffffffffffffffff021916908373ffffffffffffffffffffffffffffffffffffffff16021790555050565b50805460018160011615610100020316600290046000825580601f10611a795750611a98565b601f016020900490600052602060002090810190611a979190611be3565b5b50565b5080546000825590600052602060002090810190611ab99190611c08565b50565b602060405190810160405280600081525090565b815481835581811511611af757818360005260206000209182019101611af69190611c08565b5b505050565b602060405190810160405280600081525090565b828054600181600116156101000203166002900490600052602060002090601f016020900481019282601f10611b5157805160ff1916838001178555611b7f565b82800160010185558215611b7f579182015b82811115611b7e578251825591602001919060010190611b63565b5b509050611b8c9190611be3565b5090565b828054828255906000526020600020908101928215611bd2579160200282015b82811115611bd1578251829060001916905591602001919060010190611bb0565b5b509050611bdf9190611c08565b5090565b611c0591905b80821115611c01576000816000905550600101611be9565b5090565b90565b611c2a91905b80821115611c26576000816000905550600101611c0e565b5090565b905600a165627a7a723058203062b7b424cf6d08ed9a3b646ee273b8985e7885191303f6b493e805926f17890029",
  "source": "pragma solidity ^0.4.18;\n\nimport \"zeppelin-solidity/contracts/ownership/Ownable.sol\";\nimport './VideoRegistry.sol';\nimport './ParatiiRegistry.sol';\n\ncontract UserRegistry is Ownable {\n\n    ParatiiRegistry paratiiRegistry;\n    VideoRegistry videoRegistry;\n\n    struct VideoInfo { // user-related information about this video\n      bool isAcquired; // did the user buy this video?\n      bool liked; // did the user like this video\n      bool disliked; // did the user dislike this video\n      uint _index; // index in the UserInfo.videosIndex\n    }\n\n    struct UserInfo {\n      address _address;\n      string name;\n      string email;\n      bytes32[] videoIndex; // the videos this user has seen\n      mapping (bytes32 => VideoInfo) videos; // information about these vids\n    }\n\n    mapping (address=>UserInfo) public users;\n\n    event LogRegisterUser(address _address, string _name, string _email);\n    event LogUnregisterUser(address _address);\n    event LogLikeVideo(address _address, string _videoId, bool _liked);\n\n    modifier onlyOwnerOrUser(address _address) {\n      require(msg.sender == owner || msg.sender == _address);\n      _;\n    }\n\n    modifier isAcquired(string _videoId) {\n        require(userAcquiredVideo(msg.sender, _videoId));\n        _;\n    }\n\n    function UserRegistry(ParatiiRegistry _paratiiRegistry) {\n        owner = msg.sender;\n        paratiiRegistry = _paratiiRegistry;\n        videoRegistry = VideoRegistry(paratiiRegistry.getContract(\"VideoRegistry\"));\n    }\n\n    function registerUser(address _userAddress, string _name, string _email) onlyOwnerOrUser(_userAddress) {\n      bytes32[] memory emptyIndex;\n      users[_userAddress] =  UserInfo({\n          _address: _userAddress,\n          name: _name,\n          email: _email,\n          videoIndex: emptyIndex\n      });\n\n      LogRegisterUser(_userAddress, _name, _email);\n    }\n\n    function unregisterUser(address _userAddress) public onlyOwnerOrUser(_userAddress) {\n        delete users[_userAddress];\n    }\n\n    function getUserInfo(address _userAddress) constant returns(string, string) {\n      UserInfo storage userInfo = users[_userAddress];\n      return (userInfo.name, userInfo.email);\n    }\n\n    function acquireVideo(string _videoId, address _userAddress) {\n      VideoInfo storage video = users[_userAddress].videos[keccak256(_videoId)];\n      video._index = users[_userAddress].videoIndex.push(keccak256(_videoId));\n      video.isAcquired = true;\n      users[_userAddress].videos[keccak256(_videoId)] = video;\n    }\n\n    /* like/dislike a video.\n     * @param like If true, register a like, if false, register a dislike\n     */\n    function likeVideo(string _videoId, bool _liked) isAcquired(_videoId) {\n      address _userAddress = msg.sender;\n      VideoInfo storage video = users[_userAddress].videos[keccak256(_videoId)];\n\n      // if the video is not known yet\n      if (video._index == 0) {\n        acquireVideo(_videoId, _userAddress);\n      }\n\n      if (_liked && !video.liked) {\n        video.liked = true;\n        videoRegistry.likeVideo(_videoId, video.disliked);\n        video.disliked = false;\n        LogLikeVideo(_userAddress, _videoId, _liked);\n      }\n\n      if (!_liked && !video.disliked) {\n        video.disliked = true;\n        videoRegistry.dislikeVideo(_videoId, video.liked);\n        video.liked = false;\n        LogLikeVideo(_userAddress, _videoId, _liked);\n      }\n    }\n\n    function userLikesVideo(address _userAddress, string _videoId) constant returns(bool) {\n      return users[_userAddress].videos[keccak256(_videoId)].liked;\n    }\n\n    function userDislikesVideo(address _userAddress, string _videoId) constant returns (bool) {\n      return users[_userAddress].videos[keccak256(_videoId)].disliked;\n    }\n\n    function userAcquiredVideo(address _userAddress, string _videoId) constant returns(bool) {\n      return users[_userAddress].videos[keccak256(_videoId)].isAcquired;\n    }\n}\n",
  "sourcePath": "/media/data/projects/paratii/paratii-contracts/contracts/paratii/UserRegistry.sol",
  "compiler": {
    "name": "solc",
    "version": "0.4.18+commit.9cf6e910.Emscripten.clang"
  },
  "schemaVersion": "1.0.1",
  "updatedAt": "2017-12-19T08:42:22.955Z"
}