{
  "contractName": "VideoRegistry",
  "abi": [
    {
      "constant": false,
      "inputs": [
        {
          "name": "_videoId",
          "type": "string"
        },
        {
          "name": "changed_opinion",
          "type": "bool"
        }
      ],
      "name": "likeVideo",
      "outputs": [],
      "payable": false,
      "type": "function",
      "stateMutability": "nonpayable"
    },
    {
      "constant": false,
      "inputs": [
        {
          "name": "_videoId",
          "type": "string"
        }
      ],
      "name": "unregisterVideo",
      "outputs": [],
      "payable": false,
      "type": "function",
      "stateMutability": "nonpayable"
    },
    {
      "constant": false,
      "inputs": [
        {
          "name": "_videoId",
          "type": "string"
        },
        {
          "name": "changed_opinion",
          "type": "bool"
        }
      ],
      "name": "dislikeVideo",
      "outputs": [],
      "payable": false,
      "type": "function",
      "stateMutability": "nonpayable"
    },
    {
      "constant": true,
      "inputs": [],
      "name": "owner",
      "outputs": [
        {
          "name": "",
          "type": "address"
        }
      ],
      "payable": false,
      "type": "function",
      "stateMutability": "view"
    },
    {
      "constant": true,
      "inputs": [
        {
          "name": "_videoId",
          "type": "string"
        }
      ],
      "name": "getVideoInfo",
      "outputs": [
        {
          "name": "",
          "type": "address"
        },
        {
          "name": "",
          "type": "uint256"
        }
      ],
      "payable": false,
      "type": "function",
      "stateMutability": "view"
    },
    {
      "constant": false,
      "inputs": [
        {
          "name": "_videoId",
          "type": "string"
        },
        {
          "name": "_owner",
          "type": "address"
        },
        {
          "name": "_price",
          "type": "uint256"
        },
        {
          "name": "_ipfs_hash",
          "type": "string"
        }
      ],
      "name": "registerVideo",
      "outputs": [],
      "payable": false,
      "type": "function",
      "stateMutability": "nonpayable"
    },
    {
      "constant": false,
      "inputs": [
        {
          "name": "newOwner",
          "type": "address"
        }
      ],
      "name": "transferOwnership",
      "outputs": [],
      "payable": false,
      "type": "function",
      "stateMutability": "nonpayable"
    },
    {
      "constant": true,
      "inputs": [
        {
          "name": "_videoId",
          "type": "string"
        }
      ],
      "name": "getStats",
      "outputs": [
        {
          "name": "",
          "type": "uint256"
        },
        {
          "name": "",
          "type": "uint256"
        },
        {
          "name": "",
          "type": "uint256"
        }
      ],
      "payable": false,
      "type": "function",
      "stateMutability": "view"
    },
    {
      "constant": true,
      "inputs": [
        {
          "name": "_paratiiRegistry",
          "type": "address"
        }
      ],
      "name": "getStats",
      "outputs": [
        {
          "name": "",
          "type": "uint256"
        },
        {
          "name": "",
          "type": "uint256"
        },
        {
          "name": "",
          "type": "uint256"
        }
      ],
      "payable": false,
      "type": "constructor",
      "stateMutability": "nonpayable"
    },
    {
      "inputs": [
        {
          "name": "videoId",
          "type": "string",
          "indexed": false
        },
        {
          "indexed": false,
          "name": "owner",
          "type": "address"
        }
      ],
      "payable": false,
      "type": "event",
      "stateMutability": "nonpayable",
      "anonymous": false,
      "name": "LogRegisterVideo"
    },
    {
      "anonymous": false,
      "inputs": [
        {
          "indexed": false,
          "name": "videoId",
          "type": "string"
        },
        {
          "indexed": false,
          "name": "owner",
          "type": "address"
        }
      ],
      "name": "LogUnregisterVideo",
      "type": "event"
    },
    {
      "anonymous": false,
      "inputs": [
        {
          "indexed": true,
          "name": "previousOwner",
          "type": "address"
        },
        {
          "indexed": true,
          "name": "newOwner",
          "type": "address"
        }
      ],
      "name": "OwnershipTransferred",
      "type": "event"
    },
    {
      "anonymous": false,
      "inputs": [
        {
          "indexed": true,
          "name": "previousOwner",
          "type": "address"
        },
        {
          "indexed": true,
          "name": "newOwner",
          "type": "address"
        }
      ],
      "name": "OwnershipTransferred",
      "type": "event"
    }
  ],
  "bytecode": "0x6060604052341561000f57600080fd5b60405160208061127583398101604052808051906020019091905050336000806101000a81548173ffffffffffffffffffffffffffffffffffffffff021916908373ffffffffffffffffffffffffffffffffffffffff160217905550336000806101000a81548173ffffffffffffffffffffffffffffffffffffffff021916908373ffffffffffffffffffffffffffffffffffffffff16021790555080600260006101000a81548173ffffffffffffffffffffffffffffffffffffffff021916908373ffffffffffffffffffffffffffffffffffffffff16021790555050611179806100fc6000396000f30060606040526004361061008e576000357c0100000000000000000000000000000000000000000000000000000000900463ffffffff168063075ca0d3146100935780634b6169a8146100fb57806358439c74146101585780638da5cb5b146101c0578063d6b5e91314610215578063e14d844d146102b9578063f2fde38b14610381578063fa0ae768146103ba575b600080fd5b341561009e57600080fd5b6100f9600480803590602001908201803590602001908080601f016020809104026020016040519081016040528093929190818152602001838380828437820191505050505050919080351515906020019091905050610439565b005b341561010657600080fd5b610156600480803590602001908201803590602001908080601f01602080910402602001604051908101604052809392919081815260200183838082843782019150505050505091905050610610565b005b341561016357600080fd5b6101be600480803590602001908201803590602001908080601f016020809104026020016040519081016040528093929190818152602001838380828437820191505050505050919080351515906020019091905050610830565b005b34156101cb57600080fd5b6101d3610a07565b604051808273ffffffffffffffffffffffffffffffffffffffff1673ffffffffffffffffffffffffffffffffffffffff16815260200191505060405180910390f35b341561022057600080fd5b610270600480803590602001908201803590602001908080601f01602080910402602001604051908101604052809392919081815260200183838082843782019150505050505091905050610a2c565b604051808373ffffffffffffffffffffffffffffffffffffffff1673ffffffffffffffffffffffffffffffffffffffff1681526020018281526020019250505060405180910390f35b34156102c457600080fd5b61037f600480803590602001908201803590602001908080601f0160208091040260200160405190810160405280939291908181526020018383808284378201915050505050509190803573ffffffffffffffffffffffffffffffffffffffff1690602001909190803590602001909190803590602001908201803590602001908080601f01602080910402602001604051908101604052809392919081815260200183838082843782019150505050505091905050610ae4565b005b341561038c57600080fd5b6103b8600480803573ffffffffffffffffffffffffffffffffffffffff16906020019091905050610e60565b005b34156103c557600080fd5b610415600480803590602001908201803590602001908080601f01602080910402602001604051908101604052809392919081815260200183838082843782019150505050505091905050610fb5565b60405180848152602001838152602001828152602001935050505060405180910390f35b6000600260009054906101000a900473ffffffffffffffffffffffffffffffffffffffff1673ffffffffffffffffffffffffffffffffffffffff1663358177736000604051602001526040518163ffffffff167c010000000000000000000000000000000000000000000000000000000002815260040180806020018281038252600c8152602001807f5573657252656769737472790000000000000000000000000000000000000000815250602001915050602060405180830381600087803b151561050557600080fd5b6102c65a03f1151561051657600080fd5b5050506040518051905073ffffffffffffffffffffffffffffffffffffffff163373ffffffffffffffffffffffffffffffffffffffff1614151561055957600080fd5b60016000846040518082805190602001908083835b602083101515610593578051825260208201915060208101905060208303925061056e565b6001836020036101000a038019825116818451168082178552505050505050905001915050604051809103902060001916600019168152602001908152602001600020905060018160080160010154018160080160010181905550811561060b57600181600801600201540381600801600201819055505b505050565b6000809054906101000a900473ffffffffffffffffffffffffffffffffffffffff1673ffffffffffffffffffffffffffffffffffffffff163373ffffffffffffffffffffffffffffffffffffffff1614151561066b57600080fd5b60016000826040518082805190602001908083835b6020831015156106a55780518252602082019150602081019050602083039250610680565b6001836020036101000a0380198251168184511680821785525050505050509050019150506040518091039020600019166000191681526020019081526020016000206000808201600090556001820160006107019190611060565b6002820160006107119190611060565b6003820160006107219190611060565b6004820160006107319190611060565b6005820160006107419190611060565b60068201600090556007820160006101000a81549073ffffffffffffffffffffffffffffffffffffffff02191690556008820160008082016000905560018201600090556002820160009055505050507fa0b79ab9ad1be0b8f6b7cdde4ed24a951845c2e1f06b65a2ef4fe76b1187ff17816040518080602001828103825283818151815260200191508051906020019080838360005b838110156107f35780820151818401526020810190506107d8565b50505050905090810190601f1680156108205780820380516001836020036101000a031916815260200191505b509250505060405180910390a150565b6000600260009054906101000a900473ffffffffffffffffffffffffffffffffffffffff1673ffffffffffffffffffffffffffffffffffffffff1663358177736000604051602001526040518163ffffffff167c010000000000000000000000000000000000000000000000000000000002815260040180806020018281038252600c8152602001807f5573657252656769737472790000000000000000000000000000000000000000815250602001915050602060405180830381600087803b15156108fc57600080fd5b6102c65a03f1151561090d57600080fd5b5050506040518051905073ffffffffffffffffffffffffffffffffffffffff163373ffffffffffffffffffffffffffffffffffffffff1614151561095057600080fd5b60016000846040518082805190602001908083835b60208310151561098a5780518252602082019150602081019050602083039250610965565b6001836020036101000a0380198251168184511680821785525050505050509050019150506040518091039020600019166000191681526020019081526020016000209050600181600801600201540181600801600201819055508115610a0257600181600801600101540381600801600101819055505b505050565b6000809054906101000a900473ffffffffffffffffffffffffffffffffffffffff1681565b600080600060016000856040518082805190602001908083835b602083101515610a6b5780518252602082019150602081019050602083039250610a46565b6001836020036101000a03801982511681845116808217855250505050505090500191505060405180910390206000191660001916815260200190815260200160002090508060070160009054906101000a900473ffffffffffffffffffffffffffffffffffffffff1681600601549250925050915091565b60008060009054906101000a900473ffffffffffffffffffffffffffffffffffffffff1673ffffffffffffffffffffffffffffffffffffffff163373ffffffffffffffffffffffffffffffffffffffff16141515610b4157600080fd5b846040518082805190602001908083835b602083101515610b775780518252602082019150602081019050602083039250610b52565b6001836020036101000a0380198251168184511680821785525050505050509050019150506040518091039020905061012060405190810160405280826000191681526020018381526020018681526020016020604051908101604052806000815250815260200160206040519081016040528060008152508152602001602060405190810160405280600081525081526020018481526020018573ffffffffffffffffffffffffffffffffffffffff16815260200160606040519081016040528060008152602001600081526020016000815250815250600160008360001916600019168152602001908152602001600020600082015181600001906000191690556020820151816001019080519060200190610c969291906110a8565b506040820151816002019080519060200190610cb39291906110a8565b506060820151816003019080519060200190610cd09291906110a8565b506080820151816004019080519060200190610ced9291906110a8565b5060a0820151816005019080519060200190610d0a9291906110a8565b5060c0820151816006015560e08201518160070160006101000a81548173ffffffffffffffffffffffffffffffffffffffff021916908373ffffffffffffffffffffffffffffffffffffffff1602179055506101008201518160080160008201518160000155602082015181600101556040820151816002015550509050507f19a6411db3231a980d3d18e397c33cd812f3754bc383db69ce3f7bf8287233b1858560405180806020018373ffffffffffffffffffffffffffffffffffffffff1673ffffffffffffffffffffffffffffffffffffffff168152602001828103825284818151815260200191508051906020019080838360005b83811015610e1e578082015181840152602081019050610e03565b50505050905090810190601f168015610e4b5780820380516001836020036101000a031916815260200191505b50935050505060405180910390a15050505050565b6000809054906101000a900473ffffffffffffffffffffffffffffffffffffffff1673ffffffffffffffffffffffffffffffffffffffff163373ffffffffffffffffffffffffffffffffffffffff16141515610ebb57600080fd5b600073ffffffffffffffffffffffffffffffffffffffff168173ffffffffffffffffffffffffffffffffffffffff1614151515610ef757600080fd5b8073ffffffffffffffffffffffffffffffffffffffff166000809054906101000a900473ffffffffffffffffffffffffffffffffffffffff1673ffffffffffffffffffffffffffffffffffffffff167f8be0079c531659141344cd1fd0a4f28419497f9722a3daafe3b4186f6b6457e060405160405180910390a3806000806101000a81548173ffffffffffffffffffffffffffffffffffffffff021916908373ffffffffffffffffffffffffffffffffffffffff16021790555050565b600080600080600060016000876040518082805190602001908083835b602083101515610ff75780518252602082019150602081019050602083039250610fd2565b6001836020036101000a038019825116818451168082178552505050505050905001915050604051809103902060001916600019168152602001908152602001600020915081600801905080600001548160010154826002015494509450945050509193909250565b50805460018160011615610100020316600290046000825580601f1061108657506110a5565b601f0160209004906000526020600020908101906110a49190611128565b5b50565b828054600181600116156101000203166002900490600052602060002090601f016020900481019282601f106110e957805160ff1916838001178555611117565b82800160010185558215611117579182015b828111156111165782518255916020019190600101906110fb565b5b5090506111249190611128565b5090565b61114a91905b8082111561114657600081600090555060010161112e565b5090565b905600a165627a7a72305820d4da420d6b90bce9a2424f283c95de4f953b871bbb98ed2b802628574e41244a0029",
  "source": "pragma solidity ^0.4.18;\n\nimport \"zeppelin-solidity/contracts/ownership/Ownable.sol\";\nimport 'zeppelin-solidity/contracts/math/SafeMath.sol';\nimport './ParatiiRegistry.sol';\n\ncontract VideoRegistry is Ownable {\n\n    struct Stats {\n        uint256 views;\n        uint256 likes;\n        uint256 dislikes;\n    }\n\n    struct VideoInfo {\n      bytes32 _id;\n      string ipfs_hash;\n      string title;\n      string description;\n      string thumb;\n      string duration;\n      uint256 price; // price in PTI-wei\n      address owner;\n      Stats stats;\n    }\n\n    mapping (bytes32=>VideoInfo) videos;\n    ParatiiRegistry paratiiRegistry;\n\n    event LogRegisterVideo(string videoId, address owner);\n    event LogUnregisterVideo(string videoId);\n\n    modifier onlyUserRegistry() {\n        require(msg.sender == paratiiRegistry.getContract('UserRegistry'));\n        _;\n    }\n\n    function VideoRegistry(ParatiiRegistry _paratiiRegistry) {\n        owner = msg.sender;\n        paratiiRegistry = _paratiiRegistry;\n    }\n\n    function registerVideo(string _videoId, address _owner, uint256 _price, string _ipfs_hash) public onlyOwner {\n      bytes32 id = keccak256(_videoId);\n\n      videos[id] = VideoInfo({\n      _id: id,\n      ipfs_hash: _ipfs_hash,\n      title: _videoId,\n      price: _price,\n      owner: _owner,\n      thumb: \"\",\n      duration: \"\",\n      description: \"\",\n      stats: Stats({\n        views: 0,\n        likes: 0,\n        dislikes: 0\n        })\n      });\n\n      LogRegisterVideo(_videoId, _owner);\n    }\n\n    function unregisterVideo(string _videoId) public onlyOwner {\n        delete videos[keccak256(_videoId)];\n        LogUnregisterVideo(_videoId);\n    }\n\n    function getVideoInfo(string _videoId) public constant returns(address, uint256)  {\n      VideoInfo storage videoInfo = videos[keccak256(_videoId)];\n      return (videoInfo.owner, videoInfo.price);\n    }\n\n    function likeVideo(string _videoId, bool changed_opinion) public onlyUserRegistry {\n         VideoInfo storage videoInfo = videos[keccak256(_videoId)];\n         videoInfo.stats.likes = videoInfo.stats.likes + 1;\n\n         if (changed_opinion) {\n             videoInfo.stats.dislikes = videoInfo.stats.dislikes - 1;\n         }\n    }\n\n    function dislikeVideo(string _videoId, bool changed_opinion) public onlyUserRegistry {\n         VideoInfo storage videoInfo = videos[keccak256(_videoId)];\n         videoInfo.stats.dislikes = videoInfo.stats.dislikes + 1;\n\n         if (changed_opinion) {\n             videoInfo.stats.likes = videoInfo.stats.likes - 1;\n         }\n    }\n\n    function getStats(string _videoId) public constant returns (uint256, uint256, uint256) {\n         VideoInfo storage videoInfo = videos[keccak256(_videoId)];\n         Stats storage stats = videoInfo.stats;\n         return (stats.views, stats.likes, stats.dislikes);\n    }\n}\n",
  "sourcePath": "/media/data/projects/paratii/paratii-contracts/contracts/paratii/VideoRegistry.sol",
  "compiler": {
    "name": "solc",
    "version": "0.4.18+commit.9cf6e910.Emscripten.clang"
  },
  "schemaVersion": "1.0.1",
  "updatedAt": "2017-11-23T22:02:43.104Z"
}