{
  "contractName": "Videos",
  "abi": [
    {
      "constant": false,
      "inputs": [
        {
          "name": "_videoId",
          "type": "string"
        },
        {
          "name": "_owner",
          "type": "address"
        },
        {
          "name": "_price",
          "type": "uint256"
        },
        {
          "name": "_ipfsHash",
          "type": "string"
        },
        {
          "name": "_ipfsData",
          "type": "string"
        }
      ],
      "name": "registerVideo",
      "outputs": [],
      "payable": false,
      "stateMutability": "nonpayable",
      "type": "function"
    },
    {
      "constant": false,
      "inputs": [
        {
          "name": "_videoId",
          "type": "string"
        }
      ],
      "name": "unregisterVideo",
      "outputs": [],
      "payable": false,
      "stateMutability": "nonpayable",
      "type": "function"
    },
    {
      "constant": true,
      "inputs": [],
      "name": "owner",
      "outputs": [
        {
          "name": "",
          "type": "address"
        }
      ],
      "payable": false,
      "stateMutability": "view",
      "type": "function"
    },
    {
      "constant": true,
      "inputs": [
        {
          "name": "_videoId",
          "type": "string"
        }
      ],
      "name": "getVideoInfo",
      "outputs": [
        {
          "name": "",
          "type": "address"
        },
        {
          "name": "",
          "type": "uint256"
        },
        {
          "name": "",
          "type": "string"
        },
        {
          "name": "",
          "type": "string"
        },
        {
          "name": "",
          "type": "address"
        }
      ],
      "payable": false,
      "stateMutability": "view",
      "type": "function"
    },
    {
      "constant": false,
      "inputs": [
        {
          "name": "newOwner",
          "type": "address"
        }
      ],
      "name": "transferOwnership",
      "outputs": [],
      "payable": false,
      "stateMutability": "nonpayable",
      "type": "function"
    },
    {
      "inputs": [
        {
          "name": "_paratiiRegistry",
          "type": "address"
        }
      ],
      "payable": false,
      "stateMutability": "nonpayable",
      "type": "constructor"
    },
    {
      "anonymous": false,
      "inputs": [
        {
          "indexed": false,
          "name": "videoId",
          "type": "string"
        },
        {
          "indexed": false,
          "name": "owner",
          "type": "address"
        },
        {
          "indexed": false,
          "name": "price",
          "type": "uint256"
        },
        {
          "indexed": false,
          "name": "ipfsHash",
          "type": "string"
        },
        {
          "indexed": false,
          "name": "registrar",
          "type": "address"
        }
      ],
      "name": "LogRegisterVideo",
      "type": "event"
    },
    {
      "anonymous": false,
      "inputs": [
        {
          "indexed": false,
          "name": "videoId",
          "type": "string"
        }
      ],
      "name": "LogUnregisterVideo",
      "type": "event"
    },
    {
      "anonymous": false,
      "inputs": [
        {
          "indexed": true,
          "name": "previousOwner",
          "type": "address"
        },
        {
          "indexed": true,
          "name": "newOwner",
          "type": "address"
        }
      ],
      "name": "OwnershipTransferred",
      "type": "event"
    }
  ],
  "bytecode": "0x6060604052341561000f57600080fd5b6040516020806111e183398101604052808051906020019091905050336000806101000a81548173ffffffffffffffffffffffffffffffffffffffff021916908373ffffffffffffffffffffffffffffffffffffffff160217905550336000806101000a81548173ffffffffffffffffffffffffffffffffffffffff021916908373ffffffffffffffffffffffffffffffffffffffff16021790555080600260006101000a81548173ffffffffffffffffffffffffffffffffffffffff021916908373ffffffffffffffffffffffffffffffffffffffff160217905550506110e5806100fc6000396000f30060606040526004361061006d576000357c0100000000000000000000000000000000000000000000000000000000900463ffffffff1680631ac56347146100725780634b6169a81461017d5780638da5cb5b146101da578063d6b5e9131461022f578063f2fde38b146103de575b600080fd5b341561007d57600080fd5b61017b600480803590602001908201803590602001908080601f0160208091040260200160405190810160405280939291908181526020018383808284378201915050505050509190803573ffffffffffffffffffffffffffffffffffffffff1690602001909190803590602001909190803590602001908201803590602001908080601f0160208091040260200160405190810160405280939291908181526020018383808284378201915050505050509190803590602001908201803590602001908080601f01602080910402602001604051908101604052809392919081815260200183838082843782019150505050505091905050610417565b005b341561018857600080fd5b6101d8600480803590602001908201803590602001908080601f016020809104026020016040519081016040528093929190818152602001838380828437820191505050505050919050506108e0565b005b34156101e557600080fd5b6101ed610c06565b604051808273ffffffffffffffffffffffffffffffffffffffff1673ffffffffffffffffffffffffffffffffffffffff16815260200191505060405180910390f35b341561023a57600080fd5b61028a600480803590602001908201803590602001908080601f01602080910402602001604051908101604052809392919081815260200183838082843782019150505050505091905050610c2b565b604051808673ffffffffffffffffffffffffffffffffffffffff1673ffffffffffffffffffffffffffffffffffffffff16815260200185815260200180602001806020018473ffffffffffffffffffffffffffffffffffffffff1673ffffffffffffffffffffffffffffffffffffffff168152602001838103835286818151815260200191508051906020019080838360005b8381101561033857808201518184015260208101905061031d565b50505050905090810190601f1680156103655780820380516001836020036101000a031916815260200191505b50838103825285818151815260200191508051906020019080838360005b8381101561039e578082015181840152602081019050610383565b50505050905090810190601f1680156103cb5780820380516001836020036101000a031916815260200191505b5097505050505050505060405180910390f35b34156103e957600080fd5b610415600480803573ffffffffffffffffffffffffffffffffffffffff16906020019091905050610e63565b005b600085600080826040518082805190602001908083835b602083101515610453578051825260208201915060208101905060208303925061042e565b6001836020036101000a0380198251168184511680821785525050505050509050019150506040518091039020915060016000836000191660001916815260200190815260200160002090506000809054906101000a900473ffffffffffffffffffffffffffffffffffffffff1673ffffffffffffffffffffffffffffffffffffffff163373ffffffffffffffffffffffffffffffffffffffff16148061058e575060008160050160009054906101000a900473ffffffffffffffffffffffffffffffffffffffff1673ffffffffffffffffffffffffffffffffffffffff16148061058d57508060050160009054906101000a900473ffffffffffffffffffffffffffffffffffffffff1673ffffffffffffffffffffffffffffffffffffffff163373ffffffffffffffffffffffffffffffffffffffff16145b5b151561059957600080fd5b886040518082805190602001908083835b6020831015156105cf57805182526020820191506020810190506020830392506105aa565b6001836020036101000a0380198251168184511680821785525050505050509050019150506040518091039020935060c060405190810160405280856000191681526020018781526020018681526020018881526020018973ffffffffffffffffffffffffffffffffffffffff1681526020013373ffffffffffffffffffffffffffffffffffffffff168152506001600086600019166000191681526020019081526020016000206000820151816000019060001916905560208201518160010190805190602001906106a3929190610fb8565b5060408201518160020190805190602001906106c0929190610fb8565b506060820151816003015560808201518160040160006101000a81548173ffffffffffffffffffffffffffffffffffffffff021916908373ffffffffffffffffffffffffffffffffffffffff16021790555060a08201518160050160006101000a81548173ffffffffffffffffffffffffffffffffffffffff021916908373ffffffffffffffffffffffffffffffffffffffff1602179055509050507f9aaaf541531d84f7f677bd06b3caf9f2c5fed9ebbed21f018bcf574894f545d2898989893360405180806020018673ffffffffffffffffffffffffffffffffffffffff1673ffffffffffffffffffffffffffffffffffffffff168152602001858152602001806020018473ffffffffffffffffffffffffffffffffffffffff1673ffffffffffffffffffffffffffffffffffffffff168152602001838103835288818151815260200191508051906020019080838360005b83811015610830578082015181840152602081019050610815565b50505050905090810190601f16801561085d5780820380516001836020036101000a031916815260200191505b50838103825285818151815260200191508051906020019080838360005b8381101561089657808201518184015260208101905061087b565b50505050905090810190601f1680156108c35780820380516001836020036101000a031916815260200191505b5097505050505050505060405180910390a1505050505050505050565b600081600080826040518082805190602001908083835b60208310151561091c57805182526020820191506020810190506020830392506108f7565b6001836020036101000a0380198251168184511680821785525050505050509050019150506040518091039020915060016000836000191660001916815260200190815260200160002090506000809054906101000a900473ffffffffffffffffffffffffffffffffffffffff1673ffffffffffffffffffffffffffffffffffffffff163373ffffffffffffffffffffffffffffffffffffffff161480610a57575060008160050160009054906101000a900473ffffffffffffffffffffffffffffffffffffffff1673ffffffffffffffffffffffffffffffffffffffff161480610a5657508060050160009054906101000a900473ffffffffffffffffffffffffffffffffffffffff1673ffffffffffffffffffffffffffffffffffffffff163373ffffffffffffffffffffffffffffffffffffffff16145b5b1515610a6257600080fd5b846040518082805190602001908083835b602083101515610a985780518252602082019150602081019050602083039250610a73565b6001836020036101000a03801982511681845116808217855250505050505090500191505060405180910390209350600160008560001916600019168152602001908152602001600020600080820160009055600182016000610afb9190611038565b600282016000610b0b9190611038565b60038201600090556004820160006101000a81549073ffffffffffffffffffffffffffffffffffffffff02191690556005820160006101000a81549073ffffffffffffffffffffffffffffffffffffffff021916905550507fa0b79ab9ad1be0b8f6b7cdde4ed24a951845c2e1f06b65a2ef4fe76b1187ff17856040518080602001828103825283818151815260200191508051906020019080838360005b83811015610bc5578082015181840152602081019050610baa565b50505050905090810190601f168015610bf25780820380516001836020036101000a031916815260200191505b509250505060405180910390a15050505050565b6000809054906101000a900473ffffffffffffffffffffffffffffffffffffffff1681565b600080610c36611080565b610c3e611080565b60008060016000886040518082805190602001908083835b602083101515610c7b5780518252602082019150602081019050602083039250610c56565b6001836020036101000a03801982511681845116808217855250505050505090500191505060405180910390206000191660001916815260200190815260200160002090508060040160009054906101000a900473ffffffffffffffffffffffffffffffffffffffff16816003015482600101836002018460050160009054906101000a900473ffffffffffffffffffffffffffffffffffffffff16828054600181600116156101000203166002900480601f016020809104026020016040519081016040528092919081815260200182805460018160011615610100020316600290048015610dac5780601f10610d8157610100808354040283529160200191610dac565b820191906000526020600020905b815481529060010190602001808311610d8f57829003601f168201915b50505050509250818054600181600116156101000203166002900480601f016020809104026020016040519081016040528092919081815260200182805460018160011615610100020316600290048015610e485780601f10610e1d57610100808354040283529160200191610e48565b820191906000526020600020905b815481529060010190602001808311610e2b57829003601f168201915b50505050509150955095509550955095505091939590929450565b6000809054906101000a900473ffffffffffffffffffffffffffffffffffffffff1673ffffffffffffffffffffffffffffffffffffffff163373ffffffffffffffffffffffffffffffffffffffff16141515610ebe57600080fd5b600073ffffffffffffffffffffffffffffffffffffffff168173ffffffffffffffffffffffffffffffffffffffff1614151515610efa57600080fd5b8073ffffffffffffffffffffffffffffffffffffffff166000809054906101000a900473ffffffffffffffffffffffffffffffffffffffff1673ffffffffffffffffffffffffffffffffffffffff167f8be0079c531659141344cd1fd0a4f28419497f9722a3daafe3b4186f6b6457e060405160405180910390a3806000806101000a81548173ffffffffffffffffffffffffffffffffffffffff021916908373ffffffffffffffffffffffffffffffffffffffff16021790555050565b828054600181600116156101000203166002900490600052602060002090601f016020900481019282601f10610ff957805160ff1916838001178555611027565b82800160010185558215611027579182015b8281111561102657825182559160200191906001019061100b565b5b5090506110349190611094565b5090565b50805460018160011615610100020316600290046000825580601f1061105e575061107d565b601f01602090049060005260206000209081019061107c9190611094565b5b50565b602060405190810160405280600081525090565b6110b691905b808211156110b257600081600090555060010161109a565b5090565b905600a165627a7a723058207a146f25eb121e65e6122beb460232b618859582505bd9c9de8c2e01235c653a0029",
  "source": "pragma solidity ^0.4.18;\n\nimport \"zeppelin-solidity/contracts/ownership/Ownable.sol\";\nimport 'zeppelin-solidity/contracts/math/SafeMath.sol';\nimport './Registry.sol';\n\ncontract Videos is Ownable {\n\n    /*struct Stats {\n        uint256 views;\n        uint256 likes;\n        uint256 dislikes;\n    }\n*/\n    struct VideoInfo {\n      bytes32 _id;\n      string ipfsHash;\n      string ipfsData;\n      uint256 price; // price in PTI-wei\n      address owner;\n      address registrar; // the account that has registered this video\n      /*Stats stats;*/\n    }\n\n    mapping (bytes32=>VideoInfo) videos;\n    Registry paratiiRegistry;\n\n    event LogRegisterVideo(\n      string videoId,\n      address owner,\n      uint price,\n      string ipfsHash,\n      address registrar\n    );\n\n    event LogUnregisterVideo(string videoId);\n\n    // ???\n    modifier onlyUserRegistry() {\n        require(msg.sender == paratiiRegistry.getContract('Users'));\n        _;\n    }\n\n    /*modifier onlyOwnerOrAvatar() {\n        address Avatar = paratiiRegistry.getContract('Avatar');\n        if (Avatar == 0) {\n            require(msg.sender == owner);\n        } else {\n            require(msg.sender == owner);\n            require((msg.sender == owner) || (msg.sender == paratiiRegistry.getContract('Avatar')));\n        }\n        _;\n    }*/\n\n    modifier onlyRegistrarOrAvatar(string _videoId) {\n      bytes32 id = keccak256(_videoId);\n      VideoInfo storage videoInfo = videos[id];\n      require(msg.sender == owner || (videoInfo.registrar == 0 || msg.sender == videoInfo.registrar));\n      _;\n    }\n\n    function Videos(Registry _paratiiRegistry) public {\n        owner = msg.sender;\n        paratiiRegistry = _paratiiRegistry;\n    }\n\n    /**\n     * @dev Register a video\n     * @param _videoId id of the video, can be any string\n     * @param _owner the address of the owner of this video\n     * @param _price the price in wei of this video\n     * @param _ipfsHash the IPFS hash where a directory with videos in different formats can be found\n     * @param _ipfsData the IPFS hash where a JSON with further information about htis video can be found\n     **/\n\n    function registerVideo(\n        string _videoId,\n        address _owner,\n        uint256 _price,\n        string _ipfsHash,\n        string _ipfsData\n    ) onlyRegistrarOrAvatar(_videoId) public {\n\n        bytes32 id = keccak256(_videoId);\n\n        videos[id] = VideoInfo({\n            _id: id,\n            price: _price,\n            owner: _owner,\n            ipfsHash: _ipfsHash,\n            ipfsData: _ipfsData,\n            registrar: msg.sender\n          });\n\n        LogRegisterVideo(_videoId, _owner, _price, _ipfsHash, msg.sender);\n    }\n\n    function unregisterVideo(string _videoId) public onlyRegistrarOrAvatar(_videoId) {\n        bytes32 id = keccak256(_videoId);\n        delete videos[id];\n        LogUnregisterVideo(_videoId);\n    }\n\n    /**\n     * @dev return information about video\n     * @return a tuple (owner, price, ipfsHash, ipfsData, registrar)\n     */\n\n    function getVideoInfo(string _videoId) public constant\n      returns(address, uint256, string, string, address)\n    {\n      VideoInfo storage videoInfo = videos[keccak256(_videoId)];\n      return (videoInfo.owner, videoInfo.price, videoInfo.ipfsHash, videoInfo.ipfsData, videoInfo.registrar);\n    }\n/*\n    function likeVideo(string _videoId, bool changed_opinion) public onlyUserRegistry {\n         VideoInfo storage videoInfo = videos[keccak256(_videoId)];\n         videoInfo.stats.likes = videoInfo.stats.likes + 1;\n\n         if (changed_opinion) {\n             videoInfo.stats.dislikes = videoInfo.stats.dislikes - 1;\n         }\n    }\n\n    function dislikeVideo(string _videoId, bool changed_opinion) public onlyUserRegistry {\n         VideoInfo storage videoInfo = videos[keccak256(_videoId)];\n         videoInfo.stats.dislikes = videoInfo.stats.dislikes + 1;\n\n         if (changed_opinion) {\n             videoInfo.stats.likes = videoInfo.stats.likes - 1;\n         }\n    }\n\n    function getStats(string _videoId) public constant returns (uint256, uint256, uint256) {\n         VideoInfo storage videoInfo = videos[keccak256(_videoId)];\n         Stats storage stats = videoInfo.stats;\n         return (stats.views, stats.likes, stats.dislikes);\n    }*/\n}\n",
  "sourcePath": "/media/data/projects/paratii/paratii-contracts/contracts/paratii/Videos.sol",
  "compiler": {
    "name": "solc",
    "version": "0.4.18+commit.9cf6e910.Emscripten.clang"
  },
  "schemaVersion": "1.0.1",
  "updatedAt": "2017-12-29T08:38:20.490Z"
}