{
  "contractName": "Videos",
  "abi": [
    {
      "constant": true,
      "inputs": [],
      "name": "owner",
      "outputs": [
        {
          "name": "",
          "type": "address"
        }
      ],
      "payable": false,
      "stateMutability": "view",
      "type": "function"
    },
    {
      "constant": true,
      "inputs": [],
      "name": "paratiiRegistry",
      "outputs": [
        {
          "name": "",
          "type": "address"
        }
      ],
      "payable": false,
      "stateMutability": "view",
      "type": "function"
    },
    {
      "constant": false,
      "inputs": [
        {
          "name": "newOwner",
          "type": "address"
        }
      ],
      "name": "transferOwnership",
      "outputs": [],
      "payable": false,
      "stateMutability": "nonpayable",
      "type": "function"
    },
    {
      "inputs": [
        {
          "name": "_paratiiRegistry",
          "type": "address"
        }
      ],
      "payable": false,
      "stateMutability": "nonpayable",
      "type": "constructor"
    },
    {
      "anonymous": false,
      "inputs": [
        {
          "indexed": false,
          "name": "videoId",
          "type": "string"
        },
        {
          "indexed": false,
          "name": "owner",
          "type": "address"
        },
        {
          "indexed": false,
          "name": "price",
          "type": "uint256"
        },
        {
          "indexed": false,
          "name": "ipfsHashOrig",
          "type": "string"
        },
        {
          "indexed": false,
          "name": "ipfsHash",
          "type": "string"
        },
        {
          "indexed": false,
          "name": "ipfsData",
          "type": "string"
        },
        {
          "indexed": false,
          "name": "registrar",
          "type": "address"
        }
      ],
      "name": "LogCreateVideo",
      "type": "event"
    },
    {
      "anonymous": false,
      "inputs": [
        {
          "indexed": false,
          "name": "videoId",
          "type": "string"
        }
      ],
      "name": "LogRemoveVideo",
      "type": "event"
    },
    {
      "anonymous": false,
      "inputs": [
        {
          "indexed": true,
          "name": "previousOwner",
          "type": "address"
        },
        {
          "indexed": true,
          "name": "newOwner",
          "type": "address"
        }
      ],
      "name": "OwnershipTransferred",
      "type": "event"
    },
    {
      "constant": false,
      "inputs": [
        {
          "name": "_videoId",
          "type": "string"
        },
        {
          "name": "_owner",
          "type": "address"
        },
        {
          "name": "_price",
          "type": "uint256"
        },
        {
          "name": "_ipfsHashOrig",
          "type": "string"
        },
        {
          "name": "_ipfsHash",
          "type": "string"
        },
        {
          "name": "_ipfsData",
          "type": "string"
        }
      ],
      "name": "create",
      "outputs": [],
      "payable": false,
      "stateMutability": "nonpayable",
      "type": "function"
    },
    {
      "constant": false,
      "inputs": [
        {
          "name": "_videoId",
          "type": "string"
        }
      ],
      "name": "remove",
      "outputs": [],
      "payable": false,
      "stateMutability": "nonpayable",
      "type": "function"
    },
    {
      "constant": true,
      "inputs": [
        {
          "name": "_videoId",
          "type": "string"
        }
      ],
      "name": "get",
      "outputs": [
        {
          "name": "",
          "type": "address"
        },
        {
          "name": "",
          "type": "uint256"
        },
        {
          "name": "",
          "type": "string"
        },
        {
          "name": "",
          "type": "string"
        },
        {
          "name": "",
          "type": "string"
        },
        {
          "name": "",
          "type": "address"
        }
      ],
      "payable": false,
      "stateMutability": "view",
      "type": "function"
    }
  ],
  "bytecode": "0x608060405234801561001057600080fd5b506040516020806117bc83398101806040528101908080519060200190929190505050336000806101000a81548173ffffffffffffffffffffffffffffffffffffffff021916908373ffffffffffffffffffffffffffffffffffffffff160217905550336000806101000a81548173ffffffffffffffffffffffffffffffffffffffff021916908373ffffffffffffffffffffffffffffffffffffffff16021790555080600260006101000a81548173ffffffffffffffffffffffffffffffffffffffff021916908373ffffffffffffffffffffffffffffffffffffffff160217905550506116b8806101046000396000f300608060405260043610610078576000357c0100000000000000000000000000000000000000000000000000000000900463ffffffff1680630b9d64b61461007d578063693ec85e146101e257806380599e4b146104095780638da5cb5b146104725780639e20f789146104c9578063f2fde38b14610520575b600080fd5b34801561008957600080fd5b506101e0600480360381019080803590602001908201803590602001908080601f0160208091040260200160405190810160405280939291908181526020018383808284378201915050505050509192919290803573ffffffffffffffffffffffffffffffffffffffff16906020019092919080359060200190929190803590602001908201803590602001908080601f0160208091040260200160405190810160405280939291908181526020018383808284378201915050505050509192919290803590602001908201803590602001908080601f0160208091040260200160405190810160405280939291908181526020018383808284378201915050505050509192919290803590602001908201803590602001908080601f0160208091040260200160405190810160405280939291908181526020018383808284378201915050505050509192919290505050610563565b005b3480156101ee57600080fd5b50610249600480360381019080803590602001908201803590602001908080601f0160208091040260200160405190810160405280939291908181526020018383808284378201915050505050509192919290505050610c5c565b604051808773ffffffffffffffffffffffffffffffffffffffff1673ffffffffffffffffffffffffffffffffffffffff1681526020018681526020018060200180602001806020018573ffffffffffffffffffffffffffffffffffffffff1673ffffffffffffffffffffffffffffffffffffffff168152602001848103845288818151815260200191508051906020019080838360005b838110156102fb5780820151818401526020810190506102e0565b50505050905090810190601f1680156103285780820380516001836020036101000a031916815260200191505b50848103835287818151815260200191508051906020019080838360005b83811015610361578082015181840152602081019050610346565b50505050905090810190601f16801561038e5780820380516001836020036101000a031916815260200191505b50848103825286818151815260200191508051906020019080838360005b838110156103c75780820151818401526020810190506103ac565b50505050905090810190601f1680156103f45780820380516001836020036101000a031916815260200191505b50995050505050505050505060405180910390f35b34801561041557600080fd5b50610470600480360381019080803590602001908201803590602001908080601f0160208091040260200160405190810160405280939291908181526020018383808284378201915050505050509192919290505050610f97565b005b34801561047e57600080fd5b506104876113ff565b604051808273ffffffffffffffffffffffffffffffffffffffff1673ffffffffffffffffffffffffffffffffffffffff16815260200191505060405180910390f35b3480156104d557600080fd5b506104de611424565b604051808273ffffffffffffffffffffffffffffffffffffffff1673ffffffffffffffffffffffffffffffffffffffff16815260200191505060405180910390f35b34801561052c57600080fd5b50610561600480360381019080803573ffffffffffffffffffffffffffffffffffffffff16906020019092919050505061144a565b005b600086600080826040516020018082805190602001908083835b6020831015156105a2578051825260208201915060208101905060208303925061057d565b6001836020036101000a0380198251168184511680821785525050505050509050019150506040516020818303038152906040526040518082805190602001908083835b60208310151561060b57805182526020820191506020810190506020830392506105e6565b6001836020036101000a0380198251168184511680821785525050505050509050019150506040518091039020915060016000836000191660001916815260200190815260200160002090506000809054906101000a900473ffffffffffffffffffffffffffffffffffffffff1673ffffffffffffffffffffffffffffffffffffffff163373ffffffffffffffffffffffffffffffffffffffff1614806107a0575060008160060160009054906101000a900473ffffffffffffffffffffffffffffffffffffffff1673ffffffffffffffffffffffffffffffffffffffff16148061074557508060060160009054906101000a900473ffffffffffffffffffffffffffffffffffffffff1673ffffffffffffffffffffffffffffffffffffffff163373ffffffffffffffffffffffffffffffffffffffff16145b8061079f57508060050160009054906101000a900473ffffffffffffffffffffffffffffffffffffffff1673ffffffffffffffffffffffffffffffffffffffff163373ffffffffffffffffffffffffffffffffffffffff16145b5b15156107ab57600080fd5b896040516020018082805190602001908083835b6020831015156107e457805182526020820191506020810190506020830392506107bf565b6001836020036101000a0380198251168184511680821785525050505050509050019150506040516020818303038152906040526040518082805190602001908083835b60208310151561084d5780518252602082019150602081019050602083039250610828565b6001836020036101000a0380198251168184511680821785525050505050509050019150506040518091039020935060e060405190810160405280856000191681526020018881526020018781526020018681526020018981526020018a73ffffffffffffffffffffffffffffffffffffffff1681526020013373ffffffffffffffffffffffffffffffffffffffff1681525060016000866000191660001916815260200190815260200160002060008201518160000190600019169055602082015181600101908051906020019061092792919061159f565b50604082015181600201908051906020019061094492919061159f565b50606082015181600301908051906020019061096192919061159f565b506080820151816004015560a08201518160050160006101000a81548173ffffffffffffffffffffffffffffffffffffffff021916908373ffffffffffffffffffffffffffffffffffffffff16021790555060c08201518160060160006101000a81548173ffffffffffffffffffffffffffffffffffffffff021916908373ffffffffffffffffffffffffffffffffffffffff1602179055509050507f36c65780b27428d759ce656fa342f6c1ceee6d63f4ab799527453d0209ef6e228a8a8a8a8a8a3360405180806020018873ffffffffffffffffffffffffffffffffffffffff1673ffffffffffffffffffffffffffffffffffffffff1681526020018781526020018060200180602001806020018673ffffffffffffffffffffffffffffffffffffffff1673ffffffffffffffffffffffffffffffffffffffff16815260200185810385528c818151815260200191508051906020019080838360005b83811015610adb578082015181840152602081019050610ac0565b50505050905090810190601f168015610b085780820380516001836020036101000a031916815260200191505b50858103845289818151815260200191508051906020019080838360005b83811015610b41578082015181840152602081019050610b26565b50505050905090810190601f168015610b6e5780820380516001836020036101000a031916815260200191505b50858103835288818151815260200191508051906020019080838360005b83811015610ba7578082015181840152602081019050610b8c565b50505050905090810190601f168015610bd45780820380516001836020036101000a031916815260200191505b50858103825287818151815260200191508051906020019080838360005b83811015610c0d578082015181840152602081019050610bf2565b50505050905090810190601f168015610c3a5780820380516001836020036101000a031916815260200191505b509b50505050505050505050505060405180910390a150505050505050505050565b600080606080606060008060016000896040516020018082805190602001908083835b602083101515610ca45780518252602082019150602081019050602083039250610c7f565b6001836020036101000a0380198251168184511680821785525050505050509050019150506040516020818303038152906040526040518082805190602001908083835b602083101515610d0d5780518252602082019150602081019050602083039250610ce8565b6001836020036101000a03801982511681845116808217855250505050505090500191505060405180910390206000191660001916815260200190815260200160002090508060050160009054906101000a900473ffffffffffffffffffffffffffffffffffffffff1681600401548260010183600201846003018560060160009054906101000a900473ffffffffffffffffffffffffffffffffffffffff16838054600181600116156101000203166002900480601f016020809104026020016040519081016040528092919081815260200182805460018160011615610100020316600290048015610e425780601f10610e1757610100808354040283529160200191610e42565b820191906000526020600020905b815481529060010190602001808311610e2557829003601f168201915b50505050509350828054600181600116156101000203166002900480601f016020809104026020016040519081016040528092919081815260200182805460018160011615610100020316600290048015610ede5780601f10610eb357610100808354040283529160200191610ede565b820191906000526020600020905b815481529060010190602001808311610ec157829003601f168201915b50505050509250818054600181600116156101000203166002900480601f016020809104026020016040519081016040528092919081815260200182805460018160011615610100020316600290048015610f7a5780601f10610f4f57610100808354040283529160200191610f7a565b820191906000526020600020905b815481529060010190602001808311610f5d57829003601f168201915b505050505091509650965096509650965096505091939550919395565b600081600080826040516020018082805190602001908083835b602083101515610fd65780518252602082019150602081019050602083039250610fb1565b6001836020036101000a0380198251168184511680821785525050505050509050019150506040516020818303038152906040526040518082805190602001908083835b60208310151561103f578051825260208201915060208101905060208303925061101a565b6001836020036101000a0380198251168184511680821785525050505050509050019150506040518091039020915060016000836000191660001916815260200190815260200160002090506000809054906101000a900473ffffffffffffffffffffffffffffffffffffffff1673ffffffffffffffffffffffffffffffffffffffff163373ffffffffffffffffffffffffffffffffffffffff1614806111d4575060008160060160009054906101000a900473ffffffffffffffffffffffffffffffffffffffff1673ffffffffffffffffffffffffffffffffffffffff16148061117957508060060160009054906101000a900473ffffffffffffffffffffffffffffffffffffffff1673ffffffffffffffffffffffffffffffffffffffff163373ffffffffffffffffffffffffffffffffffffffff16145b806111d357508060050160009054906101000a900473ffffffffffffffffffffffffffffffffffffffff1673ffffffffffffffffffffffffffffffffffffffff163373ffffffffffffffffffffffffffffffffffffffff16145b5b15156111df57600080fd5b846040516020018082805190602001908083835b60208310151561121857805182526020820191506020810190506020830392506111f3565b6001836020036101000a0380198251168184511680821785525050505050509050019150506040516020818303038152906040526040518082805190602001908083835b602083101515611281578051825260208201915060208101905060208303925061125c565b6001836020036101000a038019825116818451168082178552505050505050905001915050604051809103902093506001600085600019166000191681526020019081526020016000206000808201600090556001820160006112e4919061161f565b6002820160006112f4919061161f565b600382016000611304919061161f565b60048201600090556005820160006101000a81549073ffffffffffffffffffffffffffffffffffffffff02191690556006820160006101000a81549073ffffffffffffffffffffffffffffffffffffffff021916905550507f592a19ecda39f9bdfc71b1f128f024319cff48402f55ccf171b0878d5b69b7d5856040518080602001828103825283818151815260200191508051906020019080838360005b838110156113be5780820151818401526020810190506113a3565b50505050905090810190601f1680156113eb5780820380516001836020036101000a031916815260200191505b509250505060405180910390a15050505050565b6000809054906101000a900473ffffffffffffffffffffffffffffffffffffffff1681565b600260009054906101000a900473ffffffffffffffffffffffffffffffffffffffff1681565b6000809054906101000a900473ffffffffffffffffffffffffffffffffffffffff1673ffffffffffffffffffffffffffffffffffffffff163373ffffffffffffffffffffffffffffffffffffffff161415156114a557600080fd5b600073ffffffffffffffffffffffffffffffffffffffff168173ffffffffffffffffffffffffffffffffffffffff16141515156114e157600080fd5b8073ffffffffffffffffffffffffffffffffffffffff166000809054906101000a900473ffffffffffffffffffffffffffffffffffffffff1673ffffffffffffffffffffffffffffffffffffffff167f8be0079c531659141344cd1fd0a4f28419497f9722a3daafe3b4186f6b6457e060405160405180910390a3806000806101000a81548173ffffffffffffffffffffffffffffffffffffffff021916908373ffffffffffffffffffffffffffffffffffffffff16021790555050565b828054600181600116156101000203166002900490600052602060002090601f016020900481019282601f106115e057805160ff191683800117855561160e565b8280016001018555821561160e579182015b8281111561160d5782518255916020019190600101906115f2565b5b50905061161b9190611667565b5090565b50805460018160011615610100020316600290046000825580601f106116455750611664565b601f0160209004906000526020600020908101906116639190611667565b5b50565b61168991905b8082111561168557600081600090555060010161166d565b5090565b905600a165627a7a723058207679811cd57cf129163273cd0576d201d70f93330d2728ed0106172b30b669700029",
  "source": "pragma solidity ^0.4.18;\n\nimport \"zeppelin-solidity/contracts/ownership/Ownable.sol\";\nimport \"zeppelin-solidity/contracts/math/SafeMath.sol\";\nimport \"./Registry.sol\";\n\ncontract Videos is Ownable {\n\n    struct VideoInfo {\n        bytes32 _id;\n        string ipfsHashOrig; // the hash of the original file on IPFS\n        string ipfsHash; // the hash of the streamable (transcoded) file on IPFS\n        string ipfsData; // optional addition data about this video, stored in IPFS\n        uint256 price; // price in PTI-wei\n        address owner; // the owner\n        address registrar; // the account that has registered this video and can update and delete the info\n    }\n\n    mapping (bytes32=>VideoInfo) videos;\n    Registry public paratiiRegistry;\n\n    event LogCreateVideo(\n        string videoId,\n        address owner,\n        uint price,\n        string ipfsHashOrig,\n        string ipfsHash,\n        string ipfsData,\n        address registrar\n    );\n\n    event LogRemoveVideo(string videoId);\n\n    // ???\n    modifier onlyUserRegistry() {\n        require(msg.sender == paratiiRegistry.getContract(\"Users\"));\n        _;\n    }\n\n    modifier onlyRegistrarOrAvatar(string _videoId) {\n        bytes32 id = keccak256(abi.encodePacked(_videoId));\n        VideoInfo storage videoInfo = videos[id];\n        require(msg.sender == owner || (videoInfo.registrar == 0 || msg.sender == videoInfo.registrar));\n        _;\n    }\n    modifier onlyRegistrarOrAvatarOrOwner(string _videoId) {\n        bytes32 id = keccak256(abi.encodePacked(_videoId));\n        VideoInfo storage videoInfo = videos[id];\n        require(msg.sender == owner || (videoInfo.registrar == 0 || msg.sender == videoInfo.registrar || msg.sender == videoInfo.owner));\n        _;\n    }\n\n    constructor(Registry _paratiiRegistry) public {\n        owner = msg.sender;\n        paratiiRegistry = _paratiiRegistry;\n    }\n\n    /**\n     * @dev Register a video\n     * @param _videoId id of the video, can be any string\n     * @param _owner the address of the owner of this video\n     * @param _price the price in wei of this video\n     * @param _ipfsHashOrig the hash of the original file on IPFS\n     * @param _ipfsHash the hash of the streamable (transcoded) file on IPFS\n     * @param _ipfsData optional additional data about this video, stored in IPFS\n     **/\n\n    function create(\n        string _videoId,\n        address _owner,\n        uint256 _price,\n        string _ipfsHashOrig,\n        string _ipfsHash,\n        string _ipfsData\n    ) onlyRegistrarOrAvatarOrOwner(_videoId) public {\n\n        bytes32 id = keccak256(abi.encodePacked(_videoId));\n\n        videos[id] = VideoInfo({\n            _id: id,\n            price: _price,\n            owner: _owner,\n            ipfsHashOrig: _ipfsHashOrig,\n            ipfsHash: _ipfsHash,\n            ipfsData: _ipfsData,\n            registrar: msg.sender\n        });\n\n        emit LogCreateVideo(_videoId, _owner, _price, _ipfsHashOrig, _ipfsHash, _ipfsData, msg.sender);\n    }\n\n    function remove(string _videoId) public onlyRegistrarOrAvatarOrOwner(_videoId) {\n        bytes32 id = keccak256(abi.encodePacked(_videoId));\n        delete videos[id];\n        emit LogRemoveVideo(_videoId);\n    }\n\n    /**\n     * @dev return information about video\n     * @return a tuple (owner, price, ipfsHashOrig, ipfsHash, ipfsData, registrar)\n     */\n\n    function get(string _videoId)\n        public\n        view\n        returns(address, uint256, string, string, string, address)\n    {\n        VideoInfo storage videoInfo = videos[keccak256(abi.encodePacked(_videoId))];\n        \n        return (\n            videoInfo.owner, \n            videoInfo.price, \n            videoInfo.ipfsHashOrig, \n            videoInfo.ipfsHash, \n            videoInfo.ipfsData, \n            videoInfo.registrar\n        );\n    }\n}\n",
  "sourcePath": "/home/rigel/Documents/paratii/paratii-contracts/contracts/paratii/Videos.sol",
  "compiler": {
    "name": "solc",
    "version": "0.4.24+commit.e67f0147.Emscripten.clang"
  },
  "schemaVersion": "2.0.1",
  "updatedAt": "2018-07-14T17:23:22.062Z"
}