{
  "contractName": "VideoStore",
  "abi": [
    {
      "constant": true,
      "inputs": [],
      "name": "videoRegistry",
      "outputs": [
        {
          "name": "",
          "type": "address"
        }
      ],
      "payable": false,
      "stateMutability": "view",
      "type": "function"
    },
    {
      "constant": true,
      "inputs": [],
      "name": "userRegistry",
      "outputs": [
        {
          "name": "",
          "type": "address"
        }
      ],
      "payable": false,
      "stateMutability": "view",
      "type": "function"
    },
    {
      "constant": true,
      "inputs": [],
      "name": "owner",
      "outputs": [
        {
          "name": "",
          "type": "address"
        }
      ],
      "payable": false,
      "stateMutability": "view",
      "type": "function"
    },
    {
      "constant": true,
      "inputs": [],
      "name": "paratiiRegistry",
      "outputs": [
        {
          "name": "",
          "type": "address"
        }
      ],
      "payable": false,
      "stateMutability": "view",
      "type": "function"
    },
    {
      "constant": false,
      "inputs": [
        {
          "name": "videoId",
          "type": "string"
        }
      ],
      "name": "buyVideo",
      "outputs": [
        {
          "name": "",
          "type": "bool"
        }
      ],
      "payable": false,
      "stateMutability": "nonpayable",
      "type": "function"
    },
    {
      "constant": false,
      "inputs": [
        {
          "name": "newOwner",
          "type": "address"
        }
      ],
      "name": "transferOwnership",
      "outputs": [],
      "payable": false,
      "stateMutability": "nonpayable",
      "type": "function"
    },
    {
      "constant": true,
      "inputs": [
        {
          "name": "",
          "type": "bytes32"
        },
        {
          "name": "",
          "type": "uint256"
        }
      ],
      "name": "videoSales",
      "outputs": [
        {
          "name": "",
          "type": "address"
        }
      ],
      "payable": false,
      "stateMutability": "view",
      "type": "function"
    },
    {
      "constant": true,
      "inputs": [],
      "name": "paratiiAvatar",
      "outputs": [
        {
          "name": "",
          "type": "address"
        }
      ],
      "payable": false,
      "stateMutability": "view",
      "type": "function"
    },
    {
      "inputs": [
        {
          "name": "_paratiiRegistry",
          "type": "address"
        }
      ],
      "payable": false,
      "stateMutability": "nonpayable",
      "type": "constructor"
    },
    {
      "payable": false,
      "stateMutability": "nonpayable",
      "type": "fallback"
    },
    {
      "anonymous": false,
      "inputs": [
        {
          "indexed": false,
          "name": "videoId",
          "type": "string"
        },
        {
          "indexed": false,
          "name": "buyer",
          "type": "address"
        },
        {
          "indexed": false,
          "name": "price",
          "type": "uint256"
        }
      ],
      "name": "LogBuyVideo",
      "type": "event"
    },
    {
      "anonymous": false,
      "inputs": [
        {
          "indexed": false,
          "name": "_msg",
          "type": "address"
        }
      ],
      "name": "LogAddress",
      "type": "event"
    },
    {
      "anonymous": false,
      "inputs": [
        {
          "indexed": false,
          "name": "_msg",
          "type": "int256"
        }
      ],
      "name": "LogInt",
      "type": "event"
    },
    {
      "anonymous": false,
      "inputs": [
        {
          "indexed": false,
          "name": "_msg",
          "type": "string"
        }
      ],
      "name": "LogString",
      "type": "event"
    },
    {
      "anonymous": false,
      "inputs": [
        {
          "indexed": false,
          "name": "_msg",
          "type": "uint256"
        }
      ],
      "name": "LogUint",
      "type": "event"
    },
    {
      "anonymous": false,
      "inputs": [
        {
          "indexed": false,
          "name": "_msg",
          "type": "bytes"
        }
      ],
      "name": "LogBytes",
      "type": "event"
    },
    {
      "anonymous": false,
      "inputs": [
        {
          "indexed": false,
          "name": "_msg",
          "type": "bytes32"
        }
      ],
      "name": "LogBytes32",
      "type": "event"
    },
    {
      "anonymous": false,
      "inputs": [
        {
          "indexed": false,
          "name": "_msg",
          "type": "bool"
        }
      ],
      "name": "LogBool",
      "type": "event"
    },
    {
      "anonymous": false,
      "inputs": [
        {
          "indexed": true,
          "name": "previousOwner",
          "type": "address"
        },
        {
          "indexed": true,
          "name": "newOwner",
          "type": "address"
        }
      ],
      "name": "OwnershipTransferred",
      "type": "event"
    }
  ],
  "bytecode": "0x6060604052341561000f57600080fd5b6040516020806112b483398101604052808051906020019091905050336000806101000a81548173ffffffffffffffffffffffffffffffffffffffff021916908373ffffffffffffffffffffffffffffffffffffffff16021790555080600160006101000a81548173ffffffffffffffffffffffffffffffffffffffff021916908373ffffffffffffffffffffffffffffffffffffffff160217905550600160009054906101000a900473ffffffffffffffffffffffffffffffffffffffff1673ffffffffffffffffffffffffffffffffffffffff1663358177736000604051602001526040518163ffffffff167c010000000000000000000000000000000000000000000000000000000002815260040180806020018281038252600c8152602001807f5573657252656769737472790000000000000000000000000000000000000000815250602001915050602060405180830381600087803b151561017657600080fd5b6102c65a03f1151561018757600080fd5b50505060405180519050600260006101000a81548173ffffffffffffffffffffffffffffffffffffffff021916908373ffffffffffffffffffffffffffffffffffffffff160217905550600160009054906101000a900473ffffffffffffffffffffffffffffffffffffffff1673ffffffffffffffffffffffffffffffffffffffff1663358177736000604051602001526040518163ffffffff167c010000000000000000000000000000000000000000000000000000000002815260040180806020018281038252600d8152602001807f566964656f526567697374727900000000000000000000000000000000000000815250602001915050602060405180830381600087803b151561029b57600080fd5b6102c65a03f115156102ac57600080fd5b50505060405180519050600360006101000a81548173ffffffffffffffffffffffffffffffffffffffff021916908373ffffffffffffffffffffffffffffffffffffffff160217905550600160009054906101000a900473ffffffffffffffffffffffffffffffffffffffff1673ffffffffffffffffffffffffffffffffffffffff1663358177736000604051602001526040518163ffffffff167c010000000000000000000000000000000000000000000000000000000002815260040180806020018281038252600d8152602001807f5061726174696941766174617200000000000000000000000000000000000000815250602001915050602060405180830381600087803b15156103c057600080fd5b6102c65a03f115156103d157600080fd5b50505060405180519050600460006101000a81548173ffffffffffffffffffffffffffffffffffffffff021916908373ffffffffffffffffffffffffffffffffffffffff16021790555050610e898061042b6000396000f30060606040526004361061008e576000357c0100000000000000000000000000000000000000000000000000000000900463ffffffff1680631586f0f71461009e5780635c7460d6146100f35780638da5cb5b146101485780639e20f7891461019d578063b3a63b20146101f2578063f2fde38b14610267578063f6936c87146102a0578063f6f02ccd14610310575b341561009957600080fd5b600080fd5b34156100a957600080fd5b6100b1610365565b604051808273ffffffffffffffffffffffffffffffffffffffff1673ffffffffffffffffffffffffffffffffffffffff16815260200191505060405180910390f35b34156100fe57600080fd5b61010661038b565b604051808273ffffffffffffffffffffffffffffffffffffffff1673ffffffffffffffffffffffffffffffffffffffff16815260200191505060405180910390f35b341561015357600080fd5b61015b6103b1565b604051808273ffffffffffffffffffffffffffffffffffffffff1673ffffffffffffffffffffffffffffffffffffffff16815260200191505060405180910390f35b34156101a857600080fd5b6101b06103d6565b604051808273ffffffffffffffffffffffffffffffffffffffff1673ffffffffffffffffffffffffffffffffffffffff16815260200191505060405180910390f35b34156101fd57600080fd5b61024d600480803590602001908201803590602001908080601f016020809104026020016040519081016040528093929190818152602001838380828437820191505050505050919050506103fc565b604051808215151515815260200191505060405180910390f35b341561027257600080fd5b61029e600480803573ffffffffffffffffffffffffffffffffffffffff16906020019091905050610ae8565b005b34156102ab57600080fd5b6102ce600480803560001916906020019091908035906020019091905050610c3d565b604051808273ffffffffffffffffffffffffffffffffffffffff1673ffffffffffffffffffffffffffffffffffffffff16815260200191505060405180910390f35b341561031b57600080fd5b610323610c8b565b604051808273ffffffffffffffffffffffffffffffffffffffff1673ffffffffffffffffffffffffffffffffffffffff16815260200191505060405180910390f35b600360009054906101000a900473ffffffffffffffffffffffffffffffffffffffff1681565b600260009054906101000a900473ffffffffffffffffffffffffffffffffffffffff1681565b6000809054906101000a900473ffffffffffffffffffffffffffffffffffffffff1681565b600160009054906101000a900473ffffffffffffffffffffffffffffffffffffffff1681565b600080600080600080600080600360009054906101000a900473ffffffffffffffffffffffffffffffffffffffff1673ffffffffffffffffffffffffffffffffffffffff1663d6b5e9138a6000604051608001526040518263ffffffff167c01000000000000000000000000000000000000000000000000000000000281526004018080602001828103825283818151815260200191508051906020019080838360005b838110156104bb5780820151818401526020810190506104a0565b50505050905090810190601f1680156104e85780820380516001836020036101000a031916815260200191505b5092505050608060405180830381600087803b151561050657600080fd5b6102c65a03f1151561051757600080fd5b505050604051805190602001805190602001805190602001805190509650965096509650339250610572670de0b6b3a7640000610564610555610cb1565b89610d9d90919063ffffffff16565b610dd890919063ffffffff16565b9150600460009054906101000a900473ffffffffffffffffffffffffffffffffffffffff1673ffffffffffffffffffffffffffffffffffffffff166323b872dd84600460009054906101000a900473ffffffffffffffffffffffffffffffffffffffff16856000604051602001526040518463ffffffff167c0100000000000000000000000000000000000000000000000000000000028152600401808473ffffffffffffffffffffffffffffffffffffffff1673ffffffffffffffffffffffffffffffffffffffff1681526020018373ffffffffffffffffffffffffffffffffffffffff1673ffffffffffffffffffffffffffffffffffffffff1681526020018281526020019350505050602060405180830381600087803b151561069757600080fd5b6102c65a03f115156106a857600080fd5b50505060405180519050506106c68287610df390919063ffffffff16565b9050600460009054906101000a900473ffffffffffffffffffffffffffffffffffffffff1673ffffffffffffffffffffffffffffffffffffffff166323b872dd8489846000604051602001526040518463ffffffff167c0100000000000000000000000000000000000000000000000000000000028152600401808473ffffffffffffffffffffffffffffffffffffffff1673ffffffffffffffffffffffffffffffffffffffff1681526020018373ffffffffffffffffffffffffffffffffffffffff1673ffffffffffffffffffffffffffffffffffffffff1681526020018281526020019350505050602060405180830381600087803b15156107c957600080fd5b6102c65a03f115156107da57600080fd5b5050506040518051905050600260009054906101000a900473ffffffffffffffffffffffffffffffffffffffff1673ffffffffffffffffffffffffffffffffffffffff1663738e48958a856040518363ffffffff167c010000000000000000000000000000000000000000000000000000000002815260040180806020018373ffffffffffffffffffffffffffffffffffffffff1673ffffffffffffffffffffffffffffffffffffffff168152602001828103825284818151815260200191508051906020019080838360005b838110156108c25780820151818401526020810190506108a7565b50505050905090810190601f1680156108ef5780820380516001836020036101000a031916815260200191505b509350505050600060405180830381600087803b151561090e57600080fd5b6102c65a03f1151561091f57600080fd5b505050600560008a6040518082805190602001908083835b60208310151561095c5780518252602082019150602081019050602083039250610937565b6001836020036101000a03801982511681845116808217855250505050505090500191505060405180910390206000191660001916815260200190815260200160002080548060010182816109b19190610e0c565b9160005260206000209001600085909190916101000a81548173ffffffffffffffffffffffffffffffffffffffff021916908373ffffffffffffffffffffffffffffffffffffffff160217905550507ffb16a0cb01447521c51cd70864c5a9fa252ff62fcff41f679b24426dc4793e2789848860405180806020018473ffffffffffffffffffffffffffffffffffffffff1673ffffffffffffffffffffffffffffffffffffffff168152602001838152602001828103825285818151815260200191508051906020019080838360005b83811015610a9c578082015181840152602081019050610a81565b50505050905090810190601f168015610ac95780820380516001836020036101000a031916815260200191505b5094505050505060405180910390a16001975050505050505050919050565b6000809054906101000a900473ffffffffffffffffffffffffffffffffffffffff1673ffffffffffffffffffffffffffffffffffffffff163373ffffffffffffffffffffffffffffffffffffffff16141515610b4357600080fd5b600073ffffffffffffffffffffffffffffffffffffffff168173ffffffffffffffffffffffffffffffffffffffff1614151515610b7f57600080fd5b8073ffffffffffffffffffffffffffffffffffffffff166000809054906101000a900473ffffffffffffffffffffffffffffffffffffffff1673ffffffffffffffffffffffffffffffffffffffff167f8be0079c531659141344cd1fd0a4f28419497f9722a3daafe3b4186f6b6457e060405160405180910390a3806000806101000a81548173ffffffffffffffffffffffffffffffffffffffff021916908373ffffffffffffffffffffffffffffffffffffffff16021790555050565b600560205281600052604060002081815481101515610c5857fe5b90600052602060002090016000915091509054906101000a900473ffffffffffffffffffffffffffffffffffffffff1681565b600460009054906101000a900473ffffffffffffffffffffffffffffffffffffffff1681565b6000600160009054906101000a900473ffffffffffffffffffffffffffffffffffffffff1673ffffffffffffffffffffffffffffffffffffffff1663498bff006000604051602001526040518163ffffffff167c010000000000000000000000000000000000000000000000000000000002815260040180806020018281038252601c8152602001807f566964656f5265646973747269627574696f6e506f6f6c536861726500000000815250602001915050602060405180830381600087803b1515610d7d57600080fd5b6102c65a03f11515610d8e57600080fd5b50505060405180519050905090565b6000806000841415610db25760009150610dd1565b8284029050828482811515610dc357fe5b04141515610dcd57fe5b8091505b5092915050565b6000808284811515610de657fe5b0490508091505092915050565b6000828211151515610e0157fe5b818303905092915050565b815481835581811511610e3357818360005260206000209182019101610e329190610e38565b5b505050565b610e5a91905b80821115610e56576000816000905550600101610e3e565b5090565b905600a165627a7a7230582085b4c98f67a4e8cbb6a7201e696fed7a7fadc64ac53ebac4b940290935e7a7410029",
  "source": "pragma solidity ^0.4.18;\n\nimport 'zeppelin-solidity/contracts/math/SafeMath.sol';\nimport './ParatiiAvatar.sol';\nimport './ParatiiToken.sol';\nimport './VideoRegistry.sol';\nimport './UserRegistry.sol';\nimport './ParatiiRegistry.sol';\nimport \"../debug/Debug.sol\";\n\n\n/**\n * @title VideoStore\n * @dev A Contract that wraps the native transfer function and logs an event.\n */\n\ncontract VideoStore is Ownable, Debug {\n\n    using SafeMath for uint256;\n\n    ParatiiRegistry public paratiiRegistry;\n    UserRegistry public userRegistry;\n    VideoRegistry public videoRegistry;\n    ParatiiAvatar public paratiiAvatar;\n\n    // Registers sales of video by tracking users that bought it\n    // Maps hashes if videoIds to addresses of users that purchased them\n    mapping (bytes32 => address[]) public videoSales;\n\n    event LogBuyVideo(\n      string videoId,\n      address buyer,\n      uint256 price\n    );\n\n    function VideoStore(ParatiiRegistry _paratiiRegistry) public {\n      paratiiRegistry = _paratiiRegistry;\n      userRegistry = UserRegistry(paratiiRegistry.getContract(\"UserRegistry\"));\n      videoRegistry = VideoRegistry(paratiiRegistry.getContract(\"VideoRegistry\"));\n      paratiiAvatar = ParatiiAvatar(paratiiRegistry.getContract('ParatiiAvatar'));\n    }\n\n    // If someone accidentally sends ether to this contract, revert;\n    function () public {\n        revert();\n    }\n\n    /**\n     * @dev buyVideo msg.sender buys a video\n     * For the transaction to succeed, the buyer must have approved for the ParatiiAvatar to transfer\n     * the sum to the owner and the redistribution pool.\n     * [TODO] The fact that the user has bought this video will be registred in the VideoRegistry.\n     * A successful transaction logs the LogBuyVideo event\n     */\n    function buyVideo(string videoId) public returns(bool)  {\n       // get the info about the video\n       var (owner, price, _ipfsHash, _registrar) = videoRegistry.getVideoInfo(videoId);\n       address buyer = msg.sender;\n       uint256 paratiiPart = price.mul(redistributionPoolShare()).div(10 ** 18);\n       paratiiAvatar.transferFrom(buyer, address(paratiiAvatar),  paratiiPart);\n       uint256 ownerPart = price.sub(paratiiPart);\n       paratiiAvatar.transferFrom(buyer, owner, ownerPart);\n       userRegistry.acquireVideo(videoId, buyer);\n       videoSales[keccak256(videoId)].push(buyer);\n       LogBuyVideo(videoId, buyer, price);\n       return true;\n    }\n\n    function redistributionPoolShare() internal constant returns(uint256) {\n        // the \"percentage\" in precision 10**18\n        return paratiiRegistry.getUint('VideoRedistributionPoolShare');\n    }\n}\n",
  "sourcePath": "/media/data/projects/paratii/paratii-contracts/contracts/paratii/VideoStore.sol",
  "compiler": {
    "name": "solc",
    "version": "0.4.18+commit.9cf6e910.Emscripten.clang"
  },
  "schemaVersion": "1.0.1",
  "updatedAt": "2017-12-12T09:22:25.306Z"
}