{
  "contractName": "Videos",
  "abi": [
    {
      "constant": false,
      "inputs": [
        {
          "name": "_videoId",
          "type": "string"
        },
        {
          "name": "_owner",
          "type": "address"
        },
        {
          "name": "_price",
          "type": "uint256"
        },
        {
          "name": "_ipfsHash",
          "type": "string"
        },
        {
          "name": "_ipfsData",
          "type": "string"
        }
      ],
      "name": "create",
      "outputs": [],
      "payable": false,
      "stateMutability": "nonpayable",
      "type": "function"
    },
    {
      "constant": true,
      "inputs": [
        {
          "name": "_videoId",
          "type": "string"
        }
      ],
      "name": "get",
      "outputs": [
        {
          "name": "",
          "type": "address"
        },
        {
          "name": "",
          "type": "uint256"
        },
        {
          "name": "",
          "type": "string"
        },
        {
          "name": "",
          "type": "string"
        },
        {
          "name": "",
          "type": "address"
        }
      ],
      "payable": false,
      "stateMutability": "view",
      "type": "function"
    },
    {
      "constant": false,
      "inputs": [
        {
          "name": "_videoId",
          "type": "string"
        }
      ],
      "name": "remove",
      "outputs": [],
      "payable": false,
      "stateMutability": "nonpayable",
      "type": "function"
    },
    {
      "constant": true,
      "inputs": [],
      "name": "owner",
      "outputs": [
        {
          "name": "",
          "type": "address"
        }
      ],
      "payable": false,
      "stateMutability": "view",
      "type": "function"
    },
    {
      "constant": true,
      "inputs": [],
      "name": "paratiiRegistry",
      "outputs": [
        {
          "name": "",
          "type": "address"
        }
      ],
      "payable": false,
      "stateMutability": "view",
      "type": "function"
    },
    {
      "constant": false,
      "inputs": [
        {
          "name": "newOwner",
          "type": "address"
        }
      ],
      "name": "transferOwnership",
      "outputs": [],
      "payable": false,
      "stateMutability": "nonpayable",
      "type": "function"
    },
    {
      "inputs": [
        {
          "name": "_paratiiRegistry",
          "type": "address"
        }
      ],
      "payable": false,
      "stateMutability": "nonpayable",
      "type": "constructor"
    },
    {
      "anonymous": false,
      "inputs": [
        {
          "indexed": false,
          "name": "videoId",
          "type": "string"
        },
        {
          "indexed": false,
          "name": "owner",
          "type": "address"
        },
        {
          "indexed": false,
          "name": "price",
          "type": "uint256"
        },
        {
          "indexed": false,
          "name": "ipfsHash",
          "type": "string"
        },
        {
          "indexed": false,
          "name": "registrar",
          "type": "address"
        }
      ],
      "name": "LogCreateVideo",
      "type": "event"
    },
    {
      "anonymous": false,
      "inputs": [
        {
          "indexed": false,
          "name": "videoId",
          "type": "string"
        }
      ],
      "name": "LogRemoveVideo",
      "type": "event"
    },
    {
      "anonymous": false,
      "inputs": [
        {
          "indexed": true,
          "name": "previousOwner",
          "type": "address"
        },
        {
          "indexed": true,
          "name": "newOwner",
          "type": "address"
        }
      ],
      "name": "OwnershipTransferred",
      "type": "event"
    }
  ],
  "bytecode": "0x6060604052341561000f57600080fd5b60405160208061126783398101604052808051906020019091905050336000806101000a81548173ffffffffffffffffffffffffffffffffffffffff021916908373ffffffffffffffffffffffffffffffffffffffff160217905550336000806101000a81548173ffffffffffffffffffffffffffffffffffffffff021916908373ffffffffffffffffffffffffffffffffffffffff16021790555080600260006101000a81548173ffffffffffffffffffffffffffffffffffffffff021916908373ffffffffffffffffffffffffffffffffffffffff1602179055505061116b806100fc6000396000f300606060405260043610610078576000357c0100000000000000000000000000000000000000000000000000000000900463ffffffff1680633104e0b71461007d578063693ec85e1461018857806380599e4b146103375780638da5cb5b146103945780639e20f789146103e9578063f2fde38b1461043e575b600080fd5b341561008857600080fd5b610186600480803590602001908201803590602001908080601f0160208091040260200160405190810160405280939291908181526020018383808284378201915050505050509190803573ffffffffffffffffffffffffffffffffffffffff1690602001909190803590602001909190803590602001908201803590602001908080601f0160208091040260200160405190810160405280939291908181526020018383808284378201915050505050509190803590602001908201803590602001908080601f01602080910402602001604051908101604052809392919081815260200183838082843782019150505050505091905050610477565b005b341561019357600080fd5b6101e3600480803590602001908201803590602001908080601f01602080910402602001604051908101604052809392919081815260200183838082843782019150505050505091905050610940565b604051808673ffffffffffffffffffffffffffffffffffffffff1673ffffffffffffffffffffffffffffffffffffffff16815260200185815260200180602001806020018473ffffffffffffffffffffffffffffffffffffffff1673ffffffffffffffffffffffffffffffffffffffff168152602001838103835286818151815260200191508051906020019080838360005b83811015610291578082015181840152602081019050610276565b50505050905090810190601f1680156102be5780820380516001836020036101000a031916815260200191505b50838103825285818151815260200191508051906020019080838360005b838110156102f75780820151818401526020810190506102dc565b50505050905090810190601f1680156103245780820380516001836020036101000a031916815260200191505b5097505050505050505060405180910390f35b341561034257600080fd5b610392600480803590602001908201803590602001908080601f01602080910402602001604051908101604052809392919081815260200183838082843782019150505050505091905050610b78565b005b341561039f57600080fd5b6103a7610e9e565b604051808273ffffffffffffffffffffffffffffffffffffffff1673ffffffffffffffffffffffffffffffffffffffff16815260200191505060405180910390f35b34156103f457600080fd5b6103fc610ec3565b604051808273ffffffffffffffffffffffffffffffffffffffff1673ffffffffffffffffffffffffffffffffffffffff16815260200191505060405180910390f35b341561044957600080fd5b610475600480803573ffffffffffffffffffffffffffffffffffffffff16906020019091905050610ee9565b005b600085600080826040518082805190602001908083835b6020831015156104b3578051825260208201915060208101905060208303925061048e565b6001836020036101000a0380198251168184511680821785525050505050509050019150506040518091039020915060016000836000191660001916815260200190815260200160002090506000809054906101000a900473ffffffffffffffffffffffffffffffffffffffff1673ffffffffffffffffffffffffffffffffffffffff163373ffffffffffffffffffffffffffffffffffffffff1614806105ee575060008160050160009054906101000a900473ffffffffffffffffffffffffffffffffffffffff1673ffffffffffffffffffffffffffffffffffffffff1614806105ed57508060050160009054906101000a900473ffffffffffffffffffffffffffffffffffffffff1673ffffffffffffffffffffffffffffffffffffffff163373ffffffffffffffffffffffffffffffffffffffff16145b5b15156105f957600080fd5b886040518082805190602001908083835b60208310151561062f578051825260208201915060208101905060208303925061060a565b6001836020036101000a0380198251168184511680821785525050505050509050019150506040518091039020935060c060405190810160405280856000191681526020018781526020018681526020018881526020018973ffffffffffffffffffffffffffffffffffffffff1681526020013373ffffffffffffffffffffffffffffffffffffffff1681525060016000866000191660001916815260200190815260200160002060008201518160000190600019169055602082015181600101908051906020019061070392919061103e565b50604082015181600201908051906020019061072092919061103e565b506060820151816003015560808201518160040160006101000a81548173ffffffffffffffffffffffffffffffffffffffff021916908373ffffffffffffffffffffffffffffffffffffffff16021790555060a08201518160050160006101000a81548173ffffffffffffffffffffffffffffffffffffffff021916908373ffffffffffffffffffffffffffffffffffffffff1602179055509050507f59321831bdbb477d694f9f2f098d8c0ff62920a085a1cf42210377162ad40bb6898989893360405180806020018673ffffffffffffffffffffffffffffffffffffffff1673ffffffffffffffffffffffffffffffffffffffff168152602001858152602001806020018473ffffffffffffffffffffffffffffffffffffffff1673ffffffffffffffffffffffffffffffffffffffff168152602001838103835288818151815260200191508051906020019080838360005b83811015610890578082015181840152602081019050610875565b50505050905090810190601f1680156108bd5780820380516001836020036101000a031916815260200191505b50838103825285818151815260200191508051906020019080838360005b838110156108f65780820151818401526020810190506108db565b50505050905090810190601f1680156109235780820380516001836020036101000a031916815260200191505b5097505050505050505060405180910390a1505050505050505050565b60008061094b6110be565b6109536110be565b60008060016000886040518082805190602001908083835b602083101515610990578051825260208201915060208101905060208303925061096b565b6001836020036101000a03801982511681845116808217855250505050505090500191505060405180910390206000191660001916815260200190815260200160002090508060040160009054906101000a900473ffffffffffffffffffffffffffffffffffffffff16816003015482600101836002018460050160009054906101000a900473ffffffffffffffffffffffffffffffffffffffff16828054600181600116156101000203166002900480601f016020809104026020016040519081016040528092919081815260200182805460018160011615610100020316600290048015610ac15780601f10610a9657610100808354040283529160200191610ac1565b820191906000526020600020905b815481529060010190602001808311610aa457829003601f168201915b50505050509250818054600181600116156101000203166002900480601f016020809104026020016040519081016040528092919081815260200182805460018160011615610100020316600290048015610b5d5780601f10610b3257610100808354040283529160200191610b5d565b820191906000526020600020905b815481529060010190602001808311610b4057829003601f168201915b50505050509150955095509550955095505091939590929450565b600081600080826040518082805190602001908083835b602083101515610bb45780518252602082019150602081019050602083039250610b8f565b6001836020036101000a0380198251168184511680821785525050505050509050019150506040518091039020915060016000836000191660001916815260200190815260200160002090506000809054906101000a900473ffffffffffffffffffffffffffffffffffffffff1673ffffffffffffffffffffffffffffffffffffffff163373ffffffffffffffffffffffffffffffffffffffff161480610cef575060008160050160009054906101000a900473ffffffffffffffffffffffffffffffffffffffff1673ffffffffffffffffffffffffffffffffffffffff161480610cee57508060050160009054906101000a900473ffffffffffffffffffffffffffffffffffffffff1673ffffffffffffffffffffffffffffffffffffffff163373ffffffffffffffffffffffffffffffffffffffff16145b5b1515610cfa57600080fd5b846040518082805190602001908083835b602083101515610d305780518252602082019150602081019050602083039250610d0b565b6001836020036101000a03801982511681845116808217855250505050505090500191505060405180910390209350600160008560001916600019168152602001908152602001600020600080820160009055600182016000610d9391906110d2565b600282016000610da391906110d2565b60038201600090556004820160006101000a81549073ffffffffffffffffffffffffffffffffffffffff02191690556005820160006101000a81549073ffffffffffffffffffffffffffffffffffffffff021916905550507f592a19ecda39f9bdfc71b1f128f024319cff48402f55ccf171b0878d5b69b7d5856040518080602001828103825283818151815260200191508051906020019080838360005b83811015610e5d578082015181840152602081019050610e42565b50505050905090810190601f168015610e8a5780820380516001836020036101000a031916815260200191505b509250505060405180910390a15050505050565b6000809054906101000a900473ffffffffffffffffffffffffffffffffffffffff1681565b600260009054906101000a900473ffffffffffffffffffffffffffffffffffffffff1681565b6000809054906101000a900473ffffffffffffffffffffffffffffffffffffffff1673ffffffffffffffffffffffffffffffffffffffff163373ffffffffffffffffffffffffffffffffffffffff16141515610f4457600080fd5b600073ffffffffffffffffffffffffffffffffffffffff168173ffffffffffffffffffffffffffffffffffffffff1614151515610f8057600080fd5b8073ffffffffffffffffffffffffffffffffffffffff166000809054906101000a900473ffffffffffffffffffffffffffffffffffffffff1673ffffffffffffffffffffffffffffffffffffffff167f8be0079c531659141344cd1fd0a4f28419497f9722a3daafe3b4186f6b6457e060405160405180910390a3806000806101000a81548173ffffffffffffffffffffffffffffffffffffffff021916908373ffffffffffffffffffffffffffffffffffffffff16021790555050565b828054600181600116156101000203166002900490600052602060002090601f016020900481019282601f1061107f57805160ff19168380011785556110ad565b828001600101855582156110ad579182015b828111156110ac578251825591602001919060010190611091565b5b5090506110ba919061111a565b5090565b602060405190810160405280600081525090565b50805460018160011615610100020316600290046000825580601f106110f85750611117565b601f016020900490600052602060002090810190611116919061111a565b5b50565b61113c91905b80821115611138576000816000905550600101611120565b5090565b905600a165627a7a72305820eba8e01d528cb034f6058b49f9404b67f52d2608a5e5cf82af4491299bb73cee0029",
  "source": "pragma solidity ^0.4.18;\n\nimport \"zeppelin-solidity/contracts/ownership/Ownable.sol\";\nimport 'zeppelin-solidity/contracts/math/SafeMath.sol';\nimport './Registry.sol';\n\ncontract Videos is Ownable {\n\n    struct VideoInfo {\n      bytes32 _id;\n      string ipfsHash;\n      string ipfsData;\n      uint256 price; // price in PTI-wei\n      address owner;\n      address registrar; // the account that has registered this video\n    }\n\n    mapping (bytes32=>VideoInfo) videos;\n    Registry public paratiiRegistry;\n\n    event LogCreateVideo(\n      string videoId,\n      address owner,\n      uint price,\n      string ipfsHash,\n      address registrar\n    );\n\n    event LogRemoveVideo(string videoId);\n\n    // ???\n    modifier onlyUserRegistry() {\n        require(msg.sender == paratiiRegistry.getContract('Users'));\n        _;\n    }\n\n    modifier onlyRegistrarOrAvatar(string _videoId) {\n      bytes32 id = keccak256(_videoId);\n      VideoInfo storage videoInfo = videos[id];\n      require(msg.sender == owner || (videoInfo.registrar == 0 || msg.sender == videoInfo.registrar));\n      _;\n    }\n\n    function Videos(Registry _paratiiRegistry) public {\n        owner = msg.sender;\n        paratiiRegistry = _paratiiRegistry;\n    }\n\n    /**\n     * @dev Register a video\n     * @param _videoId id of the video, can be any string\n     * @param _owner the address of the owner of this video\n     * @param _price the price in wei of this video\n     * @param _ipfsHash the IPFS hash where a directory with videos in different formats can be found\n     * @param _ipfsData the IPFS hash where a JSON with further information about htis video can be found\n     **/\n\n    function create(\n        string _videoId,\n        address _owner,\n        uint256 _price,\n        string _ipfsHash,\n        string _ipfsData\n    ) onlyRegistrarOrAvatar(_videoId) public {\n\n        bytes32 id = keccak256(_videoId);\n\n        videos[id] = VideoInfo({\n            _id: id,\n            price: _price,\n            owner: _owner,\n            ipfsHash: _ipfsHash,\n            ipfsData: _ipfsData,\n            registrar: msg.sender\n          });\n\n        LogCreateVideo(_videoId, _owner, _price, _ipfsHash, msg.sender);\n    }\n\n    function remove(string _videoId) public onlyRegistrarOrAvatar(_videoId) {\n        bytes32 id = keccak256(_videoId);\n        delete videos[id];\n        LogRemoveVideo(_videoId);\n    }\n\n    /**\n     * @dev return information about video\n     * @return a tuple (owner, price, ipfsHash, ipfsData, registrar)\n     */\n\n    function get(string _videoId) public constant\n      returns(address, uint256, string, string, address)\n    {\n      VideoInfo storage videoInfo = videos[keccak256(_videoId)];\n      return (videoInfo.owner, videoInfo.price, videoInfo.ipfsHash, videoInfo.ipfsData, videoInfo.registrar);\n    }\n/*\n    function likeVideo(string _videoId, bool changed_opinion) public onlyUserRegistry {\n         VideoInfo storage videoInfo = videos[keccak256(_videoId)];\n         videoInfo.stats.likes = videoInfo.stats.likes + 1;\n\n         if (changed_opinion) {\n             videoInfo.stats.dislikes = videoInfo.stats.dislikes - 1;\n         }\n    }\n\n    function dislikeVideo(string _videoId, bool changed_opinion) public onlyUserRegistry {\n         VideoInfo storage videoInfo = videos[keccak256(_videoId)];\n         videoInfo.stats.dislikes = videoInfo.stats.dislikes + 1;\n\n         if (changed_opinion) {\n             videoInfo.stats.likes = videoInfo.stats.likes - 1;\n         }\n    }\n\n    function getStats(string _videoId) public constant returns (uint256, uint256, uint256) {\n         VideoInfo storage videoInfo = videos[keccak256(_videoId)];\n         Stats storage stats = videoInfo.stats;\n         return (stats.views, stats.likes, stats.dislikes);\n    }*/\n}\n",
  "sourcePath": "/media/data/projects/paratii/paratii-contracts/contracts/paratii/Videos.sol",
  "compiler": {
    "name": "solc",
    "version": "0.4.18+commit.9cf6e910.Emscripten.clang"
  },
  "schemaVersion": "1.0.1",
  "updatedAt": "2018-01-03T09:57:36.222Z"
}