{
  "contractName": "Views",
  "abi": [
    {
      "constant": true,
      "inputs": [],
      "name": "registry",
      "outputs": [
        {
          "name": "",
          "type": "address"
        }
      ],
      "payable": false,
      "stateMutability": "view",
      "type": "function"
    },
    {
      "constant": true,
      "inputs": [],
      "name": "owner",
      "outputs": [
        {
          "name": "",
          "type": "address"
        }
      ],
      "payable": false,
      "stateMutability": "view",
      "type": "function"
    },
    {
      "constant": false,
      "inputs": [
        {
          "name": "newOwner",
          "type": "address"
        }
      ],
      "name": "transferOwnership",
      "outputs": [],
      "payable": false,
      "stateMutability": "nonpayable",
      "type": "function"
    },
    {
      "inputs": [
        {
          "name": "_registry",
          "type": "address"
        }
      ],
      "payable": false,
      "stateMutability": "nonpayable",
      "type": "constructor"
    },
    {
      "anonymous": false,
      "inputs": [
        {
          "indexed": false,
          "name": "_address",
          "type": "address"
        },
        {
          "indexed": false,
          "name": "_videoId",
          "type": "string"
        },
        {
          "indexed": false,
          "name": "_ipfsData",
          "type": "string"
        }
      ],
      "name": "LogCreateView",
      "type": "event"
    },
    {
      "anonymous": false,
      "inputs": [
        {
          "indexed": false,
          "name": "_address",
          "type": "address"
        },
        {
          "indexed": false,
          "name": "_videoId",
          "type": "string"
        }
      ],
      "name": "LogRemoveView",
      "type": "event"
    },
    {
      "anonymous": false,
      "inputs": [
        {
          "indexed": true,
          "name": "previousOwner",
          "type": "address"
        },
        {
          "indexed": true,
          "name": "newOwner",
          "type": "address"
        }
      ],
      "name": "OwnershipTransferred",
      "type": "event"
    },
    {
      "constant": false,
      "inputs": [
        {
          "name": "_viewer",
          "type": "address"
        },
        {
          "name": "_videoId",
          "type": "string"
        },
        {
          "name": "_ipfsData",
          "type": "string"
        }
      ],
      "name": "create",
      "outputs": [],
      "payable": false,
      "stateMutability": "nonpayable",
      "type": "function"
    },
    {
      "constant": false,
      "inputs": [
        {
          "name": "_viewer",
          "type": "address"
        },
        {
          "name": "_videoId",
          "type": "string"
        }
      ],
      "name": "remove",
      "outputs": [],
      "payable": false,
      "stateMutability": "nonpayable",
      "type": "function"
    },
    {
      "constant": true,
      "inputs": [
        {
          "name": "_viewer",
          "type": "address"
        },
        {
          "name": "_videoId",
          "type": "string"
        }
      ],
      "name": "get",
      "outputs": [
        {
          "name": "",
          "type": "bool"
        },
        {
          "name": "",
          "type": "string"
        }
      ],
      "payable": false,
      "stateMutability": "view",
      "type": "function"
    },
    {
      "constant": true,
      "inputs": [
        {
          "name": "_viewer",
          "type": "address"
        },
        {
          "name": "_videoId",
          "type": "string"
        }
      ],
      "name": "userViewedVideo",
      "outputs": [
        {
          "name": "",
          "type": "bool"
        }
      ],
      "payable": false,
      "stateMutability": "view",
      "type": "function"
    }
  ],
  "bytecode": "0x608060405234801561001057600080fd5b506040516020806114f183398101806040528101908080519060200190929190505050336000806101000a81548173ffffffffffffffffffffffffffffffffffffffff021916908373ffffffffffffffffffffffffffffffffffffffff160217905550336000806101000a81548173ffffffffffffffffffffffffffffffffffffffff021916908373ffffffffffffffffffffffffffffffffffffffff16021790555080600160006101000a81548173ffffffffffffffffffffffffffffffffffffffff021916908373ffffffffffffffffffffffffffffffffffffffff160217905550506113ed806101046000396000f300608060405260043610610083576000357c0100000000000000000000000000000000000000000000000000000000900463ffffffff16806349209fc814610088578063796d5836146101115780637b103999146101e05780638da5cb5b146102375780638fe001a51461028e578063f2fde38b1461032f578063fc2525ab14610372575b600080fd5b34801561009457600080fd5b5061010f600480360381019080803573ffffffffffffffffffffffffffffffffffffffff169060200190929190803590602001908201803590602001908080601f016020809104026020016040519081016040528093929190818152602001838380828437820191505050505050919291929050505061047f565b005b34801561011d57600080fd5b506101de600480360381019080803573ffffffffffffffffffffffffffffffffffffffff169060200190929190803590602001908201803590602001908080601f0160208091040260200160405190810160405280939291908181526020018383808284378201915050505050509192919290803590602001908201803590602001908080601f016020809104026020016040519081016040528093929190818152602001838380828437820191505050505050919291929050505061082d565b005b3480156101ec57600080fd5b506101f5610c7a565b604051808273ffffffffffffffffffffffffffffffffffffffff1673ffffffffffffffffffffffffffffffffffffffff16815260200191505060405180910390f35b34801561024357600080fd5b5061024c610ca0565b604051808273ffffffffffffffffffffffffffffffffffffffff1673ffffffffffffffffffffffffffffffffffffffff16815260200191505060405180910390f35b34801561029a57600080fd5b50610315600480360381019080803573ffffffffffffffffffffffffffffffffffffffff169060200190929190803590602001908201803590602001908080601f0160208091040260200160405190810160405280939291908181526020018383808284378201915050505050509192919290505050610cc5565b604051808215151515815260200191505060405180910390f35b34801561033b57600080fd5b50610370600480360381019080803573ffffffffffffffffffffffffffffffffffffffff169060200190929190505050610e06565b005b34801561037e57600080fd5b506103f9600480360381019080803573ffffffffffffffffffffffffffffffffffffffff169060200190929190803590602001908201803590602001908080601f0160208091040260200160405190810160405280939291908181526020018383808284378201915050505050509192919290505050610f5b565b604051808315151515815260200180602001828103825283818151815260200191508051906020019080838360005b83811015610443578082015181840152602081019050610428565b50505050905090810190601f1680156104705780820380516001836020036101000a031916815260200191505b50935050505060405180910390f35b6000809054906101000a900473ffffffffffffffffffffffffffffffffffffffff1673ffffffffffffffffffffffffffffffffffffffff163373ffffffffffffffffffffffffffffffffffffffff1614806106015750600160009054906101000a900473ffffffffffffffffffffffffffffffffffffffff1673ffffffffffffffffffffffffffffffffffffffff1663358177736040518163ffffffff167c01000000000000000000000000000000000000000000000000000000000281526004018080602001828103825260068152602001807f4176617461720000000000000000000000000000000000000000000000000000815250602001915050602060405180830381600087803b15801561059757600080fd5b505af11580156105ab573d6000803e3d6000fd5b505050506040513d60208110156105c157600080fd5b810190808051906020019092919050505073ffffffffffffffffffffffffffffffffffffffff163373ffffffffffffffffffffffffffffffffffffffff16145b151561060c57600080fd5b600260008373ffffffffffffffffffffffffffffffffffffffff1673ffffffffffffffffffffffffffffffffffffffff1681526020019081526020016000206000826040516020018082805190602001908083835b6020831015156106865780518252602082019150602081019050602083039250610661565b6001836020036101000a0380198251168184511680821785525050505050509050019150506040516020818303038152906040526040518082805190602001908083835b6020831015156106ef57805182526020820191506020810190506020830392506106ca565b6001836020036101000a038019825116818451168082178552505050505050905001915050604051809103902060001916600019168152602001908152602001600020600080820160006101000a81549060ff021916905560018201600061075791906112d4565b50507f7ed2574507414d87ae20434a5bae56eef5c81885cd02fc205ce20d24356542328282604051808373ffffffffffffffffffffffffffffffffffffffff1673ffffffffffffffffffffffffffffffffffffffff16815260200180602001828103825283818151815260200191508051906020019080838360005b838110156107ee5780820151818401526020810190506107d3565b50505050905090810190601f16801561081b5780820380516001836020036101000a031916815260200191505b50935050505060405180910390a15050565b6000809054906101000a900473ffffffffffffffffffffffffffffffffffffffff1673ffffffffffffffffffffffffffffffffffffffff163373ffffffffffffffffffffffffffffffffffffffff1614806109af5750600160009054906101000a900473ffffffffffffffffffffffffffffffffffffffff1673ffffffffffffffffffffffffffffffffffffffff1663358177736040518163ffffffff167c01000000000000000000000000000000000000000000000000000000000281526004018080602001828103825260068152602001807f4176617461720000000000000000000000000000000000000000000000000000815250602001915050602060405180830381600087803b15801561094557600080fd5b505af1158015610959573d6000803e3d6000fd5b505050506040513d602081101561096f57600080fd5b810190808051906020019092919050505073ffffffffffffffffffffffffffffffffffffffff163373ffffffffffffffffffffffffffffffffffffffff16145b15156109ba57600080fd5b604080519081016040528060011515815260200182815250600260008573ffffffffffffffffffffffffffffffffffffffff1673ffffffffffffffffffffffffffffffffffffffff1681526020019081526020016000206000846040516020018082805190602001908083835b602083101515610a4c5780518252602082019150602081019050602083039250610a27565b6001836020036101000a0380198251168184511680821785525050505050509050019150506040516020818303038152906040526040518082805190602001908083835b602083101515610ab55780518252602082019150602081019050602083039250610a90565b6001836020036101000a03801982511681845116808217855250505050505090500191505060405180910390206000191660001916815260200190815260200160002060008201518160000160006101000a81548160ff0219169083151502179055506020820151816001019080519060200190610b3492919061131c565b509050507f73b2750ccaf84fc0cce582f3529304dc9e0b4b3b7e84ca44757a6abbfb9a2d81838383604051808473ffffffffffffffffffffffffffffffffffffffff1673ffffffffffffffffffffffffffffffffffffffff1681526020018060200180602001838103835285818151815260200191508051906020019080838360005b83811015610bd2578082015181840152602081019050610bb7565b50505050905090810190601f168015610bff5780820380516001836020036101000a031916815260200191505b50838103825284818151815260200191508051906020019080838360005b83811015610c38578082015181840152602081019050610c1d565b50505050905090810190601f168015610c655780820380516001836020036101000a031916815260200191505b509550505050505060405180910390a1505050565b600160009054906101000a900473ffffffffffffffffffffffffffffffffffffffff1681565b6000809054906101000a900473ffffffffffffffffffffffffffffffffffffffff1681565b6000600260008473ffffffffffffffffffffffffffffffffffffffff1673ffffffffffffffffffffffffffffffffffffffff1681526020019081526020016000206000836040516020018082805190602001908083835b602083101515610d415780518252602082019150602081019050602083039250610d1c565b6001836020036101000a0380198251168184511680821785525050505050509050019150506040516020818303038152906040526040518082805190602001908083835b602083101515610daa5780518252602082019150602081019050602083039250610d85565b6001836020036101000a03801982511681845116808217855250505050505090500191505060405180910390206000191660001916815260200190815260200160002060000160009054906101000a900460ff16905092915050565b6000809054906101000a900473ffffffffffffffffffffffffffffffffffffffff1673ffffffffffffffffffffffffffffffffffffffff163373ffffffffffffffffffffffffffffffffffffffff16141515610e6157600080fd5b600073ffffffffffffffffffffffffffffffffffffffff168173ffffffffffffffffffffffffffffffffffffffff1614151515610e9d57600080fd5b8073ffffffffffffffffffffffffffffffffffffffff166000809054906101000a900473ffffffffffffffffffffffffffffffffffffffff1673ffffffffffffffffffffffffffffffffffffffff167f8be0079c531659141344cd1fd0a4f28419497f9722a3daafe3b4186f6b6457e060405160405180910390a3806000806101000a81548173ffffffffffffffffffffffffffffffffffffffff021916908373ffffffffffffffffffffffffffffffffffffffff16021790555050565b6000606060008060009054906101000a900473ffffffffffffffffffffffffffffffffffffffff1673ffffffffffffffffffffffffffffffffffffffff163373ffffffffffffffffffffffffffffffffffffffff1614806110e35750600160009054906101000a900473ffffffffffffffffffffffffffffffffffffffff1673ffffffffffffffffffffffffffffffffffffffff1663358177736040518163ffffffff167c01000000000000000000000000000000000000000000000000000000000281526004018080602001828103825260068152602001807f4176617461720000000000000000000000000000000000000000000000000000815250602001915050602060405180830381600087803b15801561107957600080fd5b505af115801561108d573d6000803e3d6000fd5b505050506040513d60208110156110a357600080fd5b810190808051906020019092919050505073ffffffffffffffffffffffffffffffffffffffff163373ffffffffffffffffffffffffffffffffffffffff16145b15156110ee57600080fd5b600260008673ffffffffffffffffffffffffffffffffffffffff1673ffffffffffffffffffffffffffffffffffffffff1681526020019081526020016000206000856040516020018082805190602001908083835b6020831015156111685780518252602082019150602081019050602083039250611143565b6001836020036101000a0380198251168184511680821785525050505050509050019150506040516020818303038152906040526040518082805190602001908083835b6020831015156111d157805182526020820191506020810190506020830392506111ac565b6001836020036101000a03801982511681845116808217855250505050505090500191505060405180910390206000191660001916815260200190815260200160002090508060000160009054906101000a900460ff1681600101808054600181600116156101000203166002900480601f0160208091040260200160405190810160405280929190818152602001828054600181600116156101000203166002900480156112c15780601f10611296576101008083540402835291602001916112c1565b820191906000526020600020905b8154815290600101906020018083116112a457829003601f168201915b5050505050905092509250509250929050565b50805460018160011615610100020316600290046000825580601f106112fa5750611319565b601f016020900490600052602060002090810190611318919061139c565b5b50565b828054600181600116156101000203166002900490600052602060002090601f016020900481019282601f1061135d57805160ff191683800117855561138b565b8280016001018555821561138b579182015b8281111561138a57825182559160200191906001019061136f565b5b509050611398919061139c565b5090565b6113be91905b808211156113ba5760008160009055506001016113a2565b5090565b905600a165627a7a723058200b7338d370f5c51bda81e865923b6a07245eddeb45da5ce3da1bb5aa1f0b54c90029",
  "source": "pragma solidity ^0.4.18;\n\nimport \"zeppelin-solidity/contracts/ownership/Ownable.sol\";\nimport \"./Registry.sol\";\n\ncontract Views is Ownable {\n\n    Registry public registry;\n\n    struct Data {\n        bool _isRegistered;\n        string _ipfsData;\n    }\n\n    // mapping from user addrsses and video ids to booleans\n    mapping (address=> mapping (bytes32 => Data)) private _views;\n\n    event LogCreateView(address _address, string _videoId, string _ipfsData);\n    event LogRemoveView(address _address, string _videoId);\n\n    modifier onlyOwnerOrAvatar() {\n        require((msg.sender == owner) || (msg.sender == registry.getContract(\"Avatar\")));\n        _;\n    }\n\n    constructor(Registry _registry) public {\n        owner = msg.sender;\n        registry = _registry;\n    }\n\n    function create(address _viewer, string _videoId, string _ipfsData) public onlyOwnerOrAvatar {\n        _views[_viewer][keccak256(abi.encodePacked(_videoId))] = Data(true, _ipfsData);\n        emit LogCreateView(_viewer, _videoId, _ipfsData);\n    }\n\n    function remove(address _viewer, string _videoId) public onlyOwnerOrAvatar {\n        delete _views[_viewer][keccak256(abi.encodePacked(_videoId))];\n        emit LogRemoveView(_viewer, _videoId);\n    }\n\n    function get(address _viewer, string _videoId) public view onlyOwnerOrAvatar returns(bool, string) {\n        Data storage data = _views[_viewer][keccak256(abi.encodePacked(_videoId))];\n        return (data._isRegistered, data._ipfsData);\n    }\n\n    function userViewedVideo(address _viewer, string _videoId) public view returns(bool) {\n        return _views[_viewer][keccak256(abi.encodePacked(_videoId))]._isRegistered;\n    }\n}\n",
  "sourcePath": "/home/rigel/Documents/paratii/paratii-contracts/contracts/paratii/Views.sol",
  "compiler": {
    "name": "solc",
    "version": "0.4.24+commit.e67f0147.Emscripten.clang"
  },
  "schemaVersion": "2.0.1",
  "updatedAt": "2018-07-14T17:23:22.064Z"
}