{
  "contractName": "Views",
  "abi": [
    {
      "constant": false,
      "inputs": [
        {
          "name": "_videoId",
          "type": "string"
        },
        {
          "name": "changed_opinion",
          "type": "bool"
        }
      ],
      "name": "likeVideo",
      "outputs": [],
      "payable": false,
      "stateMutability": "nonpayable",
      "type": "function"
    },
    {
      "constant": false,
      "inputs": [
        {
          "name": "_paratiiRegistry",
          "type": "address"
        }
      ],
      "name": "Videos",
      "outputs": [],
      "payable": false,
      "stateMutability": "nonpayable",
      "type": "function"
    },
    {
      "constant": false,
      "inputs": [
        {
          "name": "_videoId",
          "type": "string"
        }
      ],
      "name": "unregisterVideo",
      "outputs": [],
      "payable": false,
      "stateMutability": "nonpayable",
      "type": "function"
    },
    {
      "constant": false,
      "inputs": [
        {
          "name": "_videoId",
          "type": "string"
        },
        {
          "name": "changed_opinion",
          "type": "bool"
        }
      ],
      "name": "dislikeVideo",
      "outputs": [],
      "payable": false,
      "stateMutability": "nonpayable",
      "type": "function"
    },
    {
      "constant": true,
      "inputs": [],
      "name": "owner",
      "outputs": [
        {
          "name": "",
          "type": "address"
        }
      ],
      "payable": false,
      "stateMutability": "view",
      "type": "function"
    },
    {
      "constant": true,
      "inputs": [
        {
          "name": "_videoId",
          "type": "string"
        }
      ],
      "name": "getVideoInfo",
      "outputs": [
        {
          "name": "",
          "type": "address"
        },
        {
          "name": "",
          "type": "uint256"
        },
        {
          "name": "",
          "type": "string"
        },
        {
          "name": "",
          "type": "address"
        }
      ],
      "payable": false,
      "stateMutability": "view",
      "type": "function"
    },
    {
      "constant": false,
      "inputs": [
        {
          "name": "_videoId",
          "type": "string"
        },
        {
          "name": "_owner",
          "type": "address"
        },
        {
          "name": "_price",
          "type": "uint256"
        },
        {
          "name": "_ipfsHash",
          "type": "string"
        }
      ],
      "name": "registerVideo",
      "outputs": [],
      "payable": false,
      "stateMutability": "nonpayable",
      "type": "function"
    },
    {
      "constant": false,
      "inputs": [
        {
          "name": "newOwner",
          "type": "address"
        }
      ],
      "name": "transferOwnership",
      "outputs": [],
      "payable": false,
      "stateMutability": "nonpayable",
      "type": "function"
    },
    {
      "constant": true,
      "inputs": [
        {
          "name": "_videoId",
          "type": "string"
        }
      ],
      "name": "getStats",
      "outputs": [
        {
          "name": "",
          "type": "uint256"
        },
        {
          "name": "",
          "type": "uint256"
        },
        {
          "name": "",
          "type": "uint256"
        }
      ],
      "payable": false,
      "stateMutability": "view",
      "type": "function"
    },
    {
      "anonymous": false,
      "inputs": [
        {
          "indexed": false,
          "name": "videoId",
          "type": "string"
        },
        {
          "indexed": false,
          "name": "owner",
          "type": "address"
        },
        {
          "indexed": false,
          "name": "price",
          "type": "uint256"
        },
        {
          "indexed": false,
          "name": "ipfsHash",
          "type": "string"
        },
        {
          "indexed": false,
          "name": "registrar",
          "type": "address"
        }
      ],
      "name": "LogRegisterVideo",
      "type": "event"
    },
    {
      "anonymous": false,
      "inputs": [
        {
          "indexed": false,
          "name": "videoId",
          "type": "string"
        }
      ],
      "name": "LogUnregisterVideo",
      "type": "event"
    },
    {
      "anonymous": false,
      "inputs": [
        {
          "indexed": true,
          "name": "previousOwner",
          "type": "address"
        },
        {
          "indexed": true,
          "name": "newOwner",
          "type": "address"
        }
      ],
      "name": "OwnershipTransferred",
      "type": "event"
    }
  ],
  "bytecode": "0x6060604052336000806101000a81548173ffffffffffffffffffffffffffffffffffffffff021916908373ffffffffffffffffffffffffffffffffffffffff160217905550611653806100536000396000f300606060405260043610610099576000357c0100000000000000000000000000000000000000000000000000000000900463ffffffff168063075ca0d31461009e5780633ec0fec3146101065780634b6169a81461013f57806358439c741461019c5780638da5cb5b14610204578063d6b5e91314610259578063e14d844d1461039c578063f2fde38b14610464578063fa0ae7681461049d575b600080fd5b34156100a957600080fd5b610104600480803590602001908201803590602001908080601f01602080910402602001604051908101604052809392919081815260200183838082843782019150505050505091908035151590602001909190505061051c565b005b341561011157600080fd5b61013d600480803573ffffffffffffffffffffffffffffffffffffffff169060200190919050506106f3565b005b341561014a57600080fd5b61019a600480803590602001908201803590602001908080601f01602080910402602001604051908101604052809392919081815260200183838082843782019150505050505091905050610777565b005b34156101a757600080fd5b610202600480803590602001908201803590602001908080601f016020809104026020016040519081016040528093929190818152602001838380828437820191505050505050919080351515906020019091905050610aac565b005b341561020f57600080fd5b610217610c83565b604051808273ffffffffffffffffffffffffffffffffffffffff1673ffffffffffffffffffffffffffffffffffffffff16815260200191505060405180910390f35b341561026457600080fd5b6102b4600480803590602001908201803590602001908080601f01602080910402602001604051908101604052809392919081815260200183838082843782019150505050505091905050610ca8565b604051808573ffffffffffffffffffffffffffffffffffffffff1673ffffffffffffffffffffffffffffffffffffffff168152602001848152602001806020018373ffffffffffffffffffffffffffffffffffffffff1673ffffffffffffffffffffffffffffffffffffffff168152602001828103825284818151815260200191508051906020019080838360005b8381101561035e578082015181840152602081019050610343565b50505050905090810190601f16801561038b5780820380516001836020036101000a031916815260200191505b509550505050505060405180910390f35b34156103a757600080fd5b610462600480803590602001908201803590602001908080601f0160208091040260200160405190810160405280939291908181526020018383808284378201915050505050509190803573ffffffffffffffffffffffffffffffffffffffff1690602001909190803590602001909190803590602001908201803590602001908080601f01602080910402602001604051908101604052809392919081815260200183838082843782019150505050505091905050610e34565b005b341561046f57600080fd5b61049b600480803573ffffffffffffffffffffffffffffffffffffffff16906020019091905050611326565b005b34156104a857600080fd5b6104f8600480803590602001908201803590602001908080601f0160208091040260200160405190810160405280939291908181526020018383808284378201915050505050509190505061147b565b60405180848152602001838152602001828152602001935050505060405180910390f35b6000600260009054906101000a900473ffffffffffffffffffffffffffffffffffffffff1673ffffffffffffffffffffffffffffffffffffffff1663358177736000604051602001526040518163ffffffff167c01000000000000000000000000000000000000000000000000000000000281526004018080602001828103825260058152602001807f5573657273000000000000000000000000000000000000000000000000000000815250602001915050602060405180830381600087803b15156105e857600080fd5b6102c65a03f115156105f957600080fd5b5050506040518051905073ffffffffffffffffffffffffffffffffffffffff163373ffffffffffffffffffffffffffffffffffffffff1614151561063c57600080fd5b60016000846040518082805190602001908083835b6020831015156106765780518252602082019150602081019050602083039250610651565b6001836020036101000a03801982511681845116808217855250505050505090500191505060405180910390206000191660001916815260200190815260200160002090506001816005016001015401816005016001018190555081156106ee57600181600501600201540381600501600201819055505b505050565b336000806101000a81548173ffffffffffffffffffffffffffffffffffffffff021916908373ffffffffffffffffffffffffffffffffffffffff16021790555080600260006101000a81548173ffffffffffffffffffffffffffffffffffffffff021916908373ffffffffffffffffffffffffffffffffffffffff16021790555050565b600081600080826040518082805190602001908083835b6020831015156107b3578051825260208201915060208101905060208303925061078e565b6001836020036101000a0380198251168184511680821785525050505050509050019150506040518091039020915060016000836000191660001916815260200190815260200160002090506000809054906101000a900473ffffffffffffffffffffffffffffffffffffffff1673ffffffffffffffffffffffffffffffffffffffff163373ffffffffffffffffffffffffffffffffffffffff1614806108ee575060008160040160009054906101000a900473ffffffffffffffffffffffffffffffffffffffff1673ffffffffffffffffffffffffffffffffffffffff1614806108ed57508060040160009054906101000a900473ffffffffffffffffffffffffffffffffffffffff1673ffffffffffffffffffffffffffffffffffffffff163373ffffffffffffffffffffffffffffffffffffffff16145b5b15156108f957600080fd5b846040518082805190602001908083835b60208310151561092f578051825260208201915060208101905060208303925061090a565b6001836020036101000a038019825116818451168082178552505050505050905001915050604051809103902093506001600085600019166000191681526020019081526020016000206000808201600090556001820160006109929190611526565b60028201600090556003820160006101000a81549073ffffffffffffffffffffffffffffffffffffffff02191690556004820160006101000a81549073ffffffffffffffffffffffffffffffffffffffff02191690556005820160008082016000905560018201600090556002820160009055505050507fa0b79ab9ad1be0b8f6b7cdde4ed24a951845c2e1f06b65a2ef4fe76b1187ff17856040518080602001828103825283818151815260200191508051906020019080838360005b83811015610a6b578082015181840152602081019050610a50565b50505050905090810190601f168015610a985780820380516001836020036101000a031916815260200191505b509250505060405180910390a15050505050565b6000600260009054906101000a900473ffffffffffffffffffffffffffffffffffffffff1673ffffffffffffffffffffffffffffffffffffffff1663358177736000604051602001526040518163ffffffff167c01000000000000000000000000000000000000000000000000000000000281526004018080602001828103825260058152602001807f5573657273000000000000000000000000000000000000000000000000000000815250602001915050602060405180830381600087803b1515610b7857600080fd5b6102c65a03f11515610b8957600080fd5b5050506040518051905073ffffffffffffffffffffffffffffffffffffffff163373ffffffffffffffffffffffffffffffffffffffff16141515610bcc57600080fd5b60016000846040518082805190602001908083835b602083101515610c065780518252602082019150602081019050602083039250610be1565b6001836020036101000a0380198251168184511680821785525050505050509050019150506040518091039020600019166000191681526020019081526020016000209050600181600501600201540181600501600201819055508115610c7e57600181600501600101540381600501600101819055505b505050565b6000809054906101000a900473ffffffffffffffffffffffffffffffffffffffff1681565b600080610cb361156e565b60008060016000876040518082805190602001908083835b602083101515610cf05780518252602082019150602081019050602083039250610ccb565b6001836020036101000a03801982511681845116808217855250505050505090500191505060405180910390206000191660001916815260200190815260200160002090508060030160009054906101000a900473ffffffffffffffffffffffffffffffffffffffff168160020154826001018360040160009054906101000a900473ffffffffffffffffffffffffffffffffffffffff16818054600181600116156101000203166002900480601f016020809104026020016040519081016040528092919081815260200182805460018160011615610100020316600290048015610e1d5780601f10610df257610100808354040283529160200191610e1d565b820191906000526020600020905b815481529060010190602001808311610e0057829003601f168201915b505050505091509450945094509450509193509193565b600084600080826040518082805190602001908083835b602083101515610e705780518252602082019150602081019050602083039250610e4b565b6001836020036101000a0380198251168184511680821785525050505050509050019150506040518091039020915060016000836000191660001916815260200190815260200160002090506000809054906101000a900473ffffffffffffffffffffffffffffffffffffffff1673ffffffffffffffffffffffffffffffffffffffff163373ffffffffffffffffffffffffffffffffffffffff161480610fab575060008160040160009054906101000a900473ffffffffffffffffffffffffffffffffffffffff1673ffffffffffffffffffffffffffffffffffffffff161480610faa57508060040160009054906101000a900473ffffffffffffffffffffffffffffffffffffffff1673ffffffffffffffffffffffffffffffffffffffff163373ffffffffffffffffffffffffffffffffffffffff16145b5b1515610fb657600080fd5b876040518082805190602001908083835b602083101515610fec5780518252602082019150602081019050602083039250610fc7565b6001836020036101000a0380198251168184511680821785525050505050509050019150506040518091039020935060c060405190810160405280856000191681526020018681526020018781526020018873ffffffffffffffffffffffffffffffffffffffff1681526020013373ffffffffffffffffffffffffffffffffffffffff168152602001606060405190810160405280600081526020016000815260200160008152508152506001600086600019166000191681526020019081526020016000206000820151816000019060001916905560208201518160010190805190602001906110de929190611582565b506040820151816002015560608201518160030160006101000a81548173ffffffffffffffffffffffffffffffffffffffff021916908373ffffffffffffffffffffffffffffffffffffffff16021790555060808201518160040160006101000a81548173ffffffffffffffffffffffffffffffffffffffff021916908373ffffffffffffffffffffffffffffffffffffffff16021790555060a08201518160050160008201518160000155602082015181600101556040820151816002015550509050507f9aaaf541531d84f7f677bd06b3caf9f2c5fed9ebbed21f018bcf574894f545d2888888883360405180806020018673ffffffffffffffffffffffffffffffffffffffff1673ffffffffffffffffffffffffffffffffffffffff168152602001858152602001806020018473ffffffffffffffffffffffffffffffffffffffff1673ffffffffffffffffffffffffffffffffffffffff168152602001838103835288818151815260200191508051906020019080838360005b8381101561127757808201518184015260208101905061125c565b50505050905090810190601f1680156112a45780820380516001836020036101000a031916815260200191505b50838103825285818151815260200191508051906020019080838360005b838110156112dd5780820151818401526020810190506112c2565b50505050905090810190601f16801561130a5780820380516001836020036101000a031916815260200191505b5097505050505050505060405180910390a15050505050505050565b6000809054906101000a900473ffffffffffffffffffffffffffffffffffffffff1673ffffffffffffffffffffffffffffffffffffffff163373ffffffffffffffffffffffffffffffffffffffff1614151561138157600080fd5b600073ffffffffffffffffffffffffffffffffffffffff168173ffffffffffffffffffffffffffffffffffffffff16141515156113bd57600080fd5b8073ffffffffffffffffffffffffffffffffffffffff166000809054906101000a900473ffffffffffffffffffffffffffffffffffffffff1673ffffffffffffffffffffffffffffffffffffffff167f8be0079c531659141344cd1fd0a4f28419497f9722a3daafe3b4186f6b6457e060405160405180910390a3806000806101000a81548173ffffffffffffffffffffffffffffffffffffffff021916908373ffffffffffffffffffffffffffffffffffffffff16021790555050565b600080600080600060016000876040518082805190602001908083835b6020831015156114bd5780518252602082019150602081019050602083039250611498565b6001836020036101000a038019825116818451168082178552505050505050905001915050604051809103902060001916600019168152602001908152602001600020915081600501905080600001548160010154826002015494509450945050509193909250565b50805460018160011615610100020316600290046000825580601f1061154c575061156b565b601f01602090049060005260206000209081019061156a9190611602565b5b50565b602060405190810160405280600081525090565b828054600181600116156101000203166002900490600052602060002090601f016020900481019282601f106115c357805160ff19168380011785556115f1565b828001600101855582156115f1579182015b828111156115f05782518255916020019190600101906115d5565b5b5090506115fe9190611602565b5090565b61162491905b80821115611620576000816000905550600101611608565b5090565b905600a165627a7a7230582056e4db0b9ce91d21e2d19019803b6efe3126a6eadbd1841d8d795e80177fb2930029",
  "source": "pragma solidity ^0.4.18;\n\nimport \"zeppelin-solidity/contracts/ownership/Ownable.sol\";\nimport 'zeppelin-solidity/contracts/math/SafeMath.sol';\nimport './Registry.sol';\n\ncontract Views is Ownable {\n\n    struct Stats {\n        uint256 views;\n        uint256 likes;\n        uint256 dislikes;\n    }\n\n    struct VideoInfo {\n      bytes32 _id;\n      string ipfsHash;\n      uint256 price; // price in PTI-wei\n      address owner;\n      address registrar; // the account that has registered this video\n      Stats stats;\n    }\n\n    mapping (bytes32=>VideoInfo) videos;\n    Registry paratiiRegistry;\n\n    event LogRegisterVideo(string videoId, address owner, uint price, string ipfsHash, address registrar);\n    event LogUnregisterVideo(string videoId);\n\n    // ???\n    modifier onlyUserRegistry() {\n        require(msg.sender == paratiiRegistry.getContract('Users'));\n        _;\n    }\n\n    /*modifier onlyOwnerOrAvatar() {\n        address Avatar = paratiiRegistry.getContract('Avatar');\n        if (Avatar == 0) {\n            require(msg.sender == owner);\n        } else {\n            require(msg.sender == owner);\n            require((msg.sender == owner) || (msg.sender == paratiiRegistry.getContract('Avatar')));\n        }\n        _;\n    }*/\n\n    modifier onlyRegistrarOrAvatar(string _videoId) {\n      bytes32 id = keccak256(_videoId);\n      VideoInfo storage videoInfo = videos[id];\n      require(msg.sender == owner || (videoInfo.registrar == 0 || msg.sender == videoInfo.registrar));\n      _;\n    }\n\n    function Videos(Registry _paratiiRegistry) public {\n        owner = msg.sender;\n        paratiiRegistry = _paratiiRegistry;\n    }\n\n    function registerVideo(\n        string _videoId,\n        address _owner,\n        uint256 _price,\n        string _ipfsHash\n    ) onlyRegistrarOrAvatar(_videoId) public {\n\n        bytes32 id = keccak256(_videoId);\n\n        videos[id] = VideoInfo({\n            _id: id,\n            price: _price,\n            owner: _owner,\n            ipfsHash: _ipfsHash,\n            registrar: msg.sender,\n            stats: Stats({\n              views: 0,\n              likes: 0,\n              dislikes: 0\n              })\n          });\n\n        LogRegisterVideo(_videoId, _owner, _price, _ipfsHash, msg.sender);\n    }\n\n    function unregisterVideo(string _videoId) public onlyRegistrarOrAvatar(_videoId) {\n        bytes32 id = keccak256(_videoId);\n        delete videos[id];\n        LogUnregisterVideo(_videoId);\n    }\n\n    function getVideoInfo(string _videoId) public constant returns(address, uint256, string, address)  {\n      VideoInfo storage videoInfo = videos[keccak256(_videoId)];\n      return (videoInfo.owner, videoInfo.price, videoInfo.ipfsHash, videoInfo.registrar);\n    }\n\n    function likeVideo(string _videoId, bool changed_opinion) public onlyUserRegistry {\n         VideoInfo storage videoInfo = videos[keccak256(_videoId)];\n         videoInfo.stats.likes = videoInfo.stats.likes + 1;\n\n         if (changed_opinion) {\n             videoInfo.stats.dislikes = videoInfo.stats.dislikes - 1;\n         }\n    }\n\n    function dislikeVideo(string _videoId, bool changed_opinion) public onlyUserRegistry {\n         VideoInfo storage videoInfo = videos[keccak256(_videoId)];\n         videoInfo.stats.dislikes = videoInfo.stats.dislikes + 1;\n\n         if (changed_opinion) {\n             videoInfo.stats.likes = videoInfo.stats.likes - 1;\n         }\n    }\n\n    function getStats(string _videoId) public constant returns (uint256, uint256, uint256) {\n         VideoInfo storage videoInfo = videos[keccak256(_videoId)];\n         Stats storage stats = videoInfo.stats;\n         return (stats.views, stats.likes, stats.dislikes);\n    }\n}\n",
  "sourcePath": "/media/data/projects/paratii/paratii-contracts/contracts/paratii/Views.sol",
  "compiler": {
    "name": "solc",
    "version": "0.4.18+commit.9cf6e910.Emscripten.clang"
  },
  "schemaVersion": "1.0.1",
  "updatedAt": "2017-12-19T08:52:48.456Z"
}