{
  "contractName": "Vouchers",
  "abi": [
    {
      "constant": true,
      "inputs": [],
      "name": "registry",
      "outputs": [
        {
          "name": "",
          "type": "address"
        }
      ],
      "payable": false,
      "stateMutability": "view",
      "type": "function"
    },
    {
      "constant": true,
      "inputs": [],
      "name": "owner",
      "outputs": [
        {
          "name": "",
          "type": "address"
        }
      ],
      "payable": false,
      "stateMutability": "view",
      "type": "function"
    },
    {
      "constant": true,
      "inputs": [
        {
          "name": "",
          "type": "bytes32"
        }
      ],
      "name": "vouchers",
      "outputs": [
        {
          "name": "_claimant",
          "type": "address"
        },
        {
          "name": "_amount",
          "type": "uint256"
        }
      ],
      "payable": false,
      "stateMutability": "view",
      "type": "function"
    },
    {
      "constant": false,
      "inputs": [
        {
          "name": "newOwner",
          "type": "address"
        }
      ],
      "name": "transferOwnership",
      "outputs": [],
      "payable": false,
      "stateMutability": "nonpayable",
      "type": "function"
    },
    {
      "inputs": [
        {
          "name": "_registry",
          "type": "address"
        }
      ],
      "payable": false,
      "stateMutability": "nonpayable",
      "type": "constructor"
    },
    {
      "payable": true,
      "stateMutability": "payable",
      "type": "fallback"
    },
    {
      "anonymous": false,
      "inputs": [
        {
          "indexed": false,
          "name": "_hashedVoucher",
          "type": "bytes32"
        },
        {
          "indexed": false,
          "name": "_amount",
          "type": "uint256"
        }
      ],
      "name": "LogCreateVoucher",
      "type": "event"
    },
    {
      "anonymous": false,
      "inputs": [
        {
          "indexed": false,
          "name": "_hashedVoucher",
          "type": "bytes32"
        }
      ],
      "name": "LogRemoveVoucher",
      "type": "event"
    },
    {
      "anonymous": false,
      "inputs": [
        {
          "indexed": false,
          "name": "_hashedVoucher",
          "type": "bytes32"
        },
        {
          "indexed": false,
          "name": "_voucher",
          "type": "string"
        },
        {
          "indexed": false,
          "name": "_amount",
          "type": "uint256"
        },
        {
          "indexed": false,
          "name": "_claimant",
          "type": "address"
        }
      ],
      "name": "LogRedeemVoucher",
      "type": "event"
    },
    {
      "anonymous": false,
      "inputs": [
        {
          "indexed": true,
          "name": "previousOwner",
          "type": "address"
        },
        {
          "indexed": true,
          "name": "newOwner",
          "type": "address"
        }
      ],
      "name": "OwnershipTransferred",
      "type": "event"
    },
    {
      "constant": false,
      "inputs": [
        {
          "name": "_hashedVoucher",
          "type": "bytes32"
        },
        {
          "name": "_amount",
          "type": "uint256"
        }
      ],
      "name": "create",
      "outputs": [],
      "payable": false,
      "stateMutability": "nonpayable",
      "type": "function"
    },
    {
      "constant": false,
      "inputs": [
        {
          "name": "_hashedVoucher",
          "type": "bytes32"
        }
      ],
      "name": "remove",
      "outputs": [],
      "payable": false,
      "stateMutability": "nonpayable",
      "type": "function"
    },
    {
      "constant": true,
      "inputs": [
        {
          "name": "_voucher",
          "type": "string"
        }
      ],
      "name": "hashVoucher",
      "outputs": [
        {
          "name": "_hashedVoucher",
          "type": "bytes32"
        }
      ],
      "payable": false,
      "stateMutability": "pure",
      "type": "function"
    },
    {
      "constant": false,
      "inputs": [
        {
          "name": "_voucher",
          "type": "string"
        }
      ],
      "name": "redeem",
      "outputs": [
        {
          "name": "",
          "type": "bool"
        }
      ],
      "payable": false,
      "stateMutability": "nonpayable",
      "type": "function"
    }
  ],
  "bytecode": "0x6060604052341561000f57600080fd5b604051602080610e7b83398101604052808051906020019091905050336000806101000a81548173ffffffffffffffffffffffffffffffffffffffff021916908373ffffffffffffffffffffffffffffffffffffffff160217905550336000806101000a81548173ffffffffffffffffffffffffffffffffffffffff021916908373ffffffffffffffffffffffffffffffffffffffff16021790555080600160006101000a81548173ffffffffffffffffffffffffffffffffffffffff021916908373ffffffffffffffffffffffffffffffffffffffff16021790555050610d7f806100fc6000396000f30060606040526004361061008e576000357c0100000000000000000000000000000000000000000000000000000000900463ffffffff16806306810649146100905780631222c25a146101095780637b1039991461017e5780638da5cb5b146101d357806395bc267314610228578063a042c1321461024f578063e4c96ac41461027f578063f2fde38b146102ed575b005b341561009b57600080fd5b6100eb600480803590602001908201803590602001908080601f01602080910402602001604051908101604052809392919081815260200183838082843782019150505050505091905050610326565b60405180826000191660001916815260200191505060405180910390f35b341561011457600080fd5b610164600480803590602001908201803590602001908080601f01602080910402602001604051908101604052809392919081815260200183838082843782019150505050505091905050610392565b604051808215151515815260200191505060405180910390f35b341561018957600080fd5b61019161071b565b604051808273ffffffffffffffffffffffffffffffffffffffff1673ffffffffffffffffffffffffffffffffffffffff16815260200191505060405180910390f35b34156101de57600080fd5b6101e6610741565b604051808273ffffffffffffffffffffffffffffffffffffffff1673ffffffffffffffffffffffffffffffffffffffff16815260200191505060405180910390f35b341561023357600080fd5b61024d600480803560001916906020019091905050610766565b005b341561025a57600080fd5b61027d60048080356000191690602001909190803590602001909190505061095d565b005b341561028a57600080fd5b6102a4600480803560001916906020019091905050610bba565b604051808373ffffffffffffffffffffffffffffffffffffffff1673ffffffffffffffffffffffffffffffffffffffff1681526020018281526020019250505060405180910390f35b34156102f857600080fd5b610324600480803573ffffffffffffffffffffffffffffffffffffffff16906020019091905050610bfe565b005b6000816040518082805190602001908083835b60208310151561035e5780518252602082019150602081019050602083039250610339565b6001836020036101000a03801982511681845116808217855250505050505090500191505060405180910390209050919050565b6000806000806103a185610326565b92506002600084600019166000191681526020019081526020016000209150600082600101541115156103d357600080fd5b600073ffffffffffffffffffffffffffffffffffffffff168260000160009054906101000a900473ffffffffffffffffffffffffffffffffffffffff1673ffffffffffffffffffffffffffffffffffffffff1614151561043257600080fd5b3360026000856000191660001916815260200190815260200160002060000160006101000a81548173ffffffffffffffffffffffffffffffffffffffff021916908373ffffffffffffffffffffffffffffffffffffffff160217905550600160009054906101000a900473ffffffffffffffffffffffffffffffffffffffff1673ffffffffffffffffffffffffffffffffffffffff1663358177736040518163ffffffff167c010000000000000000000000000000000000000000000000000000000002815260040180806020018281038252600c8152602001807f50617261746969546f6b656e0000000000000000000000000000000000000000815250602001915050602060405180830381600087803b151561055057600080fd5b5af1151561055d57600080fd5b5050506040518051905090508073ffffffffffffffffffffffffffffffffffffffff1663a9059cbb3384600101546040518363ffffffff167c0100000000000000000000000000000000000000000000000000000000028152600401808373ffffffffffffffffffffffffffffffffffffffff1673ffffffffffffffffffffffffffffffffffffffff16815260200182815260200192505050602060405180830381600087803b151561060f57600080fd5b5af1151561061c57600080fd5b50505060405180519050507f2eaff7d7b1644e86930213c456e12bfdad67722d421620a44206c51cc08209398386846001015433604051808560001916600019168152602001806020018481526020018373ffffffffffffffffffffffffffffffffffffffff1673ffffffffffffffffffffffffffffffffffffffff168152602001828103825285818151815260200191508051906020019080838360005b838110156106d65780820151818401526020810190506106bb565b50505050905090810190601f1680156107035780820380516001836020036101000a031916815260200191505b509550505050505060405180910390a1505050919050565b600160009054906101000a900473ffffffffffffffffffffffffffffffffffffffff1681565b6000809054906101000a900473ffffffffffffffffffffffffffffffffffffffff1681565b6000809054906101000a900473ffffffffffffffffffffffffffffffffffffffff1673ffffffffffffffffffffffffffffffffffffffff163373ffffffffffffffffffffffffffffffffffffffff1614806108c35750600160009054906101000a900473ffffffffffffffffffffffffffffffffffffffff1673ffffffffffffffffffffffffffffffffffffffff1663358177736040518163ffffffff167c01000000000000000000000000000000000000000000000000000000000281526004018080602001828103825260068152602001807f4176617461720000000000000000000000000000000000000000000000000000815250602001915050602060405180830381600087803b151561087d57600080fd5b5af1151561088a57600080fd5b5050506040518051905073ffffffffffffffffffffffffffffffffffffffff163373ffffffffffffffffffffffffffffffffffffffff16145b15156108ce57600080fd5b600260008260001916600019168152602001908152602001600020600080820160006101000a81549073ffffffffffffffffffffffffffffffffffffffff0219169055600182016000905550507f14e1cb1f041e31ab0914847975c8ea1e84618c1b2f051b668e413a18a78601cf8160405180826000191660001916815260200191505060405180910390a150565b6000809054906101000a900473ffffffffffffffffffffffffffffffffffffffff1673ffffffffffffffffffffffffffffffffffffffff163373ffffffffffffffffffffffffffffffffffffffff161480610aba5750600160009054906101000a900473ffffffffffffffffffffffffffffffffffffffff1673ffffffffffffffffffffffffffffffffffffffff1663358177736040518163ffffffff167c01000000000000000000000000000000000000000000000000000000000281526004018080602001828103825260068152602001807f4176617461720000000000000000000000000000000000000000000000000000815250602001915050602060405180830381600087803b1515610a7457600080fd5b5af11515610a8157600080fd5b5050506040518051905073ffffffffffffffffffffffffffffffffffffffff163373ffffffffffffffffffffffffffffffffffffffff16145b1515610ac557600080fd5b600081111515610ad457600080fd5b6040805190810160405280600073ffffffffffffffffffffffffffffffffffffffff1681526020018281525060026000846000191660001916815260200190815260200160002060008201518160000160006101000a81548173ffffffffffffffffffffffffffffffffffffffff021916908373ffffffffffffffffffffffffffffffffffffffff160217905550602082015181600101559050507f53dea2f832632fad149738c97762fd3c519858d023692f10c21ea406b857a77882826040518083600019166000191681526020018281526020019250505060405180910390a15050565b60026020528060005260406000206000915090508060000160009054906101000a900473ffffffffffffffffffffffffffffffffffffffff16908060010154905082565b6000809054906101000a900473ffffffffffffffffffffffffffffffffffffffff1673ffffffffffffffffffffffffffffffffffffffff163373ffffffffffffffffffffffffffffffffffffffff16141515610c5957600080fd5b600073ffffffffffffffffffffffffffffffffffffffff168173ffffffffffffffffffffffffffffffffffffffff1614151515610c9557600080fd5b8073ffffffffffffffffffffffffffffffffffffffff166000809054906101000a900473ffffffffffffffffffffffffffffffffffffffff1673ffffffffffffffffffffffffffffffffffffffff167f8be0079c531659141344cd1fd0a4f28419497f9722a3daafe3b4186f6b6457e060405160405180910390a3806000806101000a81548173ffffffffffffffffffffffffffffffffffffffff021916908373ffffffffffffffffffffffffffffffffffffffff160217905550505600a165627a7a72305820d26a600d8369f97ab511eb426681070ebb907a03266b23a05b38f0ebf1206e3a0029",
  "source": "pragma solidity ^0.4.18;\n\nimport \"zeppelin-solidity/contracts/ownership/Ownable.sol\";\nimport './ParatiiToken.sol';\nimport './Registry.sol';\n\ncontract Vouchers is Ownable {\n\n    Registry public registry;\n\n    struct Data {\n      address _claimant;\n      uint _amount;\n    }\n\n    mapping (bytes32 => Data) public vouchers;\n\n    event LogCreateVoucher(bytes32 _hashedVoucher, uint _amount);\n    event LogRemoveVoucher(bytes32 _hashedVoucher);\n    event LogRedeemVoucher(bytes32 _hashedVoucher, string _voucher, uint _amount, address _claimant);\n\n    modifier onlyOwnerOrAvatar() {\n        require((msg.sender == owner) || (msg.sender == registry.getContract('Avatar')));\n        _;\n    }\n\n    function Vouchers(Registry _registry) public {\n        owner = msg.sender;\n        registry = _registry;\n    }\n\n    // make this contract payable\n    function() public payable { }\n\n    function create(bytes32 _hashedVoucher, uint _amount) public onlyOwnerOrAvatar {\n        require(_amount > 0);\n        vouchers[_hashedVoucher] = Data(address(0), _amount);\n        LogCreateVoucher(_hashedVoucher, _amount);\n    }\n\n    function remove(bytes32 _hashedVoucher) public onlyOwnerOrAvatar {\n       delete vouchers[_hashedVoucher];\n       LogRemoveVoucher(_hashedVoucher);\n    }\n\n    /* A convenience function that hashes teh voucher, to be call'ed locally */\n    function hashVoucher(string _voucher) public pure returns(bytes32 _hashedVoucher) {\n      return keccak256(_voucher);\n    }\n\n    /*\n     * redeem the Voucher\n     * NOTE: This _is_ vulnerable to front-running attacks (the attacker can intercept the transaction,\n       extract the voucher, and redeem it himself)\n     */\n    function redeem(string _voucher) public returns(bool) {\n        // the voucher must exist and not have been redeemed (yet)\n        bytes32 hashedVoucher = hashVoucher(_voucher);\n        Data storage voucher = vouchers[hashedVoucher];\n        require(voucher._amount > 0);\n        require(voucher._claimant == address(0));\n        // invalidate the voucher, and send the money to the sender\n        vouchers[hashedVoucher]._claimant = msg.sender;\n        // get the pti token contract from the registry\n        ParatiiToken token = ParatiiToken(registry.getContract('ParatiiToken'));\n        token.transfer(msg.sender, voucher._amount);\n        LogRedeemVoucher(hashedVoucher, _voucher, voucher._amount, msg.sender);\n    }\n}\n",
  "sourcePath": "/media/data2/projects/paratii/contracts/contracts/paratii/Vouchers.sol",
  "compiler": {
    "name": "solc",
    "version": "0.4.21+commit.dfe3193c.Emscripten.clang"
  },
  "schemaVersion": "2.0.0",
  "updatedAt": "2018-04-26T18:28:28.305Z"
}